S029000053414D5732355F485454505F414E445F4D5154545F535441525445525F434F44452E73726563E8
S214000000C03200202D670000296700002967000025
S21400001000000000000000000000000000000000DB
S214000020000000000000000000000000296700003B
S2140000300000000000000000296700006D8D000031
S214000040296700002967000029670000ED470000C7
S214000050D5410000296700002967000029670000D5
S21400006029670000154C0000254C0000354C0000A8
S214000070454C0000554C0000654C0000F966000039
S214000080096700001967000029670000296700005B
S214000090296700000000000000000000296700003B
S2140000A0296700002967000029670000296700000B
S2140000B00000000010B5064C2378002B07D1054B36
S2140000C0002B02D0044800E000BF0123237010BDBF
S2140000D0FC0200200000000050010100084B10B593
S2140000E0002B03D00749084800E000BF0748036814
S2140000F0002B00D110BD064B002BFBD09847F9E72C
S2140001000000000000030020500101005001010023
S2140001100000000010B5064B19688B7F5A1E9341ED
S214000120DBB24A7B096803480078034CA04710BD41
S2140001301803002040030020D10D000010B5042352
S214000140002801D0180010BD0E4B9B7A033B012BF4
S2140001500DD900220C4B1A700A4C0C4B1C600C4B31
S2140001609847A37A023B58424341DBB2EAE7054B85
S21400017002229A72074A1A6001225A7300229A775C
S214000180E7E7C0461C0300204003002018030020B9
S21400019015010000801A0600F8B5094D094F0A4EF1
S2140001A000210A48B847041E07D0B047FF23034281
S2140001B003D0013D002DF3D100242000F8BDC04639
S2140001C0410D0300151000002D1000000D1B00004F
S2140001D010B582B00C4B1B681989090401230093E3
S2140001E010220A480A4CA047002801D102B010BDD0
S2140001F0054B18680E300121064B98470028F5D0AD
S214000200054B9847F2E7C04618030020091108007E
S214000210850E0000B11000003D11000010B5044B23
S2140002201B78002B00D010BD0020024B9847FAE741
S21400023040030020250E000010B50422034B9A72DE
S214000240FB32034B1A70034B984710BD1C0300206B
S21400025040030020D10C0000F0B5C64600B588B0BB
S214000260CB4B98470400012806D0CA4B984720007D
S21400027008B004BC9046F0BDC74B1B680122DA727A
S21400028000221A731A81C54B984700218820400126
S214000290C34B9847002807D1BF4B1B6803229A72AE
S2140002A0BC4B98470324E2E7D5214900BD48BC4B28
S2140002B098470026002825D1B74B1B68DB7ADB075A
S2140002C000D5EBE1B44B1B68DA7A09231340012B07
S2140002D00FD180218900B448B14B98470028DBD065
S2140002E0AD4B1B68DB7ADB0703D5B04B984700287D
S2140002F0D2D0AF4B9847A84B1B6800229A72A54BEA
S2140003009847B4E7AB4B9847431C00D1C4E10005BF
S214000310000DD5235B0001369842BDD1CCE7002105
S214000320A5489F4B9847002819D19B4B1B68022273
S214000330DA72002188204001994B98470028ABD0FC
S2140003409E4D974F9B4E00219D48B8470028A3D04E
S214000350B047C3077DD5013D002DF4D19CE7954BF2
S2140003609847430005D58C4B1A68D37A08210B436F
S214000370D372002193488A4B984700288CD0864B2E
S2140003801B68DB7ADA0700D4A4E18F4B9847002875
S21400039082D0814B1A68537C0721194089008B480C
S2140003A00858FA21890041435B061B0F9B008848CA
S2140003B01B584B431360937B9B0900D03CE1917D17
S2140003C08911537D9B00107D800203430B43107EF2
S2140003D0C011D17D490008431B051B0D01330721C1
S2140003E0014002318B40D07C0F2101408B409B0A9C
S2140003F05360118909047748694B9847002800D153
S2140004004AE701230093082200217348734DA8474A
S214000410002800D140E7012106A8714B9847002824
S21400042000D139E76F4B9847002800D134E706AB78
S2140004301B780F221340012B00D119E1002B00D1AD
S21400044009E1022B00D118E1534B1B6810221A73E6
S21400045005E100215848524B9847002800D11BE779
S214000460544B9847C023DB0518408023DB05984291
S21400047005D1494B1A68D17A08230B43D372002161
S2140004805048474B9847002800D105E74E4B984701
S214000490002800D100E7404B1A68937B9B061B0F91
S2140004A0022B00D1A8E007D9032B00D1A7E0042B2C
S2140004B004D14023137303E0012B66D01223137379
S2140004C0537C5906090F8900072003409B003F48CC
S2140004D01858FA239B004343434809584B4313607C
S2140004E0917D8911537D9B00107D800203430B4351
S2140004F01B051B0D3D498B420FD0107EC011D17DD0
S2140005004900014301330720014002318B40D17C72
S214000510083001408B409B0A5360137B3F2B7BD9EE
S2140005200021009101238022920031482B4DA847DC
S214000530002800D1B0E600252E4E05A8B0470028BA
S21400054000D1A9E60135ADB2322DF6D1124B1968AD
S2140005508A7D92114B7D9B00097D89020B431343D4
S2140005601B051B0D214A934254D1224E06A8B047C4
S214000570002800D190E60135ADB2352DF6D9064BF0
S2140005801A68069B5B08536044E01423137397E7CE
S2140005903D0100001D020000180300204D0E000063
S2140005A01510000008550000101100009901000009
S2140005B0150100002D1000003A050000EF1B00009A
S2140005C0011100003B110000D1010000ECD9000031
S2140005D008DA00003711000033110800850E00000D
S2140005E0B11000003D110000ACD90000FF0F000064
S2140005F008110800391000002223137360E7302327
S21400060013735DE706A8364B9847002800D143E6EB
S2140006100135ADB27F2DF5D9802189003148324BA6
S2140006209847002800D137E6304B9847002800D17D
S21400063032E62F4B98475EE6D07D937D1B02517DB8
S21400064009040B4303439B025B08802189008C4608
S21400065063445360CDE6274B1B6810221A73254B64
S2140006601B68DB7A09221340012B00D038E630E6FF
S214000670204B1B681A221A73F1E706AB9B78DB093E
S214000680012B04D11B4B1B6830221A73E7E7194B6A
S2140006901B6820221A73E2E700260DE6731E9E41B1
S2140006A0B3070393144D104FB846144E0021144858
S2140006B0B847002800D138E603991248C0470028FA
S2140006C000D132E6B047C30700D428E6013D002D2E
S2140006D0ECD12AE609221340012B00D009E6F8E502
S2140006E039100000101100001510000099010000DC
S2140006F01501000018030020EF1B00002D1000005D
S214000700371100002911000010B5064B984700234A
S214000710002801D0180010BD034B9847034B1B68F8
S214000720DB7AF7E73D0100001D02000018030020F9
S21400073010B5064B98470023002801D0180010BDBE
S214000740034B9847034B1B685B68F7E73D010000C7
S2140007501D020000180300200020704770B582B00C
S2140007600E001500164B9847041E02D0200002B05B
S21400077070BD144B9847002817D0012D19D9124880
S214000780124B1B68DB7A1B0700D47602012300930A
S2140007902B008022920031000D4EB04700280AD070
S2140007A00C4B1D800C4B1D80E0E70C4B9847053426
S2140007B0DCE70B48E4E7094B98470524D6E7C04634
S2140007C03D010000990100001211100018030020DE
S2140007D0850E00003C0300203E0300201D020000A2
S2140007E01111080010B50C00074B9847002804D1DB
S2140007F00022064B1A80053010BD044A13881C1BC5
S21400080014800020F8E7C046B11000003C0300202A
S21400081010B50400144B98470523002801D1180092
S21400082010BD002C10D00022104B1A80104B1B88D5
S214000830012B0FD000210F480F4B984700280DD0F2
S2140008400E4B98470023EAE7084B1A880023002A35
S214000850ECD0E4E7094B98470023E0E70021054881
S214000860054B9847ECE7C0463D1100003C030020CE
S2140008703E0300200C310000151000001D02000091
S21400088070B582B00E001500114B9847041E16D1A5
S214000890012D17D90F48104B1B68DB7A1B0700D4B5
S2140008A07602012300932B008022920031000B4E2B
S2140008B0B047002808D00A4B1D800A4B1D80200038
S2140008C002B070BD0848E6E7084B98470524F6E7EF
S2140008D03D0100001991100018030020850E00004D
S2140008E03C0300203E030020189108001D02000073
S2140008F010B50C00074B9847002804D10022064B81
S2140009001A80053010BD044A13881C1B1480002072
S214000910F8E7C046411100003C03002010B5040073
S2140009200E4B98470523002801D1180010BD002C57
S2140009300AD000220A4B1A800A4B1B88012B09D0CA
S214000940094B98470023F0E7054B1A880023002A36
S214000950F2D0EAE7044B98470023E6E7C11100000F
S2140009603C0300203E0300201D02000010B50400DA
S2140009700F4B9847012819D0002803D0022810D022
S214000980012010BD0B4B1B5D0220002BF9D120006F
S214000990094B984703000320184043425841400043
S2140009A0EFE70022034B1A550220EAE70320E8E7A8
S2140009B059020000440300200907000010B500207B
S2140009C0014B984710BDC0466D09000070B5040085
S2140009D00D00044B98474000013828602000024B69
S2140009E0984770BD310700006D09000010B5010082
S2140009F00020014B984710BDCD09000010B500201F
S214000A00014B984710BDC0465907000010B51400AA
S214000A1001220C4B9847002804D002384342584124
S214000A20013010BD01212000074B9847030001202C
S214000A30002BF6D10020054B9847431E9841C0B2C4
S214000A40EFE7C0465D070000E5070000110800005C
S214000A5010B50A0001000020014B984710BDC046A3
S214000A600D0A000010B5140001220C4B9847002810
S214000A7004D0023843425841013010BD0121200005
S214000A80074B984703000120002BF6D10020054BAA
S214000A909847431E9841C0B2EFE7C0468108000061
S214000AA0F10800001D09000010B50A000100002032
S214000AB0014B984710BDC046650A000000B583B0DC
S214000AC06B46D91DFF230B7001220B480B4B984732
S214000AD00B4B1B88012B0AD0FC226B469A71012215
S214000AE06B46991D0448054B984703B000BDFE228F
S214000AF06B469A71F3E7C046480300201951000080
S214000B008C030020F0B583B06B46DC1DFF232370FA
S214000B10124E012221003000114DA847FF2301226A
S214000B2021003000A847FF23012221003000A847FB
S214000B300C4C6B46DD1D094E094F2B78FF2B09D058
S214000B40FF23012229003000B847013C002CF4D1D5
S214000B50002000E0012003B0F0BDC046480300209E
S214000B60514F0000400D030070B582B0144B1C8836
S214000B70012C23D0134B1988134B1868134B984736
S214000B800123844202D9180002B070BD6B46DC1DFA
S214000B90FF2323700E4E0122210030000D4DA84782
S214000BA0FD232370012221003000A8470A4B9847F6
S214000BB0031EE8D10521094A1170E4E70123E2E7A4
S214000BC08C03002084030020940300208DB30000D3
S214000BD04803002019510000050B00008B0300207D
S214000BE0F0B583B000226B46DA71144C6B46DD1DFF
S214000BF0134E144FFF23012229003000B8472B78EC
S214000C000F22190091430A1E09D0FE2B13D0013C77
S214000C10002CEFD104220C4B1A7000200CE05B076E
S214000C2004D00732084B1A70002005E00B22064B52
S214000C301A70002000E0012003B0F0BD20A10700DC
S214000C4048030020514F00008B03002030B583B0CE
S214000C5001A901235B420B80144D02222800144B8D
S214000C6098476B46DC1DFF23012221002800114D0A
S214000C70A847227811231340012B05D001220E4BE2
S214000C801A70002003B030BD1E231A40042A0BD071
S214000C900A2A04D1023A084B1A700020F2E70A2208
S214000CA0054B1A700020EDE70120EBE74803002013
S214000CB019510000514F00008B03002010B5024868
S214000CC0024B984710BDC04648030020754C0000F4
S214000CD070B590B000232D4A137002AC0125257024
S214000CE00393049323746374A574E5742375242214
S214000CF0A354183A002108A8254B984780235B0286
S214000D00E360244BA362244BE362244B2363244B0F
S214000D106363244BA361244E220024493000244BF5
S214000D20984734682000234B98471F231840854077
S214000D30214B1D603268D369002BFCD12368022248
S214000D40134323601D4A0023537093701C49087890
S214000D5010701C4C20706370A37001A901224A70A9
S214000D608B700A70184B98472278D1090023002907
S214000D7004D15309DB0115498C4663441F211140F9
S214000D8001228A409A6110B070BDC0468B030020D5
S214000D907FB70000020010000200110002001200DF
S214000DA002001300801A060048030020000C0042D0
S214000DB0794D0000E54B000000E100E098030020BC
S214000DC00000002088030020D145000000440041B8
S214000DD0F8B5070000220D4B1A700C000C4B994218
S214000DE000D91C000B4D0C4E01E0E308E41A21006C
S214000DF02800B0471728F8D07900CF190749C91935
S214000E0001220448064B9847F8BDC0468B030020D5
S214000E108096980048030020C14C000088030020FC
S214000E202550000010B50022044B1A704100081827
S214000E30034909180348044B984710BD8B0300204C
S214000E4088030020480300202550000070B582B0BB
S214000E50FF226B46DA710022074B1A700A24074EEF
S214000E60074D01226B46D91D3000A847013CE4B26D
S214000E70002CF6D102B070BD8B0300204803002082
S214000E8019510000F0B5C64600B586B080460092FF
S214000E900193FF220F2302A8844663441A7000229F
S214000EA0534B1A7004AB3F32404602404020024388
S214000EB01A700A0E5A700A0C9A700A0ADA701971B9
S214000EC00027002304A90822092411E07600F6B2C0
S214000ED00138C0B2002808D05B00DBB21D007540A8
S214000EE02D06F3D56340DBB2F0E70137052F02D0BD
S214000EF07E5C1000F0E75B000122134304AC6371D4
S214000F003C4E01220F2102AB9C46614430003A4F12
S214000F10B847062221003000B84702ABD91DFF2390
S214000F200B7001223000354EB047072402ABDE1DA1
S214000F30304F324DFF23012231003800A847337866
S214000F405AB2002A0BDA013CE4B2002CF2D102229B
S214000F50274B1A70002006B004BC9046F0BD284A05
S214000F6013601A071AD45A071DD4012293431FD1BF
S214000F7043469B0420D443469B0525D443465B0545
S214000F802BD4204B6A4612881A801F4B6A469288DA
S214000F901A8000221D4B1A600120DCE70622144B43
S214000FA01A700020D7E70922114B1A700020D2E7EA
S214000FB00F4B1A700020CEE7154B98470028DAD161
S214000FC003220B4B1A70C6E70D4900230B60FF3354
S214000FD001220848094EB047D0E7094EFF230422F5
S214000FE031000448054FB84733681BBA3360C8E77A
S214000FF08B0300204803002019510000514F0000C9
S21400100090030020840300208C030020940300201B
S214001010050B000010B582B0002300930022024C9E
S214001020A04702B010BDC046850E0000014B1868F0
S2140010307047C0469003002010B584B0019000228F
S214001040144B1A70144B1988144B1868144B984795
S214001050002903D1134B9847002810D0FF23042201
S21400106001A91148114CA0470C4B1A68101D1860B6
S214001070094B19880A4B98470120002901D004B073
S21400108010BDFF23022203A90748084CA0470120F1
S214001090F5E7C0468B03002084030020940300205D
S2140010A099B40000E10B000048030020514F0000F7
S2140010B0F0B5DE4657464646C0B582B083460022A7
S2140010C0174B1A704C1EA4B2002926D00026154BCA
S2140010D09A46154FD0478046002817D03A885B4678
S2140010E09919FF231148124DA8473B88F618114A54
S2140010F011688C4663441360FF23022201A90B4843
S214001100A847013CA4B20C4B9C42E3D1404602B037
S2140011101CBC90469A46A346F0BD01239846F5E7C8
S2140011208B030020E10B000084030020480300200E
S214001130514F000094030020FFFF0000012070477D
S214001140F0B5C64600B580460022154B1A7000253D
S214001150144F154E00E021004C1EA4B200291BD0EF
S214001160B8473288434659191048114B9847338878
S214001170ED18104A11688C46634413600E4B98476E
S21400118000280AD0002CE6D00C4B98470028E2D165
S2140011900522034B1A7000E0012004BC9046F0BD07
S2140011A08B030020BD0A00008403002048030020B3
S2140011B019510000940300204D0C0000050B0000A0
S2140011C010B5054B9847002803D10522034B1A702B
S2140011D010BD034B9847FBE7050B00008B03002070
S2140011E0690B000070B50020084B98470500084CB6
S2140011F0FA218900A047074B186007492800A04736
S214001200064B18600522064B1A6070BD595E00003A
S2140012108DB300000400002040420F0008000020AC
S21400122010E000E030B5084B1C68084A0025802115
S2140012304902013807D3002CFBD054609560136830
S2140012400B42FCD0F5E730BD0400002010E000E0C3
S21400125010B5034B1B68002B00D0984710BDC04646
S2140012609C03002070B582B00023154A136001ACC1
S21400127001256570A370257021001B20114EB04714
S21400128021001C20B04721002820B0470E4B8022AA
S21400129052055A61802212055A610C4B1B681D428A
S2140012A003D00A4B1B689B0701D4094B98470122C1
S2140012B0084B1A70BFF35F8F62B6002002B070BD95
S2140012C09C030020D14500000044004110E000E0EF
S2140012D0E51100000E00002070B5441E002804D062
S2140012E0024D0120A847013CFBD270BD251200002C
S2140012F0F8B5074C80277F05676180252D05656159
S2140013000120044EB047A7610A20B047A561F8BD8A
S21400131000440041D912000010B584B00E4B18608E
S21400132001AC20000D4B98472923019300236360EE
S214001330013323720133E37221000920084B9847DA
S214001340002209210748084B984700210920074B2F
S214001350984704B010BDC0469C030020AD42000074
S214001360C142000051120000694100009541000092
S21400137010B5002804D100210920044B984710BD61
S21400138000210920024B9847F9E7C046B541000006
S2140013909541000030B591B0304C0E2323700023E9
S2140013A06370A37001A901224A708B700A700E2028
S2140013B02B4B98472278D1090023002904D15309E2
S2140013C0DB0128498C4663441F211140012210008E
S2140013D08840986102AC2270002303930493C021D6
S2140013E08903059123746374A274E274237523320F
S2140013F0A354183A002108A81B4B98471B4BA3621E
S2140014001B4BE36201235B4223631A4B63631A4B55
S214001410A361220019491A481A4B984700281AD186
S214001420174D2C682000184B98471F2318401E3B6A
S2140014308340164A13602A68D369002BFCD12368C0
S214001440022213432360124B98470120114B984702
S214001450002011B030BD06204042FAE7DC0E002026
S214001460D1450000004400417FB7000002000C0098
S21400147002000D0002000F00001BB7000010004223
S214001480E00E0020794D0000E54B000000E100E092
S214001490F1120000D9120000F0B5DE4657464E465F
S2140014A04546E0B583B0032800D075E00E684D6869
S2140014B00C8900226B46DA71002D27D0002C65D0EF
S2140014C0002E00D177E00023984600239B46012299
S2140014D03B493C483C4B98473A4B9A4601270422E6
S2140014E0994659464B4259418B46307853461B68BD
S2140014F0197E3942FCD0197E3942FCD09862197E9A
S2140015001142FCD0494689798C4611E0002E3AD02B
S214001510002C3ED00023984601339B466B46DD1DCB
S214001520D5E7604601280DD0986AC0B200290DD0D4
S214001530197E1142FCD0588B00211042F1D05A83FC
S2140015401E31EEE7986AC005C00DEFE72870013C33
S214001550A4B25D44434659424B41F618002CC4D110
S214001560184B196802220B7E1342FCD00022144945
S2140015701448154B9847002003B03CBC904699464B
S214001580A246AB46F0BD0F204042F5E70F20404292
S214001590F2E70F204042EFE7832252000B490C4847
S2140015A00C4B98470C480D4B98470D200C4B984712
S2140015B001204042E0E7012398466B46DE1D84E7A3
S2140015C0DC0E0020E00E00202550000048DA000067
S2140015D058DA0000E1B800006CDA0000FDB900003F
S2140015E015B9000030B583B001AB00221A709A70AE
S2140015F05A70134D2C682000124B98471F23184032
S2140016001E3B8340802210498B502A68D369002BEA
S214001610FCD18F33237523762368022293432360FD
S21400162001A90C20094CA04701A90F20A04701A939
S2140016300D20A04701A90E20A047002003B030BD12
S214001640E00E0020E54B000000E100E0D145000080
S214001650002A06D082180B780370013001319042C0
S214001660F9D17047002A04D08218017001309042E8
S214001670FBD1704703000278002A07D00020013013
S21400168080B201331A78002AF9D170470020FCE7AF
S214001690024AD3780133DBB2D37070471C0F0020A8
S2140016A07047000000B583B000220A4B9A700120F4
S2140016B0094B984701A90948094B9847002801D0CB
S2140016C003B000BD0221019B194301910348054B5D
S2140016D09847F5E71C0F00207113000070100000FB
S2140016E0B52A0000C12A000010B50C4B9B780020DC
S2140016F0002B0DD1094B5B78002B03D1074B1B78D1
S214001700002B06D1054A53780133DBB25370002014
S21400171010BD034B98470028F4D0F9E71C0F0020B3
S2140017209D270000054B5B78002B04D0034A5378B6
S214001730013BDBB2537000207047C0461C0F0020F0
S21400174010B50B4B5B78002B04D0094A5378013B4D
S214001750DBB25370064B5B780020002B03D1044BA2
S2140017601B78002B00D110BD024B9847FBE7C04604
S2140017701C0F002035270000F0B5DE46574680B522
S21400178089B083468A460192009310AB80CB1E88B0
S21400179012AB1D887F220A4007AB5A7018700822C9
S2140017A05A80002F3DD05A889219AA1892B25A80B1
S2140017B0694B9847041E00D0C1E00023059302AA97
S2140017C0D3800493049B5A461A430492049A5346C1
S2140017D01B021343049307AB5B88049A1B04134352
S2140017E0049304995D485E4B9847041E57D1002326
S2140017F00493049B02221343049304995948584BBC
S2140018009847041E4BD10022059202ABDA800633BD
S2140018101B889BB2544A934249D8544C544B9A4620
S21400182017E007AB5A8800998C46624492B25A80F9
S214001830BEE70120D047049B9B0728D502ABDA8879
S214001840013292B2DA8006331B889BB2464A934234
S2140018502DD804A94348A047002828D102AB063358
S2140018601B889BB2F422FF329342E4D902AB0633C4
S2140018701B889BB201329342DBD83E483E4B9847CA
S2140018803E483F4B98470D203E4B9847D1E705A969
S2140018903D48364B9847041E09D0002305933B4B22
S2140018A09847200009B00CBC92469B46F0BD059BAD
S2140018B0002B3FD0059B069307A94B889BB24B8015
S2140018C006980822324B9847041EE8D1069B083338
S2140018D00693019B002B0BD00698009A19002C4B00
S2140018E09847041EDBD1069B009A944663440693F1
S2140018F0002F0ED0069B009AAD1AED180695069896
S21400190032003900224B9847041EC8D1069BF318B4
S2140019100693059B9B000493049B022213430493A7
S21400192004991C480E4B9847041EB8D11A4B98478A
S2140019300400B6E7184B984703246442B1E79822A0
S214001940FF32164916480C4B984716480C4B9847DA
S2140019500D200C4B9847A4E7E91600008C100000F9
S214001960C12A000078100000E7030000B52A000036
S214001970D912000088DD0000E1B8000094DD000008
S214001980FDB9000015B90000000415002517000079
S214001990352B00006C10000041170000A0DA000094
S2140019A058DA0000A4DD0000F0B5CE46474680B504
S2140019B087B00022D14B1A719946984681E0CF4BEA
S2140019C0059A9A60DE6004AF042239000598CC4B75
S2140019D0984704007B889BB27B80002834D104ABF8
S2140019E05B889BB29E4204D004AB5B88F31A042B40
S2140019F03ADC04AB1B78012B4FD004AB1B78022BD0
S214001A007DD004AB1B78042B00D195E004AB1B788B
S214001A10062B00D1ADE004AB1B78072B00D1C5E048
S214001A2004AB1B78052B00D1DCE084229200B5497C
S214001A30B548B64B9847B648B64B98470D20B64BB8
S214001A4098470624644219E1E9225200AD49AE489F
S214001A50AE4B9847B148AF4B98470D20AE4B9847D2
S214001A600120AF4B984709E1DC22FF32A549A64882
S214001A70A64CA04704A94A8892B20B78DBB24978F4
S214001A8000913100A748A0470D20A34B984701209E
S214001A90A34B984706246442F0E0984B1B69002B42
S214001AA020D0964B1B6904AA5078C0B25188059A7C
S214001AB00832083989B29847904B9B78002B00D0A3
S214001AC0A1E04B46DB78002B00D15BE143461B7957
S214001AD0002B00D056E1894AD378013BDBB2D370A5
S214001AE0914DD6E0E822FF3286498748874B9847D3
S214001AF08E48884B98470D20874B9847DCE77F4BEE
S214001B005B69002B0BD07D4B5B6904AA5078C0B292
S214001B105188059A0832083989B29847CCE7F022EE
S214001B20FF3278497848794B98478148794B9847EF
S214001B300D20794B9847BFE7704B9B69002B0BD065
S214001B406E4B9B6904AA5078C0B25188059A083239
S214001B50083989B29847AFE7F822FF3269496A48E0
S214001B606A4B984773486B4B98470D206A4B9847CB
S214001B70A2E7624B5B6A002B0BD0604B5B6A04AA41
S214001B805078C0B25188059A0832083989B2984709
S214001B9092E7802292005B495B485C4B9847664818
S214001BA05C4B98470D205C4B984785E7534BDB69A9
S214001BB0002B0BD0514BDB6904AA5078C0B2518879
S214001BC0059A0832083989B2984775E75B4A4D4945
S214001BD04D484E4B98475A484E4B98470D204E4B13
S214001BE0984769E7454B9B6A002B00D164E7434B57
S214001BF09B6A04AA5078C0B25188059A0832083900
S214001C0089B2984758E74F4A3E493F483F4CA0475D
S214001C1004AB1978C9B25A78D2B24B48A0470D2007
S214001C203D4B9847494B9847041E27D149E7484AF9
S214001C3034493548354B98474648364B98470D202B
S214001C40354B98470224644218E0434A2D492E48F3
S214001C502E4CA04703994148A0470D202E4B98478D
S214001C600C2464420AE03E4A26492748274B9847F8
S214001C703C48284B98470D20274B98473A4A3B4903
S214001C802148224FB84721003948B8470D20224B3B
S214001C90984703A93748A847041EE4D1039BDB07EF
S214001CA0D3D500201E4B98470123039999430391EF
S214001CB03048314B9847041EE0D101220F4B9A70F2
S214001CC0039B9E04360DB2D00023059305A92B482E
S214001CD0154B9847041E00D171E6E42252000949CC
S214001CE009480A4B984726480A4B98470D200A4B46
S214001CF0984701200A4B9847C0E7C0461C0F0020B3
S214001D00CD2A0000ACDA000058DA0000E1B8000086
S214001D1008DC0000FDB9000015B9000004DB000077
S214001D20711300001CDB0000B52A00005CDB00001D
S214001D307CDB0000A0DB0000C0DB00000702000028
S214001D40E4DB00001602000020DC0000A516000000
S214001D501D0200004CDC00002502000060DC0000D4
S214001D602E0200007CDC000057020000B4DA0000FF
S214001D70A0DC000070100000C12A000084100000E3
S214001D80E0DA0000002007B00CBC90469946F0BD93
S214001D9070B514001D00002803D0002901D0002AC9
S214001DA013D1002D02D0284B984770BD9E2292007A
S214001DB026492748274B98472748284B98470D2001
S214001DC0274B98470C204042EFE7264BDB689A42A9
S214001DD01AD8244B9B68984227D38618214A9368C2
S214001DE0D2689B189E4220D822001F4B9847002896
S214001DF0DBD11C4A9368D2689B189E4201D0002D06
S214001E00D3D0114B9847D0E7A02292000F49104834
S214001E10104DA847134BDA6821001448A8470D2038
S214001E200F4B98470C204042BFE7114A0749084825
S214001E30084B98470F48094B98470D20084B984782
S214001E400C204042B1E7C046A5160000C4DA0000E8
S214001E5058DA0000E1B80000D0DC0000FDB9000050
S214001E6015B900001C0F0020CD2A0000F0DC000091
S214001E708602000038DD000070B5040007281FD871
S214001E808300164AD3589F46154B5961002070BDF3
S214001E90134B19610020FAE7114B99610020F6E711
S214001EA00F4B19620020F2E70D4B59620020EEE757
S214001EB00B4BD9610020EAE7094B99620020E6E760
S214001EC0084A094909480A4DA84721000948A84771
S214001ED00D20094B98470C204042D8E780DA0000D6
S214001EE01C0F0020BE020000D0DA000058DA000006
S214001EF0E1B800007CDD000015B9000010B52C220A
S214001F0000210648064B98470648074B984707495E
S214001F100320074B9847002010BDC0461C0F00202A
S214001F20651600009116000019130000A1160000A7
S214001F30791E000030B59FB0040015002C282FD065
S214001F401B283DD006284BD00E2827D0322857D045
S214001F502F2865D0342800D177E0112800D196E0EC
S214001F60132800D1ACE0042800D1BBE0652800D1DE
S214001F70CAE0092800D1D9E02A2800D1E8E02028C4
S214001F8000D1F7E02422FF3289498A488A4DA847C3
S214001F9021008A48A8470D20894B98471FB030BDBE
S214001FA00023042203A92800864CA0470028F5D168
S214001FB0854B1B68002BF1D003A92C309847EDE722
S214001FC00023082203A928007E4CA0470028E5D15C
S214001FD07D4B1B68002BE1D003A91B309847DDE73B
S214001FE00123302203A92800764CA0470028D5D12B
S214001FF0754B1B68002BD1D003A906309847CDE758
S2140020000023182203A928006E4CA0470028C5D13B
S2140020106D4B1B68002BC1D003A932309847BDE733
S2140020206422002103A8694B98470023642203A971
S2140020302800644CA0470028B0D1634B1B68002BD7
S214002040ACD003A92F309847A8E70023042203A9A1
S21400205028005C4CA0470028A0D15D48564DA847F4
S214002060039C230AFF200340220C0240210E20403E
S21400207000905848A8470D20514B9847524B1B6874
S214002080002B00D18AE700213420984786E70022FB
S214002090514B1A700023043203A92800494CA0476C
S2140020A0002800D07AE703AB1A784C4B1A70464BE0
S2140020B01B68002B00D171E703A9113098476DE724
S2140020C000232C2203A928003E4CA047002800D05D
S2140020D064E73D4B1B68002B00D15FE703A9133074
S2140020E098475BE7002304221CA92800354CA0472C
S2140020F0002800D052E7344B1B68002B00D14DE778
S2140021001CA90430984749E7002304221CA928008C
S2140021102C4CA047002800D040E72B4B1B68002B18
S21400212000D13BE71CA96530984737E701236422B6
S21400213003A92800234CA047002800D02EE7224BF6
S2140021401B68002B00D129E703A90930984725E72B
S2140021500123042203A928001A4CA047002800D017
S2140021601CE7194B1B68002B00D117E703A92A3080
S214002170984713E70023082203A92800114CA0471C
S214002180002800D00AE703AB9A882800083001230D
S21400219003990C4CA047002800D0FFE60A4B1B68AA
S2140021A0002B00D1FAE603A920309847F6E6C04691
S2140021B0C0DD000058DA0000E1B8000010DE0000C4
S2140021C015B90000911D0000A00300206516000050
S2140021D088DD0000F0DD0000A5030020A403002039
S2140021E0F0B58FB001220F236B441A70002861D01F
S2140021F00268324B1A600022314B1A700F20684476
S214002200304B9847041E02D020000FB0F0BD0020CF
S2140022102D4B9847041E49D12C4901202C4B98473A
S21400222004AE30002B4B984704002B482B4DA84794
S214002230B37972793179308C00902948A8470D20FF
S214002240284FB8472448A84726226A441A216944DA
S2140022502548A8470D20B8471F48A847737A327A02
S214002260F1792248A8470D20B8471B48A847042301
S214002270052213211E48A8470D20B8471648A84730
S2140022801C4A1D491D48A8470D20B84723000D339A
S214002290BAD1E822FF321A491A48104B98471A4812
S2140022A01A4B98470D200F4B9847ADE70020184B68
S2140022B09847A9E70C246442A6E7C046A00300207E
S2140022C0A5030020812C0000FD1E0000351F000025
S2140022D0791E00009D2B000088DD0000E1B800009C
S2140022E0CCDE000015B90000F4DE000010DF0000B0
S2140022F034DF00004CDF000058DF000064DF000021
S214002300CCDD000058DA00007CDF0000FDB90000DC
S214002310552D000010B5014B984710BDA9190000B7
S214002320F0B5CE46474680B5A3B005900C00150024
S2140023301F002AAB1B8899462BAB1B789846012AB0
S21400234003D0002F40D0022A4CD0631E1F2B00D98A
S21400235078E04B46013B9BB20D2B03D94B46FF2B37
S21400236000D07EE007AE220005995A2002AB9C46BC
S2140023706044794B9847341946340023237044331D
S2140023804A46F25243465A1E93416722B3544123AB
S214002390F554032D00D172E0022D00D1ACE0042DDF
S2140023A000D1C4E0012D00D0C7E0002302930193C2
S2140023B000936C3307AA28210120684CA04723B05D
S2140023C00CBC90469946F0BD654A66496648674B20
S2140023D098476748674B98470D20674B98470C20EF
S2140023E04042ECE73800654B98474028ADD13B7833
S2140023F01A00303A362A17D80A3A062A14D9473B22
S214002400192B11D97A1C380040301378190030394E
S214002410362909D80A39062906D9473B192B03D984
S21400242001328242F1D190E7554A4E494E484F4B11
S214002430984754484F4B98470D204F4B98470C20D1
S2140024404042BCE78C22920046494748474B984793
S2140024504D48484B98470D20474B98470C20404224
S214002460ADE74A4A3F494048404B98474848414BA9
S21400247098470D20404B98470C2040429FE73B78FA
S214002480013BDBB207AA1370032B17D87A78511ECC
S21400249007AB59701023110099430B291ED03D4AF3
S2140024A030493148314CA04707AB59783A48A047E5
S2140024B00D20314B98470C20404280E79422920032
S2140024C028492948294CA04707AB19783348A04724
S2140024D00D20294B98470C20404270E7B91C162067
S2140024E002AB9C4660441C4B98477B7807AA9446F0
S2140024F0634400229A7058E73800204B9847431EE2
S2140025009BB23F2B05D8421C390007A8124B9847B0
S2140025104BE7234A13491448144B98472148154B58
S21400252098470D20144B98470C20404247E73E2220
S214002530390007A8084B984737E71B4A09490A4855
S2140025400A4B984719480B4B98470D200A4B98475B
S2140025500C20404233E7C0465116000079170000B1
S2140025601A020000DCDD000058DA0000E1B80000C6
S21400257024DE0000FDB9000015B900007516000045
S2140025802602000038DE000044DE000039020000AB
S21400259058DE00005702000080DE000064DE000007
S2140025A0660200009CDE000076020000B8DE000036
S2140025B030B583B006AC2488002501950094024C03
S2140025C0A04703B030BDC04621230000002070475E
S2140025D0F0B583B080256D000543A5246401084F3F
S2140025E0084E29002000B8470023019301A92000C7
S2140025F0B0470028F5D1019B9D42F2D103B0F0BD53
S214002600C12A0000B52A000000B583B0002301935C
S21400261001A91148114B9847002801D003B000BD0E
S21400262080214900019B194301910B480C4B9847A8
S2140026300028F3D101A9D0204001084B9847002874
S214002640ECD180214902019B19430191D020400121
S214002650034B9847E2E7C04608140000B52A00007E
S214002660C12A000010B582B0284B1C68002C04D08C
S214002670264B1C68200002B010BD190080204001C7
S214002680234B9847002803D00022204B1A60F1E71E
S21400269001A920481E4B9847002803D000221B4B58
S2140026A01A60E7E7194B1B681B4A93420ED01B4A79
S2140026B0934212D01A4A93421CD01449194A0B6806
S2140026C01A40A023DB0213430B60D1E7019B012BCA
S2140026D0F3D0154A0D4B1A60EFE7019B032BECD0A5
S2140026E0042B03D0114A094B1A60E6E7104A074B41
S2140026F01A60E2E70549EC208003054B984700285E
S214002700DBD00022014B1A60B4E7C046A8030020C5
S214002710B52A0000F4130000A0021000B00210005A
S214002720F0001000FFFFF0FFA1021000B202100040
S214002730B102100030B583B0164C012501A9102057
S214002740A04700281CD1019B2B42F7D101A90130DC
S214002750104B9847002813D101998B0707D5022301
S2140027609943019101300C4B9847002808D101A9E4
S2140027700B20084B9847002802D10199CB0701D4BB
S21400278003B030BD0123994301910B30024B9847AB
S214002790F6E7C046B52A0000C12A0000F0B583B0AF
S2140027A000230193009301A90B20284B9847041E91
S2140027B030D10199CB0706D4012319430B20244BB3
S2140027C09847041E26D101A90120204B9847041ED5
S2140027D020D101998B0720D505251C4F1D4E694633
S2140027E00F20B847041E20D1009B5B072BD4022085
S2140027F0B047013D002DF2D1AD22520016491748D0
S214002800174B98471748184B98470D20174B984773
S21400281004246442200003B0F0BD022319430120C3
S2140028200B4B9847041ED7D0F4E7A82252000A495B
S2140028300A480B4DA847009A21000D48A8470D20CE
S2140028400A4B9847E6E70B4B9847E3E7B52A0000A4
S214002850C12A0000D912000098DF000058DA0000F4
S214002860E1B80000E0DF0000FDB9000015B9000087
S214002870C8DF00009D2A0000F8B507002D4D2E4C3D
S2140028802E4E2800A047002802DB0120B047F8E7BC
S2140028902B48294B9847C30709D4284E294C264D68
S2140028A00120B0472000A847274B9842F8D1022FB6
S2140028B021D0032F29D0042F30D024492448254B7B
S2140028C098470024244B98470005000D234B984258
S2140028D02AD82000224B98472248234CA0471B4961
S2140028E02248A0470D20224B984722491548194BED
S2140028F098470020F8BD20492048164CA047802164
S21400290049031348A0470024DCE71B491B48114C29
S214002910A04700210E48A0470024D3E70B490C48E7
S2140029200C4B98478024CDE7022020430C4B984759
S214002930D2E7C04614100000A92A0000D9120000F1
S214002940BC0702000C000C009ED0AD1054133013D0
S2140029508C100000C12A0000652600009F030000BE
S214002960D125000088DD0000E1B80000FCDF000093
S21400297015B90000612F52EF7DD51C3CAC07020054
S21400298070B582B0154B0193154B009302380128A1
S21400299011D9012464420020124E134D009B984228
S2140029A00ED00220B0470198A847013C002CF5D174
S2140029B00520404209E00D4B01930D4B0093E8E7DC
S2140029C0009A074B00209A4201D002B070BD002149
S2140029D00248084B98470020F7E7C0468C100000D6
S2140029E036265302D9120000A92A0000AC070200BE
S2140029F0C3C15DD7C12A000010B582B00023019381
S214002A0001A9A0204001144B9847041E15D1134974
S214002A10019B19400191A0204001114B9847041ECC
S214002A2016D0104A10491148114B98471148124BBE
S214002A3098470D20114B98470AE0114A0A490B485F
S214002A400B4B98470B480C4B98470D200B4B984761
S214002A50200002B010BDC046B52A0000FFFBFFFFF5
S214002A60C12A000007020000A4DF000058DA0000B8
S214002A70E1B80000B0DF0000FDB9000015B90000A5
S214002A800102000010B5014B984710BD95130000D9
S214002A9010B5014B984710BDE515000010B5014B69
S214002AA0984710BD4534000010B5014B984710BD3F
S214002AB07D34000010B5014B984710BD91340000DE
S214002AC010B5014B984710BDA9340000F0B5D646A6
S214002AD04F464646C0B582B0804689461500134B21
S214002AE01F88083FBBB201931E0004009A421AD901
S214002AF00F4B9A46371A4346E11A4944019A20007A
S214002B00D047002809D1AD1B3919A419B542F2D80F
S214002B10AAB249442000064B984702B01CBC904617
S214002B209946A246F0BD0021F2E7C0460C00002000
S214002B30E9350000F0B5D6464F464646C0B582B0E9
S214002B40804689461500134B1F88083FBBB2019389
S214002B501E0004009A421AD90F4B9A46371A43466B
S214002B60E11A4944019A2000D047002809D1AD1B3C
S214002B703919A419B542F2D8AAB249442000064B26
S214002B80984702B01CBC90469946A246F0BD00216C
S214002B90F2E7C0460C0000204537000070B584B050
S214002BA00400002303930822002101A82D4B984718
S214002BB0002C44D02822002120002B4B984703A944
S214002BC02A482B4B984700283AD1039B002B39D034
S214002BD0C02080021843082201A9264B98470028E7
S214002BE02ED1029B1804000C03902ED0C0239B020B
S214002BF01843282221001F4B9847002820D121790E
S214002C000902A2790F231A400A4361790901FF25B8
S214002C1029400A43E1790902667A33400B43217A58
S214002C2009010D402B43002A12D0002B13D0124965
S214002C308B4213D8114B9A4202D80D3800E0002080
S214002C4004B070BD0C204042FAE70C204042F7E783
S214002C500C204042F4E70C204042F1E70D204042B1
S214002C60EEE7C0467FB700006516000008000C00BF
S214002C70B52A0000CD2A00005413000053130000AC
S214002C8070B5002837D005786B1E032B00D90125B8
S214002C900020204B9847041E2FD11F481F4CA047EA
S214002CA01F4B984701001F48A0470D201E4B984712
S214002CB01E4B984728001E4B9847041E17D1280025
S214002CC01C4B9847041E12D1023D012D11D91A4BF8
S214002CD09847041E0DD0A7225200184918480F4BDB
S214002CE098471848184B98470D200F4B9847174B96
S214002CF09847200070BD0125CAE7902252000F4970
S214002D000F48064B984712480F4B98470D20064B26
S214002D109847EEE7852A000088DD0000E1B800004D
S214002D2065260000CCE0000015B90000C1340000A4
S214002D3079280000812900000926000014E0000020
S214002D4058DA000090E00000FDB90000912A00006B
S214002D50B0E0000010B51C4B9847041E0BD10020B5
S214002D601A4B9847041E14D1194B9847041E1DD1C0
S214002D70184B98470BE06622FF3217491748184B46
S214002D8098471848184B98470D20184B984720002E
S214002D9010BDB622520010491048114B98471448EF
S214002DA0114B98470D20114B9847F0E7B922520077
S214002DB009490A480A4B98470E480B4B98470D207E
S214002DC00A4B9847E3E7C046F92900006D3E00002D
S214002DD0912A00006D34000020E0000058DA000060
S214002DE0E1B8000030E00000FDB9000015B90000B1
S214002DF050E0000074E0000000B585B001AB019023
S214002E0000220292198119000320024B984705B050
S214002E1000BDC0469914000070B584B008AC257893
S214002E2001AC20703F30C4B20E2C00D984E0A00064
S214002E304F4C2058874601AB0A0C5A700A0A9A7003
S214002E40D97005214B4B1B78002B77D00139C9B2BE
S214002E5083E00B0ADBB2002D07D101AA537001AB49
S214002E6099700022DA700521ECE780225242134363
S214002E7001AA5370F3E701AB00225A709A70DA7019
S214002E800521DFE701AB00225A709A70DA7005213F
S214002E90D8E701ABFF225A709A70DA700521D1E7A5
S214002EA001AA080C5070080A9070D170190A1171A6
S214002EB053710721C6E701AA080C5070080A9070E3
S214002EC0D170190C1171190A517193710821B9E763
S214002ED00B0ADBB2002D0CD101A8437001AB997030
S214002EE0110ED970110C1971110A59719A710821B5
S214002EF0A8E780204042034301A84370EEE701ABF9
S214002F00080C5870080A9870D970110E1971110CB7
S214002F105971110A9971DA71092193E790225200CA
S214002F2015491648164B98471648174B98470D20D4
S214002F30164B9847002317E0002315E04E1E01AA03
S214002F4095197F23124C5B0010784340E35C0132F6
S214002F50AA42F8D15B0001AA935589B201A80D4B8D
S214002F60984701230028D9D1180004B070BDC04688
S214002F70DCE00000AC0300201CE1000058DA000092
S214002F80E1B80000ACE50000FDB9000015B900008E
S214002F90A8E10000F92D000000B585B001AB0022C5
S214002FA001920290198119000320024B984705B040
S214002FB000BDC04699140000F0B5C64600B582B004
S214002FC00700CF282BD003003B33DBB2012B26D9DA
S214002FD00B246B46DE1D264B984601213000C04769
S214002FE0051E25D13378BB4230D0013CE4B2002C1C
S214002FF0F3D10B346B46DE1D1D4F01213000B84760
S214003000002825D13378002B2FD0013CE4B2002CC9
S214003010F3D10125280002B004BC9046F0BD012182
S2140030206B46D81D124B984700250028D0D0F1E7F4
S2140030305C22FF320F491048104B98471048114B3E
S21400304098470D20104B98470025E3E70B24D1E75F
S2140030506A22FF3207490848084B98470848094B38
S21400306098470D20084B9847D4E70125D2E7C0467D
S214003070992F000034E1000058DA0000E1B80000A3
S214003080D8E50000FDB9000015B90000F0B5DE4631
S21400309057464E464546E0B587B0019089460292AF
S2140030A000239A4680239B019B466A46D3813C4B6D
S2140030B098462FE0BE2292003A493B483B4B984741
S2140030C03B483C4B98470D203B4B98470025280033
S2140030D007B03CBC90469946A246AB46F0BD002CD5
S2140030E02EDD019B5344180039002D4B9847041ED3
S2140030F034D1029B002B03D1304B1B78002B39D0E8
S2140031005346FB181BB29A464B46DF1BBBB299468A
S214003110002B43D04F46D94501D96B46DF89BFB255
S2140031200A2404ABDE1C01213000C047051EC1D1B5
S21400313033781B090F2BD2D0013C24B2631CF2D18A
S214003140C122920017491848184CA04704ABD978FA
S2140031501B48A0470D20184B9847B8E7194A114955
S2140031601148124B98471848124B98470D20124B9F
S2140031709847ACE7022105A8094B98470028BFD01E
S214003180C622920007490848084B98470F48094B43
S21400319098470D20084B9847250098E7012596E7A5
S2140031A0992F000040E1000058DA0000E1B8000066
S2140031B00CE60000FDB9000015B90000AC030020C5
S2140031C040E600000D03000070E60000A0E60000E8
S2140031D0F0B5D6464F464646C0B586B00390049135
S2140031E030280FD8304B1F78FBB2059300233022CF
S2140031F003998A425B41DBB29A460A252B4B9846D6
S214003200D14633E02A4B1F78EEE70598294B9847BE
S2140032100400012841D0284A28492948294EB047A9
S21400322003992948B0470D20284B98470120284E7F
S214003230B0470023009300220021CF201B4FB84741
S214003240CF201C4B9847EA2292001C491C481D4F71
S214003250B847049B039A29001E48B8470D201B4B0D
S21400326098470120B047013D002D16D04B460093ED
S2140032700423049A039F39000598C04704000128D8
S214003280C3D0154A0D490E480E4EB04739001348B4
S214003290B0470D200D4B9847C8E7200006B01CBC71
S2140032A090469946A246F0BD18E10000192E00008F
S2140032B019E10000B92F00009503000060E100004E
S2140032C058DA0000E1B8000098E7000015B90000E1
S2140032D0D9120000D0E700008F0300006CE7000062
S2140032E0F0B5DE4657464E464546E0B587B00290F6
S2140032F08B46FF280FD8414B1F78FBB20393002361
S214003300FF2202998A425B41DBB29A460A253C4B71
S2140033109846D14631E03B4B1F78EEE703983A4B90
S21400332098470400012840D0384A394939483A4E6F
S214003330B04702993948B0470D20394B98470120CD
S214003340384EB0470023009300220021CF202C4F98
S214003350B847CF202C4B9847334A2D492D482E4F3F
S214003360B847029A29003148B8470D202C4B984799
S2140033700120B047013D002D38D04B460093042372
S2140033800022029F39000398C04704000128C5D0D8
S2140033908222D2001E491F481F4EB04739002448DB
S2140033A0B0470D201E4B9847C9E74A46042105A89A
S2140033B0204B9847040001280BD01F4A1449154893
S2140033C0154B98471D481E4B98470D20144B9847A1
S2140033D0B5E705AA53781B02917809040B431178C8
S2140033E00B43D278120613435A461360200007B0E8
S2140033F03CBC90469946A246AB46F0BD1AE100009A
S214003400192E00001BE10000B92F00001604000072
S21400341080E1000058DA0000E1B8000000E7000094
S21400342015B90000D91200003504000054E700006A
S214003430D4E600008D3000001D04000034E70000D4
S214003440FDB9000010B582B00023009300220021D1
S214003450CF20044CA047CF20034B9847002002B053
S21400346010BDC046192E0000B92F00000022024BE6
S2140034701A7000207047C046AC03002000B583B029
S21400348001A9024B9847019803B000BDE132000045
S21400349010B5044B98470023012801D1180010BD31
S2140034A0063BFBE7E132000010B5044B98470023CB
S2140034B0012801D1180010BD063BFBE7D131000002
S2140034C010B582B000230093354A1370694635481C
S2140034D0354B9847002828D0314B1B78002B0DD150
S2140034E07C33009999432C3B194300912D482F4B70
S2140034F09847041E3AD00122294B1A7001A9802051
S2140035004001294B984700283CD0264C2000284BE9
S2140035109847702301009943502001432000254B13
S21400352098470024200002B010BD01221C4B1A70E0
S2140035309822D20020492148214B98472148224B07
S21400354098470D20214B984769461648164B9847D2
S214003550041EC1D11E4A18491848194B98471D48E1
S214003560194B98470D20194B9847DBE71A4A124922
S2140035701248134B98471948134B98470D20134B86
S2140035809847CFE7164A0C490C480D4B9847154804
S2140035900D4B98470D200D4B984706246442C1E713
S2140035A0AC03002024E80000E1320000D131000026
S2140035B07D340000A93400009CE1000058DA0000C9
S2140035C0E1B80000A8E20000FDB9000015B900004F
S2140035D0C3040000F8E20000CD04000024E300006D
S2140035E0D704000058E30000F0B5DE4657464E46C6
S2140035F04546E0B587B00290039116000A250023E1
S2140036009B4600243E4B9846A94637E001239B463E
S214003610013635E0C8203B4B9847012845D03A4A4A
S2140036203A493B483B4FB84702993B48B8470D20BC
S2140036303A4B984701203A4FB8470094230022009F
S2140036402100CF202E4DA847CF202E4B9847354A35
S2140036502E492F482F4B9A4698473300029A4946E0
S2140036603148D0470D202D4B98470120B8470123FD
S2140036705B429C46E1444B46002B38D0012EC5D019
S214003680009433002200029D2900C820C04701286C
S214003690C0D0264A1D491E481E4FB8472900244858
S2140036A0B8470D201D4B9847C4E75B46002B16D045
S2140036B005AF2200310038001E4B98473B78039A2E
S2140036C01370012811D01C4A10491148114B984715
S2140036D01A481B4B98470D20104B9847AAE7220024
S2140036E031000398134B9847EBE7002001E00620D3
S2140036F0404207B03CBC90469946A246AB46F0BD59
S214003700192E0000B92F00005C04000090E10000B4
S21400371058DA0000E1B80000ACE3000015B900007C
S214003720D91200007D0400000CE4000056040000DE
S2140037307CE300008D3000006C040000E4E3000031
S214003740FDB90000F0B5DE46474680B589B0049066
S2140037508B4603920A268027BF016B46DF82350020
S2140037602DE0013303932DE0824A83498348844C3D
S214003770A04731008348A0470D20834B984701207F
S214003780824CA0470023009300220021CF20804EC9
S214003790B047CF207F4B98477F4A77497748784E87
S2140037A0B047039B049A29007C48B0470D20764B0F
S2140037B098470120A047013D002D00D1D2E0039B91
S2140037C0012BCED000230093039B0022049E3100E1
S2140037D0C7206F4CA0470128C6D1C7206D4B98471D
S2140037E001280BD06E4A64496448654CA04704998A
S2140037F06C48A0470D20644B9847C0E7002207ABF3
S2140038001A80039C0026A8463500260021E00023E7
S214003810B7425B4102330B2004AA94466044102250
S21400382052421343037001215F4B984700281DD175
S2140038305B46581921005C4B984700282ED15B4BFD
S2140038401B78002B37D065192DB2361BB6B2002E6A
S21400385052D0341CBE4201D96B46DC8AA4B2002D7D
S214003860D5D10323BE42D6D9023BD4E74546504ABB
S21400387050494248424B98474F48504B98470D2076
S214003880414B98474E4A3C493C483D4B98474D482B
S2140038904A4B98470D203C4B984770E745464A4AA6
S2140038A044493648364B98474848444B98470D207D
S2140038B0354B9847E6E7022107A83B4B9847002878
S2140038C0C1D04546D72292003A492C482C4B9847FF
S2140038D03F483A4B98470D202B4B9847D2E79A2201
S2140038E052003C492548264B98473B48334B98475F
S2140038F00D20254B984727E045462C4B1C78631E29
S2140039009C410234A1B207A8344B98470028E6D160
S21400391008AB1B19053B1B78002B06D108AB9C4651
S2140039206444063C2378C32B1AD03C22FF32294934
S2140039301248134CA04707A98B784A78097828487C
S214003940A0470D20104B9847264A0B490B480C4BB6
S21400395098471C48194B98470D200B4B98470EE785
S214003960002001E00620404209B00CBC90469B4671
S214003970F0BDC046C303000070E1000058DA000046
S214003980E1B8000028E4000015B90000D9120000D4
S214003990192E0000B92F0000EB0300000CE4000015
S2140039A0C903000058E40000F92D0000AC03002015
S2140039B04903000050E1000090E40000FDB900005B
S2140039C0D903000084E5000052030000C8E40000AC
S2140039D0FCE4000024E1000034E50000992F00001C
S2140039E054E50000E1030000F0B5D646474680B532
S2140039F089B00592022800D09CE001290AD002294D
S214003A0000D170E001256D42280009B00CBC90463C
S214003A109A46F0BD494C2778FFB22678F6B2207851
S214003A2001300631464B9847C9B221703201454BEA
S214003A309B189B7A0625002B18D0404E404B9A4682
S214003A40404B98463778FFB23478E4B2307801308D
S214003A500721D047C9B23170230143449B7A002B1B
S214003A6007D0013DEDB2002DECD1CBE7354BD41895
S214003A7002E02401334BE4187DB2002DC4DB102293
S214003A8000212000304B98470123A3722F4A138849
S214003A9001339BB2138013889BB2002B03D113888B
S214003AA001339BB21380294E33889BB2E3802848AB
S214003AB0284FB847328892B229002748B8470D20C9
S214003AC0264B9847059BDB079ED507AA1570212332
S214003AD0E3720023029301930093043350210220E3
S214003AE01F4CA04790E71F4B1D78EDB21C782401B1
S214003AF01D4AA4181978013103220A401A70A37AC5
S214003B00002B14D003221749174F03200D78EDB26F
S214003B100C782401E4190B78013303400B70A37A68
S214003B20002B04D0013AD2B2002AEFD16AE707355B
S214003B306DB2A2E701256D4266E7C046B0030020DD
S214003B406DB600004C0F002065160000AE03002086
S214003B5088DD0000E1B8000018E8000015B9000094
S214003B6079170000B1030020BC0F002070B588B0A4
S214003B70041E30DB002931D000011D4B1B189B7A38
S214003B80012B2ED1002A2FD0194B1B18DB7A442686
S214003B90DB0705D5164B1B18DA7A05AB5A720736C3
S214003BA005AD2C7208222800124B98472401104BB2
S214003BB01C19E3886B8100230293019300930C3356
S214003BC02A00310002200C4CA047002801D0092012
S214003BD0404208B070BD06204042FAE70620404248
S214003BE0F7E706204042F4E706204042F1E7C046E9
S214003BF04C0F0020511600007917000030B589B030
S214003C00002836DB002937D0AF23DB009A4236D8AF
S214003C1004011E4B1B199B7A012B33D104AB187081
S214003C205A802500194C6419E4889C815025062882
S214003C3000DD0C3D0401154B1B19DC7A4523E40717
S214003C4005D50001114B18180589ADB24C2380200C
S214003C501843029501920091102304AA0100022045
S214003C600B4CA0470023002800D00E3B180009B0DC
S214003C7030BD06235B42F9E706235B42F6E70623E0
S214003C805B42F3E706235B42F0E7C0464C0F00209A
S214003C907917000030B587B0002834DB002935D00E
S214003CA0002A36D005011E4C6419A47A012C33D1A3
S214003CB01B4C29516419A280217B002200291DD1AA
S214003CC001212173E27A4531D20700D50731002B56
S214003CD017D1013B049304AA10710001104B181869
S214003CE0C388D380002302930193009308330220F5
S214003CF00C4CA0470022002800D00E3A100007B057
S214003D0030BD0493E7E706225242F7E70622524206
S214003D10F4E706225242F1E706225242EEE7C04698
S214003D204C0F00207917000030B587B004001E48FD
S214003D301E4DA84721001E48A8470D201D4B98473A
S214003D40002C2ADB22011C4B9B189B7A012B27D1C7
S214003D5005A90C70184B9B18DA884A8000229A72C4
S214003D60DA80DB7A4921DB0700D505310023029390
S214003D7001930093043305AA0220104DA847051EA0
S214003D8001D009256D4224010B482018102200217D
S214003D900B4B9847280007B030BD06256D42F9E763
S214003DA006256D42F6E7C04688DD0000E1B8000053
S214003DB000E8000015B900004C0F0020791700003D
S214003DC06516000070B582B000230193002600211E
S214003DD00278441C05300B0009E09D005B195B006F
S214003DE09B18DBB222000134A0420AD012782E2A99
S214003DF00AD0002A0CD0303AD2B2092AEDD90020D7
S214003E0000E0002002B070BD6A46B354200002E015
S214003E106A46B35420000136042ED9D104226946DE
S214003E2001A8024B98470198ECE7C04651160000DF
S214003E3010B584B004000B4B9847C3B2402B0DD886
S214003E40FF230340013300220292019200922200D7
S214003E504A210220044CA04704B010BD0620404270
S214003E60FAE7C046751600007917000070B582B0F4
S214003E7004002A4B98470005000D294B0025984260
S214003E8002D8280002B070BD01A92648264B9847E4
S214003E90051EF6D1254B019A134025491943019179
S214003EA02048244B9847002C20D000212248214C43
S214003EB0A047AB212148A04701212148A047002167
S214003EC02048A04781212048A047204E204C3000A3
S214003ED0A0470128FBD1154B019A134080214902C7
S214003EE0194301910F48134B9847CAE7002112481F
S214003EF0104CA047B9211148A04701211048A047FF
S214003F0000211048A04781210F48A0470F4E104CB3
S214003F103000A0470128FBD1DDE7C046652600003B
S214003F209F03000010140000B52A0000FF8F88F8D9
S214003F3000101101C12A0000080201000C02010055
S214003F40140201001C020100040201001802010014
S214003F50A92A0000F0B5C64600B5032307009F4314
S214003F601368DB430C00032902D9444203200440B3
S214003F70002C16D0091B3E1D3D68E0004042203054
S214003F80C5406B40E00019D00124274D03E05B08D4
S214003F900138002804D01C42F9D05B086B40F7E7D4
S214003FA0370003200C0084431ED0081B8446890873
S214003FB088463E000D0001201B4C0BE03700F0E762
S214003FC05B080139002904D01842F9D05B08634029
S214003FD0F7E70436013D03D331684B402021F3E771
S214003FE0414689007F186146002917D03C68C80002
S214003FF04042203001256D42C54028002040434005
S214004000C9000BD00120084C03E05B0801390029E9
S21400401004D01842F9D05B086340F7E7DB4313602F
S214004020002004BC9046F0BD2083B8ED10B50123F7
S214004030002801D0180010BD014B98470300F9E78F
S214004040BD09000010B50123002801D0180010BDDE
S2140040500800024B98470300F8E7C046ED09000049
S21400406043425841C0B2704710B50123002801D022
S214004070180010BD014B98470300F9E7FD09000042
S21400408010B50C000123002801D0180010BD110047
S2140040902000024B98470300F7E7C046510A00008D
S2140040A010B50C000123002801D0180010BD110027
S2140040B02000024B98470300F7E7C046A90A000015
S2140040C00C4B1B68002B06D1EFF31083002B07D098
S2140040D00022094B1A70074A1368013313607047B1
S2140040E072B6BFF35F8F0022044B1A700132024B88
S2140040F01A70F0E7B4030020B80300200E0000207A
S214004100084B1A68013A1A601B68002B09D1064B47
S2140041101B78002B05D00122044B1A70BFF35F8F6B
S21400412062B67047B4030020B80300200E000020DB
S214004130F0B583B001AC012565700027A770257027
S21400414021001720064EB04780221204054B9A61C4
S2140041502770657021003720B04703B0F0BDC04619
S214004160D1450000004400411723002A01D0180062
S21400417070478B00064A9B58002B03D0834205D01D
S2140041801D23F4E7890088500023F0E70023EEE7BC
S2140041900C1000201723002901D0180070470022B9
S2140041A01F2800D8024A01238340D3600023F4E787
S2140041B0001800401723002901D01800704700227D
S2140041C01F2800D8024A0123834093600023F4E7A7
S2140041D00018004070B50022104B1A7000231049DA
S2140041E01F25104E0D4C0AE00D4908E023780133D8
S2140041F0DBB223700F2B10D800211F2BF4D9280018
S21400420018400122824008691042EFD00A619B00E4
S2140042109B59002BEAD09847E8E770BD08100020AD
S214004220001800400C100020044A137802210B43AB
S214004230137053785BB2002BFBDB7047001800400E
S21400424000B583B0124A936940210B43936101A9DC
S21400425000230B7005200F4B984705200E4B984700
S2140042600E4A137801210B43137053785BB2002B70
S214004270FBDB0B4B19004031002204C39942FCD1F2
S2140042801022084B1A60084B984703B000BDC04682
S21400429000040040715F0000E55E0000001800406A
S2140042A00C10002000E100E029420000002303601B
S2140042B0436001220272427283720233C3727047F5
S2140042C0F0B583B005000C0001A900234B70CB703D
S2140042D023790B70237A8B702078154B9847002033
S2140042E01F2D00D8134807222A409200E77AA37AA7
S2140042F0002B01D008231F43EB089B00C3189969C5
S2140043000F269640B14397403A000A439A61637A73
S214004310002B06D143690122AA409343436103B0B0
S214004320F0BD42690123AB4013434361F7E7C04643
S214004330696000000018004010B51E4AD3690421C9
S2140043400B43D3611C4B2022FF321A831A7D0523B0
S214004350D20701D4180010BD03781B02C0229200B9
S21400436013404178C901FF220A401343817849006F
S2140043701E220A401343C27892048021C9020A40D2
S214004380134302791204C02189020A4013430A4AE1
S214004390536093685B035B0F084908249C400C80BD
S2140043A093684B8043780B71138BDB05DB0F1B0187
S2140043B0D0E7C0460004004000400041BC03002097
S2140043C030B50400224A1088538843438B4206D2F5
S2140043D08022920118201F4BCB1893420ED81E4BFA
S2140043E05D688022D2022A435A602022FF321A8356
S2140043F01B7DDB0703D4184B5D60052030BD452CC4
S21400440022D8A300154AD3589F46134B1B8BDB05B7
S21400441003D5114B5D601020F0E7890849000E4B6C
S214004420D96103E0890849000B4BD961A520000239
S2140044300443094B1C80190001220B7D1342FCD05B
S214004440054B5D600020D9E7034B5D601720D5E77C
S214004450BC03002000C07FFF0040004134E800009D
S214004460F8B5254B1D885B886B431824834201D220
S2140044702000F8BD6B1E1842FAD1013C9542F7D3D6
S2140044801E4B1B7D123CDB07F2D51D4C1B4B1C80C4
S2140044901D0001242B7D2342FCD02024FF34174B23
S2140044A01C83002A22D0012305009D430023571EAB
S2140044B009E0CE187678360234432C8002339BB25D
S2140044C002359A4204D9CC5CBB42F2DBA4B2F4E7D4
S2140044D0094B1B790024002BCAD13F2AC8D80022DA
S2140044E001000420074B98470400C1E7024B1B79E4
S2140044F00024002BF3D0BBE7BC03002000400041A3
S21400450044A5FFFFC143000070B5184B1D885B88AB
S2140045106B431824834201D2200070BD6B1E1842E4
S214004520FAD1013C9542F7D3114B1B7D123CDB07B9
S214004530F2D52024FF340E4B1C83002A14D001230E
S21400454098430023561E04E002339BB202309A4280
S21400455008D90488A4B2CC54B342F5DACD18240A9C
S2140045606C70F1E70024D7E70024D5E7BC030020F1
S21400457000400041134B1A885B885343182183423E
S21400458001D2080070479200013A1042F9D10E4B52
S2140045901B7D1339DB07F4D50B4B2022FF321A8321
S2140045A080084000D861094A1A80190001220B7D54
S2140045B01342FCD0044B198B1C200140481E81413D
S2140045C08900DEE7BC0300200040004102A5FFFF93
S2140045D000B583B001AB80221A700A785A704A7808
S2140045E09A708A78DA701900014B984703B000BDBC
S2140045F06960000001680822054B1A600268937A19
S2140046005BB2002BFBDB0B88022213430B80704748
S21400461000E100E010B50268082480230749CC506A
S21400462001688B7A5BB2002BFBDBC123937113729C
S214004630138802218B43138010BDC04600E100E0C2
S21400464070B504000568074B9847002323826382F1
S2140046502268937A5BB2002BFBDB2B880122134384
S2140046602B8070BD1546000010B5CB88C2889A1AFC
S21400467092064B799B050C79640423438C782403BB
S214004680234313430279002A05D1CA78002A02D0B0
S214004690802252021343487880010A781043184358
S2140046A010BD10B58B0EC4881B19D3808B011B0F51
S2140046B053718B02DB0E13710379002B0CD10B04A4
S2140046C01B0F9370CB03DB0FD37088093F23184072
S2140046D050701940117010BDCB03DB0E9370F4E7D9
S2140046E010B50A0003684179002906D059884904A4
S2140046F00BD519690A4B984710BD0A4959800468BA
S214004700A17A49B20029FBDBF3E75988C0242402CA
S214004710214359800468A17A49B20029FBDBE8E707
S214004720A34600000080FFFF70B50D00140017239D
S214004730012A01D9180070BD0668064B9847B37A5F
S2140047405BB2002BFBDBE4003419A0612B7A2377E5
S2140047500023EFE76946000030B583B0050014007B
S21400476001601C4A936920210B43936101A902232F
S2140047700B700420184B98470420184B98472800C5
S214004780174B984723792B71E3786B71E388EB809E
S214004790144B1D602A6823882179002917D0082128
S2140047A00B43A178002901D080210B431380E378C6
S2140047B0002B04D053888021C9010B43538021006D
S2140047C0083100222800084B984703B030BD482126
S2140047D00B43E6E700040040715F0000E55E000062
S2140047E0414600004C1000202947000010B50F4B32
S2140047F01A681468518A138A1940207AE3790340AC
S21400480058B2002806DBDB0703D5CB070AD4012302
S214004810237210BD8B0702D480232372F9E7D36876
S2140048209847F9E793689847F1E7C0464C10002090
S214004830F0B5DE4657464E464546E0B587B080465C
S214004840049116001F000022002300218B463F24FF
S21400485001202100009601975C4603944446059487
S21400486013E02024641A0500E540A84614E0009CE6
S214004870019D121BAB415C464D462C43A346039C50
S21400488045462C430394013925D3202464420C1951
S214004890E7D40500A540A84604008C40A14692181F
S2140048A05B4114001D00059E4F463E40B446049EE4
S2140048B047463E40B246664657463E4303D006004D
S2140048C0264332002B00009C019D9D42DBD8CED1B2
S2140048D09442D8D8CBE7039B5846190007B03CBC97
S2140048E090469946A246AB46F0BD10B5490840230F
S2140048F00024814202D2180010BD1C00091A631C55
S2140049009BB28842F9D94023FF2CF4D814800023A8
S214004910F1E70000F0B583B00F00160008AA117882
S21400492004004C434022BC4202D9100003B0F0BD44
S214004930002B14D1020008000021194CA0470100EA
S2140049403A0000230020174CA04700220123121A29
S2140049508B41120C1B041A4332800022E5E700222A
S214004960012BF9D10A00002300210D4CA0470200BC
S2140049700B0000920193380000210A4CA047050066
S21400498080239B0140229842CFD8790FF800009AE6
S214004990019BA047EA00821AD2B252032A43DBE701
S2140049A079B600003148000010B582B004000E4B06
S2140049B01B78002B07D0002905D10B4B5B78834270
S2140049C010D01D200CE001A90C701320074B98474F
S2140049D01320074B9847044B5C7001221A70002086
S2140049E002B010BD0020FBE7C4030020715F00008A
S2140049F0E55E0000404B984231D00AD93F4B9842C2
S214004A004DD03F4B98425AD03E4B984237D000206C
S214004A1070473D4B98420CD03C4B9842F7D1012949
S214004A2017D000295DD0022915D0032915D0002003
S214004A30EEE7012907D0002951D0022905D0032925
S214004A4005D00020E4E73248E2E73248E0E73248A3
S214004A50DEE73248DCE73248DAE73248D8E70129B1
S214004A6007D000293FD0022905D0032905D0002011
S214004A70CEE72D48CCE72D48CAE72D48C8E70129E0
S214004A8007D0002931D0022905D0032905D00020FF
S214004A90BEE72848BCE72848BAE72848B8E701290F
S214004AA007D0002923D0022905D0032905D00020ED
S214004AB0AEE72348ACE72348AAE72348A8E701293E
S214004AC007D0002915D0022905D0032905D00020DB
S214004AD09EE71E489CE71E489AE71E4898E71E4831
S214004AE096E7032094E71D4892E71D4890E71D4887
S214004AF08EE71D488CE7C0460010004200180042B2
S214004B00001C00420014004200080042000C004254
S214004B100300050003000600030007000300010071
S214004B2003001E0003001F000300090003000A0024
S214004B3003000B0003001100030012000300130023
S214004B4003000D0003000E0003000F000300170013
S214004B500300180003001900030004000300080007
S214004B600300100003000C000300160030B587B0E9
S214004B700B4B6A4632CB32C232CB32C2009B8342E8
S214004B800BD001239A0069465258824206D0013360
S214004B90062BF7D1002007B030BD0023D8B2FAE7C5
S214004BA04CE9000070470000F0B50A4B1B78002B5C
S214004BB00CD1094F094E0A4D0024DE515A191460D3
S214004BC00433182BF9D10122024B1A708000024BD5
S214004BD0C150F0BDC6030020C8030020A54B00004E
S214004BE05010002000B583B009236A4613700133C5
S214004BF05370013393700133D37001331371013353
S214004C005371034B98476B46185603B000BDC04619
S214004C106D4B000010B5024B1B680020984710BD76
S214004C20C803002010B5024B5B680120984710BDF2
S214004C30C803002010B5024B9B680220984710BDA1
S214004C40C803002010B5024BDB680320984710BD50
S214004C50C803002010B5024B1B690420984710BDFE
S214004C60C803002010B5024B5B690520984710BDAD
S214004C70C803002070B50500046820000E4B984756
S214004C801F2318401E3B834080220C498B502A6805
S214004C90D369002BFCD18F33237523762368022239
S214004CA0934323602A68D369002BFCD12368012232
S214004CB01343236070BDC046E54B000000E100E0F2
S214004CC070B582B005000C0000226B46DA800668DC
S214004CD03000244B98471F2318401E3B83408022F9
S214004CE021498B502A68D369002BFCD18F3333754A
S214004CF0337633680222934333602868C369002BF7
S214004D00FCD11A4B98471430C0B2194B9847010093
S214004D106B469A1D2000174B9847041E03D0172495
S214004D20200002B070BD6B4606331B7833732E68C6
S214004D30F369002BFCD130000A4B98471F2318401C
S214004D401E3B8340084A13602A68D369002BFCD1B7
S214004D5033680222134333602A68D369002BFCD1E0
S214004D60DEE7C046E54B000000E100E06D4B0000CA
S214004D708D5F0000EB480000F0B58BB005000C001E
S214004D80160029600B681C209B0701D50BB0F0BDF0
S214004D900B681738DB07F9D40800604B9847604A61
S214004DA0116A871C0123BB400B43136209A9242701
S214004DB0F35D0B701430C3B201931800594B98473B
S214004DC00198594B9847F05D0021584B9847337827
S214004DD0012B38D02B000C3329002831002204C3C5
S214004DE08B42FCD10023EB62AB620024AB862B86A1
S214004DF03633EC540133EC540133EC54353B6B72D0
S214004E002C712868454B984707004949494B9847F5
S214004E10BF00494BFD502F6804AB80221A705C70AF
S214004E207F3A9A70DC703378002B02D1002204ABF4
S214004E309A70B36A0593F36A0693336B0793736BA2
S214004E40089300240BE023680C2213432360C1E779
S214004E5038003A4B98470AE00134042C10D0E1B2EF
S214004E60A30002AA0C201218D0580028F0D0431C29
S214004E70F2D004A90870000CC0B2314B9847EBE79B
S214004E8033786B71337CAB71B37CEB71337D2B72F3
S214004E90002202ABDA803378012B28D07368B26820
S214004EA01343F2681343317C727C002A03D1254AEF
S214004EB09278920701D580221343B27C002A02D052
S214004EC0802292021143F27C002A02D080229200B5
S214004ED01143327D002A02D08022920111433A68A3
S214004EE013433B607B680B437B6000204EE72868DB
S214004EF00A4B98471430C0B2134B9847010002ABD8
S214004F009A1DB069114B984703001720002B00D05C
S214004F103CE702AB06331B783B73BFE76D4B0000E4
S214004F2000040040715F0000E55E0000A949000033
S214004F30E5510000A94B000050100020F549000084
S214004F4069600000002000418D5F0000EB48000013
S214004F50F0B5D646474680B583B03824055D333C69
S214004F60052D02D01234002A05D1200003B00CBC57
S214004F7090469A46F0BDC479002C44D11C34F4E720
S214004F8005682C7E3C42FCD02C7E3C421AD044461F
S214004F90AC6217E08479012C26D0AD6AECB2A44648
S214004FA0019C002C3AD1751CADB264468C558479B0
S214004FB0012C1ED02E00013A92B252451FD04479E1
S214004FC0012CDDD005682C7E1C42FCD02C7E1C42B9
S214004FD017D06C8BA4460024019464461C42D9D09A
S214004FE06B831E240194D5E7AC6AE405E40DA44661
S214004FF0D6E70236B6B26446240A4C55DBE7019C77
S214005000B3E71024B1E7013A92B200260127DB0588
S214005010DB0D98460423024CA246D0E7019CA4E789
S214005020FFFF000010B544791523012C01D01800AD
S21400503010BD047A0023002CF9D1002A58D04B78F2
S214005040002B44D003681B7EDB0710D40A78D109F6
S2140050500023002904D15309DB012E498C46634402
S2140050601F21114001228A409A610523DFE70A7852
S214005070D4090023002C04D15309DB01254CA44697
S21400508063441F2414400122A2405A6103681A7E1A
S214005090D20701D58A789A62C2790023002AC6D13F
S2140050A002680421137E0B42FCD0117E00234907C0
S2140050B0BDD5538B5B0701D5042353838379012B1E
S2140050C002D0936A0023B2E7936A0023AFE70A7818
S2140050D0D1090023002904D15309DB010D498C4670
S2140050E063441F21114001228A405A6100239EE733
S2140050F00A78D1090023002904D15309DB010549A8
S2140051008C4663441F21114001228A409A61002385
S2140051108DE7C04600440041F0B5DE4657464E4691
S2140051204546E0B583B08A463823C45C333B052C3D
S21400513002D01233002A4BD1180003B03CBC904674
S2140051409946A246AB46F0BD0237BFB2414653462B
S214005150595C09025B460B4318E08379012B2AD081
S214005160936A013EB6B2664527D00268137E234294
S214005170FCD07B1C9BB298465346DB5D9B468179F0
S2140051800129E1D06946CB80CB884746117E214273
S21400519002D0DB05DB0D9362C379002BE1D00268F9
S2140051A0137E2B42FCD0137E2B42DAD0538B2B423D
S2140051B0D3D05583D1E7936AD3E742790023012AF7
S2140051C0BAD1016801320B7E1342FCD00023B3E74C
S2140051D0013A96B2002701240425014B9C46C4E7F9
S2140051E0FFFF0000F8B58000704BC45826683723D0
S2140051F0E75C3622A25C1740337EB57D1D40EB0788
S21400520002D56379012B1ED06B0711D5738B5B0714
S2140052105AD5637A012B08D01E223823E254353B38
S2140052206372023333753B074AD4B36A042373832D
S214005230AB0703D56379012B00D197E06DB2002D43
S21400524000DAA9E0F8BD637A002B22D0637A002B3F
S214005250DAD02168E26A1378DBB2501CE062A079EB
S214005260012827D09BB2DB05DB0D8B62A38E013BAA
S2140052709BB2A386A38E9BB2002BC5D10133337598
S214005280637A012BC0D1E379002BBDD10233B3750D
S214005290BAE7474B1B88B362638E013B9BB26386BB
S2140052A0638E9BB2002B01D1013333756379012BDA
S2140052B0CCD0A9E75078000203430232E262D2E77C
S2140052C02000A3699847B0E7637A012B28D02368AB
S2140052D09B6ADB05DB0DDAB2A16A0A70A26A511C72
S2140052E0A162A179012934D0238E013B9BB223868B
S2140052F0238E9BB2002B00D09AE700223833E2546C
S214005300343B3375637A022B29D0637A002B00D0A6
S2140053108EE7BB0700D48BE720002369984787E712
S21400532023689B6A638E013B9BB26386638E9BB247
S214005330002B00D07CE70433337500223433E2546C
S214005340353B6372FB0700D472E72000E36898479A
S2140053506EE71B0A5370A36A0133A362C4E77B0798
S21400536000D465E720006369984761E7637A012BFC
S21400537000D063E7E379002B00D05FE70233337594
S2140053800133637200223533E254FB0700D455E73D
S2140053902000E368984751E78023337533767B0611
S2140053A000D44FE7636A200098474BE75010002070
S2140053B068100020F0B5DE4657464E464546E0B536
S2140053C091B005000C00160029600800BC4B9847F9
S2140053D0020023680520DB0706D511B03CBC9046CA
S2140053E09946A246AB46F0BD236817309B07F4D417
S2140053F0B449086A971C0123BB4003430B620FA9FC
S2140054002D27F35D0B701432D3B202931800AE4B07
S21400541098470298AD4B9847F05D0021AC4B9847F3
S214005420F37A6B712423F35CAB712523F35CEB7189
S214005430F37E2B72337F6B722B6898461800A04B56
S2140054409847143000220E2306A98C4663441A801F
S214005450328A02928023DB019A4200D19EE00FD965
S214005460C023DB01029A9A4200D192E080231B02FD
S2140054709A4200D01FE1032306930023079308E017
S21400548080239B019A4200D015E1102306930F3B20
S214005490079333680593F368039373690493337E25
S2140054A09B462623F35C9A4673689946002B00D1E8
S2140054B0A0E080235B05994500D184E0737E002B35
S2140054C002D0B37E424693732A68029FD369002BAC
S2140054D0FCD10E3306AA944663441B884246938149
S2140054E0059B039A1343049A13434A4613431F43E8
S2140054F05B461B021F4353465B071F432723F35C91
S214005500002B01D104331F43737E9B02327F52026D
S2140055101343727F120213432422B25C52041343D5
S2140055202522B25C12041343B17AF27A114319436E
S2140055303389FF2B00D181E08022520417431943A0
S2140055402C23F35C002B03D1624B9B789B0701D581
S21400555080231F432A68D369002BFCD14346596039
S2140055602A68D369002BFCD143461F600EAB80220D
S2140055701A7000225A70DA709A70336B0A93736B43
S2140055800B93B36B0C93F36B02930D9300270AAE49
S21400559063E008230693073B07937AE7336805938F
S2140055A0F368039373690493337E9B462623F35C68
S2140055B09A4673689946002B18D080235B05994558
S2140055C001D0002025E02723F35C002B00D075E7F0
S2140055D0336A1F00C0B2404B984701000E2206AB4C
S2140055E09C46624438003D4B984712E008230693D9
S2140055F0002307932723F35C002B0ED0069B009313
S214005600079B0E2206A98C466244B16A306A344F64
S214005610B847002800D0E0E650E7336A1F00C0B263
S2140056202D4B98470100069B0093079B0E2206A869
S2140056308446624438002A4FB847EAE7F37E002BD8
S21400564000D17DE78023DB041F4379E72000254B4C
S214005650984707E00137042F0DD0F9B2BB009859E0
S2140056600028F3D0431CF5D00EA90870000CC0B279
S2140056701D4B9847EEE70023EB602B616B61AB6137
S214005680EB612B62AB626B620022EB85AB8530333D
S214005690EA540133EA540133EA540133EA542868E1
S2140056A0074B984704001149114B9847A400114B2B
S2140056B0E550002091E61023069300230793E8E6C2
S2140056C06D4B000000040040715F0000E55E0000C6
S2140056D0A9490000002000418D5F0000EB48000053
S2140056E015490000F5490000696000009557000064
S2140056F0A94B000050100020C2791C23002A01D1BB
S21400570018007047C28D92B2173B002AF8D1036882
S214005710DA69002AFCD1198502211A7E0A42FCD0D9
S2140057200023EDE782791C23002A01D11800704778
S214005730828D92B2173B002AF8D10268107E40078D
S214005740F4D5D369002BFCD1538BDBB298061DD061
S214005750980703D5022353831833E7E7580703D582
S214005760042353831A33E1E7D80703D50123538371
S2140057701233DBE7D80603D5102353833233D5E73D
S2140057809B0603D5202353832133CFE7138D0B804D
S2140057900023CBE7F8B58000624BC5582C68E36958
S2140057A0002BFCD1237EA67D1E403023EB5C3122ED
S2140057B0AF5C1F40F30722D5EB8D9BB2002B1CD0AD
S2140057C0AA6A1378DBB2511CA962697901290ED046
S2140057D09BB2DB05DB0D2385EB8D013B9BB2EB8596
S2140057E0002B0CD1013323750133A37507E05178E4
S2140057F009020B430232AA62EBE701232375B307C3
S21400580006D50223237500223133EA54FB071AD447
S214005810730765D5AB8D9BB2002B5FD0638BDBB275
S2140058201A0714D43F221340002B34D09A0711D500
S2140058301A223223EA54303B63837B0750D5280074
S2140058406B6998474CE02800EB689847E0E73722FA
S2140058501340E9E75A0705D51E223223EA542E3BA9
S2140058606383EAE7DA0705D513223223EA54313B8D
S2140058706383E2E7DA0605D542223223EA54223B66
S2140058806383DAE720221A42D7D021323223EA5441
S214005890123B6383D1E7238DDB05DB0DDAB2696A41
S2140058A00A706A6A511C69626979012910D0AB8D49
S2140058B0013B9BB2AB85002B12D10433237500222B
