S029000053414D5732355F485454505F414E445F4D5154545F535441525445525F434F44452E73726563E8
S214009C00B0340020751101007111010071110100BE
S214009C10000000000000000000000000000000003F
S214009C2000000000000000000000000071110100AC
S214009C30000000000000000071110100213C01003E
S214009C4071110100711101007111010081F2000013
S214009C5069EC000071110100711101007111010021
S214009C6071110100A9F60000B9F60000C9F600005F
S214009C70D9F60000E9F60000F9F6000041110100EF
S214009C8051110100611101007111010071110100F3
S214009C9071110100000000000000000071110100B9
S214009CA071110100711101007111010071110100A3
S214009CB00000000010B5064C2378002B07D1054B9A
S214009CC0002B02D0044800E000BF0123237010BD23
S214009CD05003002000000000BCDE0100084B10B559
S214009CE0002B03D00749084800E000BF0748036878
S214009CF0002B00D110BD064B002BFBD09847F9E790
S214009D000000000054030020BCDE0100BCDE0100A1
S214009D1000000000F0B5D6464F464646C0B58AB0AD
S214009D2006000F00140031600800A04B9847A04AB8
S214009D30116A851C0123AB400B43136209A9237BE0
S214009D400B701430C5B228009A4B984728009A4BDF
S214009D509847207B0021994B98473B681C209B071F
S214009D6005D50AB01CBC90469946A246F0BD3B6895
S214009D701738DB07F5D430688C4B994698470500B2
S214009D808F49904B9847AD008F4BEE5000233376AB
S214009D90737600257383B3832522B5543362143358
S214009DA03B60336898461800C8478146802308AA57
S214009DB01370557001239370D570E069276A0028E8
S214009DC000D1AFE008AB1870022308AA5370000C4D
S214009DD0C0B211007D4B9847002F00D1A7E008AB1A
S214009DE01F70022308AA53703F0CF8B21100774B7D
S214009DF09847A38AF380E38A3381237E8022002B50
S214009E0004D1734B9B789B07DB0FDA01A1682369AB
S214009E100B4313432422A25C002A02D08022D205E0
S214009E201343A26A13432C22A25C002A03D1802289
S214009E309204914202D18022120513432D22A25C85
S214009E40002A02D08022120413432E22A25C002A8B
S214009E5002D08022D203134342461268134342467E
S214009E60136080235B00536048461430C0B2594BE1
S214009E7098470790FA239B0022685A4391466368E6
S214009E809A46554DA847009001914B465800A84762
S214009E9002900391208EA847049005914F4F504A98
S214009EA0504B00980199B84702000B00049805999A
S214009EB0B8474D4E00224D4BB0470490059148469A
S214009EC0A84702000B0004980599B84702000B004B
S214009ED0474D00980199A847029A039BB047002275
S214009EE0444BA847029A039B434DA847434B9847C9
S214009EF0050080239B04A2689A421ED003004020DF
S214009F00FF2D00D92DE700240020FF251D40240644
S214009F1025430004FF231B04184005434346DD6029
S214009F2000201EE700214046354B98474AE70121AE
S214009F304046334B9847070051E7FA26B60053468B
S214009F405E430098019902000B00274CA047009042
S214009F5001913000204B984700222A4BB847020058
S214009F600B0000980199244CA0470022214B204C5E
S214009F70A047224B9847041E0CD031000798224B6E
S214009F8098470238001B2B00FF2D0CD8FF28BCD9A1
S214009F904020E6E67100481E079B9C4660441A4B2C
S214009FA098470138EFE74020DBE6C04601F60000A0
S214009FB000040040B90901002D0901003DF400002D
S214009FC05DA200003DF600004C120020B10A010020
S214009FD000200041D5090100318C010019800100E4
S214009FE095D626E80B2E113E917301000000244002
S214009FF0198501000000F03FB1790100458B010092
S21400A00089F40000000008401570010003681A7EFD
S21400A010920707D502221A765B8B9B074120DB1737
S21400A020184070475A8B520706D55968C0229202CC
S21400A0300A435A601820F4E70020F2E730B50268B9
S21400A040002301240225117E21420BD1117E2942D4
S21400A05006D101339BB201899942F4D8122002E05E
S21400A060002000E0002030BD10B504686268802340
S21400A070DB02134363606162024B98470123237639
S21400A08010BDC0463DA0000001680722CB691A42F9
S21400A090FCD1704770B5040006683268458B838B28
S21400A0A0ED1AADB2838B013B9BB2838313011DD5A2
S21400A0B0C37A002B03D0838B9BB2012B10D0A38BCB
S21400A0C09BB2002B02D1A37A002B1CD12000124B8E
S21400A0D09847236A5D192823F35CDBB22B7070BDAA
S21400A0E072688023DB0213437360E8E7C37A002BB1
S21400A0F0E5D0838B9BB2002BE1D172688023DB0214
S21400A10013437360DBE72000034B98477268C02355
S21400A1109B0213437360D9E789A0000070B5040062
S21400A12005686B8B5B0703D51E222523C25470BDC2
S21400A130468B838BF61AB6B2838B013B9BB2838326
S21400A140044B9847236A9E193378DBB22822AB5417
S21400A150EDE7C04689A00000F8B505000C000668CB
S21400A1604B6803624B88838301222423C254043243
S21400A1700133C25437683F01FF0F4B7A002B17D1CB
S21400A180002F02D06388012B16D07368204A134034
S21400A1907360237A002B15D10323B37523885B00E5
S21400A1A0627A920313430122134373620020F8BDC0
S21400A1B0897A184B9847E3E772688023DB021343DB
S21400A1C07360E6E723885B00627A9203134380227B
S21400A1D012021343736228000F4B984773680C4AA9
S21400A1E0134073600028E2D128000C4B98470028E3
S21400A1F0DDD10323B37523881B0A782213435B0043
S21400A200627A920301210A4313437362CFE7C04682
S21400A210FFFFFBFF69A000003DA000000DA00000AE
S21400A220931C9B00C3185960037E012191400B4389
S21400A230DBB203767047000010B5838B9BB2052215
S21400A240002B01D0100010BD01338372C372024B85
S21400A25098470200F6E7C04659A1000070B5800096
S21400A260754BC45825682B681B01DA0F637E267E63
S21400A2701E40638B9BB2002B03D1A38B9BB2002B9B
S21400A28023D1638B9BB2002B08D0A38B9BB2002BF1
S21400A29004D12533E35C052B00D16DE0638B9BB2C4
S21400A2A0002B24D0A38B9BB2002B20D06B8B9B065D
S21400A2B000D581E0002A04D0A38B9BB2012B00D1ED
S21400A2C07AE041222523E25411E02B7EDB0707D5F6
S21400A2D001232B766B8B9B072ED541222523E25438
S21400A2E0A38B9BB263832523E35C052B38D0638B5B
S21400A2F09BB2002B07D0A38B9BB2002B03D1253338
S21400A300E35C052B64D02523E35C052B13D02523C3
S21400A310E35C002B0FD003232B7500236383A383FA
S21400A3202533E35C412B03D0A37A002B00D075E0E5
S21400A330730700D57BE070BD6B8B5B07D0D518220A
S21400A3402523E2540023A383A37A002BC8D0200041
S21400A3503A4B98476A68C0239B0213436B60BFE77B
S21400A3601F33E35C002B03D02000354B9847BEE735
S21400A3702000344B9847BAE71F33E35C002B00D02D
S21400A3808CE703332B750023638325330022E254C6
S21400A390A37A002B07D101232B76F307A7D5E36812
S21400A3A020009847A3E72000244B98476A68C023FC
S21400A3B09B0213436B60F0E72423E35C002B03D17E
S21400A3C02000204B984792E720001D4B98478EE7C9
S21400A3D01F33E35C012B96D12B7E9B0701D502230E
S21400A3E02B7603232B750023638325330022E25448
S21400A3F0B30703D52423E35C012B0BD0F30700D46B
S21400A40081E72423E35C002B00D07CE7E368200090
S21400A410984778E723692000984774E72000074BA1
S21400A42098476A68E023DB0213436B6080E7636942
S21400A430200098477FE7C0464C12002089A0000005
S21400A44095A000001DA1000010B50248024B9847D9
S21400A45010BDC04640B301006D91010010B5054C1B
S21400A460012205492000054B9847637E02221343CC
S21400A470637610BDA410002049A4000021A20000AD
S21400A48030B58FB001AB64220192224A02920022BC
S21400A49003921A731A768021890305910121494295
S21400A4A0D982998225315A540B9208315A54013177
S21400A4B05A5401315A54D7321A86174A0892174A04
S21400A4C00992174D174C01AA17492800A0470028E3
S21400A4D0F9D1134B1C680722E3691A42FCD12368A2
S21400A4E00222134323600E4D2868104B98471F2303
S21400A4F018401E3B83400E4A1360E8880023102154
S21400A500628B0A4204D101338342F9D3102363835A
S21400A5100FB030BD480D0000020008000200090020
S21400A520A4100020159D00000008004279F60000E7
S21400A53000E100E0F0B5C64600B590B04149692399
S21400A5400B8097334B80404B4B604048404B9847BE
S21400A550002400253F4E3B4F3F4B984606E03F48C1
S21400A5603F4B984707223C4B1A7001350A20B047EC
S21400A570013480235B009C4215D0402CF6DD7B68BE
S21400A580195D0029F2D0FE2CF0DC6B465955434687
S21400A5901B78002BE3D03348314B98472E4A13786C
S21400A5A0013B1370E1E76B469A7CDB7CD2186B4666
S21400A5B01B7D9A186B465B7D9B189BB26A46917E04
S21400A5C0D27E89186A46127F51186A46527F521800
S21400A5D092B29B1822226946895C01326846825CE8
S21400A5E089182422825C51182522825C521892B265
S21400A5F09B182A22815C0132825C89182C22825C9C
S21400A60051182D22825C521892B29B18DA170F202E
S21400A6101040C0180003000C134B9847134A144B05
S21400A620144CA0470022144B144CA047144B9847D8
S21400A63084B2210013480A4B9847200010B004BC8F
S21400A6409046F0BDCC1000206C030020A410002023
S21400A65039A2000085B700000000002064B30100A6
S21400A6606D91010060B30100AD8B010033333333CD
S21400A6703333E33F1980010000003440917301003A
S21400A680557301006CB3010010B5064B19688B7F3B
S21400A6905A1E9341DBB24A7B096803480078034C94
S21400A6A0A04710BD6C0400209404002031B30000C5
S21400A6B010B50423002801D0180010BD0E4B9B7A5D
S21400A6C0033B012B0DD900220C4B1A700A4C0C4B85
S21400A6D01C600C4B9847A37A023B58424341DBB2BE
S21400A6E0EAE7054B02229A72074A1A6001225A7359
S21400A6F000229A77E7E7C046700400209404002002
S21400A7006C04002089A60000801A0600F8B5094DE2
S21400A710094F0A4E00210A48B847041E07D0B04722
S21400A720FF23034203D0013D002DF3D10024200077
S21400A730F8BDC046410D030075B500008DB500009C
S21400A7400D1B000010B582B00C4B1B68198909045C
S21400A7500123009310220A480A4CA047002801D182
S21400A76002B010BD054B18680E300121064B984705
S21400A7700028F5D0054B9847F2E7C0466C04002049
S21400A78009110800E5B3000011B600009DB60000F0
S21400A79010B5044B1B78002B00D010BD0020024BD8
S21400A7A09847FAE79404002085B3000010B5042209
S21400A7B0034B9A72FB32034B1A70034B984710BD3B
S21400A7C0700400209404002031B20000F0B5C646A4
S21400A7D000B588B0CB4B98470400012806D0CA4B7A
S21400A7E09847200008B004BC9046F0BDC74B1B68D5
S21400A7F00122DA7200221A731A81C54B984700218B
S21400A80088204001C34B9847002807D1BF4B1B68E0
S21400A81003229A72BC4B98470324E2E7D5214900ED
S21400A820BD48BC4B98470026002825D1B74B1B686F
S21400A830DB7ADB0700D5EBE1B44B1B68DA7A092339
S21400A8401340012B0FD180218900B448B14B9847A3
S21400A8500028DBD0AD4B1B68DB7ADB0703D5B04B9B
S21400A86098470028D2D0AF4B9847A84B1B680022C9
S21400A8709A72A54B9847B4E7AB4B9847431C00D158
S21400A880C4E10005000DD5235B0001369842BDD11A
S21400A890CCE70021A5489F4B9847002819D19B4B31
S21400A8A01B680222DA72002188204001994B9847E3
S21400A8B00028ABD09E4D974F9B4E00219D48B84731
S21400A8C00028A3D0B047C3077DD5013D002DF4D1A5
S21400A8D09CE7954B9847430005D58C4B1A68D37A6E
S21400A8E008210B43D372002193488A4B98470028CF
S21400A8F08CD0864B1B68DB7ADA0700D4A4E18F4B3A
S21400A9009847002882D0814B1A68537C072119404B
S21400A91089008B480858FA21890041435B061B0FC3
S21400A9209B0088481B584B431360937B9B0900D0C1
S21400A9303CE1917D8911537D9B00107D800203438D
S21400A9400B43107EC011D17D490008431B051B0D2B
S21400A95001330721014002318B40D07C0F2101409A
S21400A9608B409B0A5360118909047748694B9847C6
S21400A970002800D14AE701230093082200217348EB
S21400A980734DA847002800D140E7012106A8714B67
S21400A9909847002800D139E76F4B9847002800D128
S21400A9A034E706AB1B780F221340012B00D119E1C8
S21400A9B0002B00D109E1022B00D118E1534B1B6894
S21400A9C010221A7305E100215848524B9847002878
S21400A9D000D11BE7544B9847C023DB051840802363
S21400A9E0DB05984205D1494B1A68D17A08230B43F8
S21400A9F0D37200215048474B9847002800D105E7FE
S21400AA004E4B9847002800D100E7404B1A68937BCE
S21400AA109B061B0F022B00D1A8E007D9032B00D101
S21400AA20A7E0042B04D14023137303E0012B66D068
S21400AA3012231373537C5906090F8900072003401D
S21400AA409B003F481858FA239B0043434348095845
S21400AA504B431360917D8911537D9B00107D8002CE
S21400AA6003430B431B051B0D3D498B420FD0107E45
S21400AA70C011D17D49000143013307200140023156
S21400AA808B40D17C083001408B409B0A5360137B7F
S21400AA903F2B7BD900210091012380229200314870
S21400AAA02B4DA847002800D1B0E600252E4E05A85D
S21400AAB0B047002800D1A9E60135ADB2322DF6D157
S21400AAC0124B19688A7D92114B7D9B00097D890285
S21400AAD00B4313431B051B0D214A934254D1224EB0
S21400AAE006A8B047002800D190E60135ADB2352D56
S21400AAF0F6D9064B1A68069B5B08536044E014239D
S21400AB00137397E7B1A6000091A700006C0400201D
S21400AB10ADB3000075B50000085500001011000028
S21400AB200DA7000089A600008DB500003A050000BC
S21400AB30EF1B0000011100003B11000045A70000BC
S21400AB40B4B30100D0B30100371100003311080080
S21400AB50E5B3000011B600009DB6000074B3010016
S21400AB60FF0F00000811080099B500002223137398
S21400AB7060E7302313735DE706A8364B9847002836
S21400AB8000D143E60135ADB27F2DF5D9802189008D
S21400AB903148324B9847002800D137E6304B98476B
S21400ABA0002800D132E62F4B98475EE6D07D937D95
S21400ABB01B02517D09040B4303439B025B08802163
S21400ABC089008C4663445360CDE6274B1B681022F1
S21400ABD01A73254B1B68DB7A09221340012B00D021
S21400ABE038E630E6204B1B681A221A73F1E706ABEC
S21400ABF09B78DB09012B04D11B4B1B6830221A7390
S21400AC00E7E7194B1B6820221A73E2E700260DE6D9
S21400AC10731E9E41B3070393144D104FB846144E4F
S21400AC2000211448B847002800D138E60399124896
S21400AC30C047002800D132E6B047C30700D428E654
S21400AC40013D002DECD12AE609221340012B00D04D
S21400AC5009E6F8E599B500001011000075B500008A
S21400AC600DA7000089A600006C040020EF1B000062
S21400AC708DB50000371100002911000010B5064BF5
S21400AC8098470023002801D0180010BD034B9847B2
S21400AC90034B1B68DB7AF7E7B1A6000091A700001C
S21400ACA06C04002010B5064B98470023002801D0FE
S21400ACB0180010BD034B9847034B1B685B68F7E70B
S21400ACC0B1A6000091A700006C0400200020704789
S21400ACD070B582B00E001500164B9847041E02D0C1
S21400ACE0200002B070BD144B9847002817D0012DE5
S21400ACF019D91248124B1B68DB7A1B0700D4760260
S21400AD00012300932B008022920031000D4EB047A5
S21400AD1000280AD00C4B1D800C4B1D80E0E70C4B26
S21400AD2098470534DCE70B48E4E7094B98470524C9
S21400AD30D6E7C046B1A600000DA70000121110000D
S21400AD406C040020E5B3000090040020920400206C
S21400AD5091A700001111080010B50C00074B98478A
S21400AD60002804D10022064B1A80053010BD044A84
S21400AD7013881C1B14800020F8E7C04611B600009C
S21400AD809004002010B50400144B984705230028B3
S21400AD9001D1180010BD002C10D00022104B1A80D4
S21400ADA0104B1B88012B0FD000210F480F4B9847E4
S21400ADB000280DD00E4B98470023EAE7084B1A8868
S21400ADC00023002AECD0E4E7094B98470023E0E78D
S21400ADD000210548054B9847ECE7C0469DB60000A5
S21400ADE090040020920400200C31000075B500008D
S21400ADF091A7000070B582B00E001500114B984761
S21400AE00041E16D1012D17D90F48104B1B68DB7A8C
S21400AE101B0700D47602012300932B0080229200A9
S21400AE2031000B4EB047002808D00A4B1D800A4B55
S21400AE301D80200002B070BD0848E6E7084B984722
S21400AE400524F6E7B1A60000199110006C04002056
S21400AE50E5B300009004002092040020189108003A
S21400AE6091A7000010B50C00074B9847002804D1A6
S21400AE700022064B1A80053010BD044A13881C1B9E
S21400AE8014800020F8E7C046A1B600009004002019
S21400AE9010B504000E4B98470523002801D1180072
S21400AEA010BD002C0AD000220A4B1A800A4B1B88C1
S21400AEB0012B09D0094B98470023F0E7054B1A8869
S21400AEC00023002AF2D0EAE7044B98470023E6E77F
S21400AED021B70000900400209204002091A70000F3
S21400AEE010B504000F4B9847012819D0002803D04E
S21400AEF0022810D0012010BD0B4B1B5D0220002B3A
S21400AF00F9D12000094B984703000320184043421C
S21400AF1058414000EFE70022034B1A550220EAE7AB
S21400AF200320E8E7CDA70000980400207DAC0000D1
S21400AF3010B50020014B984710BDC046E1AE00009A
S21400AF4070B504000D00044B984740000138286097
S21400AF502000024B984770BDA5AC0000E1AE000093
S21400AF6010B501000020014B984710BD41AF00000E
S21400AF7010B50020014B984710BDC046CDAC000070
S21400AF8010B5140001220C4B9847002804D0023854
S21400AF9043425841013010BD01212000074B98471D
S21400AFA003000120002BF6D10020054B9847431ED6
S21400AFB09841C0B2EFE7C046D1AC000059AD0000E2
S21400AFC085AD000010B50A0001000020014B98472F
S21400AFD010BDC04681AF000010B5140001220C4B16
S21400AFE09847002804D0023843425841013010BD2B
S21400AFF001212000074B984703000120002BF6D1C3
S21400B0000020054B9847431E9841C0B2EFE7C04664
S21400B010F5AD000065AE000091AE000010B50A0068
S21400B02001000020014B984710BDC046D9AF000074
S21400B03000B583B06B46D91DFF230B7001220B4869
S21400B0400B4B98470B4B1B88012B0AD0FC226B46F8
S21400B0509A7101226B46991D0448054B984703B028
S21400B06000BDFE226B469A71F3E7C0469C040020A2
S21400B07061FB0000E0040020F0B583B06B46DC1DE9
S21400B080FF232370124E012221003000114DA847E5
S21400B090FF23012221003000A847FF2301222100C0
S21400B0A03000A8470C4C6B46DD1D094E094F2B7827
S21400B0B0FF2B09D0FF23012229003000B847013CAE
S21400B0C0002CF4D1002000E0012003B0F0BDC04603
S21400B0D09C04002099F90000400D030070B582B072
S21400B0E0144B1C88012C23D0134B1988134B18685B
S21400B0F0134B98470123844202D9180002B070BD52
S21400B1006B46DC1DFF2323700E4E0122210030000B
S21400B1100D4DA847FD232370012221003000A847CB
S21400B1200A4B9847031EE8D10521094A1170E4E747
S21400B1300123E2E7E0040020D8040020E804002011
S21400B140157001009C04002061FB000079B000002F
S21400B150DF040020F0B583B000226B46DA71144C91
S21400B1606B46DD1D134E144FFF23012229003000CD
S21400B170B8472B780F22190091430A1E09D0FE2BE0
S21400B18013D0013C002CEFD104220C4B1A70002087
S21400B1900CE05B0704D00732084B1A70002005E06D
S21400B1A00B22064B1A70002000E0012003B0F0BD11
S21400B1B020A107009C04002099F90000DF0400206D
S21400B1C030B583B001A901235B420B80144D0222E7
S21400B1D02800144B98476B46DC1DFF2301222100F4
S21400B1E02800114DA847227811231340012B05D0C3
S21400B1F001220E4B1A70002003B030BD1E231A40E9
S21400B200042A0BD00A2A04D1023A084B1A700020EE
S21400B210F2E70A22054B1A700020EDE70120EBE763
S21400B2209C04002061FB000099F90000DF04002068
S21400B23070B590B000232D4A137002AC012525701E
S21400B2400393049323746374A574E574237524220E
S21400B250A354183A002108A8254B984780235B0280
S21400B260E360244BA362244BE362244B2363244B0A
S21400B2706363244BA361244E220024493000244BF0
S21400B280984734682000234B98471F231840854072
S21400B290214B1D603268D369002BFCD12368022243
S21400B2A0134323601D4A0023537093701C4908788B
S21400B2B010701C4C20706370A37001A901224A70A4
S21400B2C08B700A70184B98472278D1090023002902
S21400B2D004D15309DB0115498C4663441F211140F4
S21400B2E001228A409A6110B070BDC046DF0400207B
S21400B2F00B90010002001000020011000200120074
S21400B30002001300801A06009C040020000C004275
S21400B310C1F7000079F6000000E100E0EC04002030
S21400B32004000020DC04002065F00000004400411A
S21400B330F8B5070000220D4B1A700C000C4B994212
S21400B34000D91C000B4D0C4E01E0E308E41A210066
S21400B3502800B0471728F8D07900CF190749C9192F
S21400B36001220448064B9847F8BDC046DF0400207B
S21400B370809698009C04002009F70000DC0400205A
S21400B3806DFA000010B50022044B1A704100081830
S21400B390034909180348044B984710BDDF040020F2
S21400B3A0DC0400209C0400206DFA000070B582B01A
S21400B3B0FF226B46DA710022074B1A700A24074EEA
S21400B3C0074D01226B46D91D3000A847013CE4B268
S21400B3D0002CF6D102B070BDDF0400209C040020D3
S21400B3E061FB0000F0B5C64600B586B08046009208
S21400B3F00193FF220F2302A8844663441A7000229A
S21400B400534B1A7004AB3F32404602404020024382
S21400B4101A700A0E5A700A0C9A700A0ADA701971B3
S21400B4200027002304A90822092411E07600F6B2BA
S21400B4300138C0B2002808D05B00DBB21D007540A2
S21400B4402D06F3D56340DBB2F0E70137052F02D0B7
S21400B4507E5C1000F0E75B000122134304AC6371CE
S21400B4603C4E01220F2102AB9C46614430003A4F0D
S21400B470B847062221003000B84702ABD91DFF238B
S21400B4800B7001223000354EB047072402ABDE1D9C
S21400B490304F324DFF23012231003800A847337861
S21400B4A05AB2002A0BDA013CE4B2002CF2D1022296
S21400B4B0274B1A70002006B004BC9046F0BD284A00
S21400B4C013601A071AD45A071DD4012293431FD1BA
S21400B4D043469B0420D443469B0525D443465B0540
S21400B4E02BD4204B6A4612881A801F4B6A469288D5
S21400B4F01A8000221D4B1A600120DCE70622144B3E
S21400B5001A700020D7E70922114B1A700020D2E7E4
S21400B5100F4B1A700020CEE7154B98470028DAD15B
S21400B52003220B4B1A70C6E70D4900230B60FF334E
S21400B53001220848094EB047D0E7094EFF230422EF
S21400B54031000448054FB84733681BBA3360C8E774
S21400B550DF0400209C04002061FB000099F9000035
S21400B560E4040020D8040020E0040020E8040020C2
S21400B57079B0000010B582B0002300930022024C80
S21400B580A04702B010BDC046E5B30000014B1868E6
S21400B5907047C046E404002010B584B00190002235
S21400B5A0144B1A70144B1988144B1868144B984790
S21400B5B0002903D1134B9847002810D0FF230422FC
S21400B5C001A91148114CA0470C4B1A68101D1860B1
S21400B5D0094B19880A4B98470120002901D004B06E
S21400B5E010BDFF23022203A90748084CA0470120EC
S21400B5F0F5E7C046DF040020D8040020E804002059
S21400B6002171010055B100009C04002099F900004A
S21400B610F0B5DE4657464646C0B582B083460022A1
S21400B620174B1A704C1EA4B2002926D00026154BC4
S21400B6309A46154FD0478046002817D03A885B4672
S21400B6409919FF231148124DA8473B88F618114A4E
S21400B65011688C4663441360FF23022201A90B483D
S21400B660A847013CA4B20C4B9C42E3D1404602B032
S21400B6701CBC90469A46A346F0BD01239846F5E7C3
S21400B680DF04002055B10000D80400209C040020F0
S21400B69099F90000E8040020FFFF00000120704731
S21400B6A0F0B5C64600B580460022154B1A70002538
S21400B6B0144F154E00E021004C1EA4B200291BD0EA
S21400B6C0B8473288434659191048114B9847338873
S21400B6D0ED18104A11688C46634413600E4B984769
S21400B6E000280AD0002CE6D00C4B98470028E2D160
S21400B6F00522034B1A7000E0012004BC9046F0BD02
S21400B700DF04002031B00000D80400209C04002094
S21400B71061FB0000E8040020C1B1000079B0000021
S21400B72010B5054B9847002803D10522034B1A7025
S21400B73010BD034B9847FBE779B00000DF040020FC
S21400B740DDB0000070B50020084B98470500084C97
S21400B750FA218900A047074B186007492800A04730
S21400B760064B18600522064B1A6070BDA108010042
S21400B770157001000800002040420F000C00002059
S21400B78010E000E030B5084B1C68084A0025802110
S21400B7904902013807D3002CFBD05460956013682B
S21400B7A00B42FCD0F5E730BD0800002010E000E0BA
S21400B7B010B5034B1B68002B00D0984710BDC04641
S21400B7C0F004002070B582B00023154A136001AC67
S21400B7D001256570A370257021001B20114EB0470F
S21400B7E021001C20B04721002820B0470E4B8022A5
S21400B7F052055A61802212055A610C4B1B681D4285
S21400B80003D00A4B1B689B0701D4094B98470122BB
S21400B810084B1A70BFF35F8F62B6002002B070BD8F
S21400B820F004002065F000000044004110E000E055
S21400B83045B700001200002070B5441E002804D052
S21400B840024D0120A847013CFBD270BD85B7000021
S21400B850F8B5074C80277F05676180252D05656153
S21400B8600120044EB047A7610A20B047A561F8BD85
S21400B8700044004139B8000010B584B00E4B186083
S21400B88001AC20000D4B98472923019300236360E9
S21400B890013323720133E37221000920084B9847D5
S21400B8A0002209210748084B984700210920074B2A
S21400B8B0984704B010BDC046F004002041ED0000DB
S21400B8C055ED0000B1B70000FDEB000029EC0000CC
S21400B8D010B5002804D100210920044B984710BD5C
S21400B8E000210920024B9847F9E7C04649EC0000C2
S21400B8F029EC000030B591B0304C0E2323700023A5
S21400B9006370A37001A901224A708B700A700E2022
S21400B9102B4B98472278D1090023002904D15309DC
S21400B920DB0128498C4663441F2111400122100088
S21400B9308840986102AC2270002303930493C021D0
S21400B9408903059123746374A274E2742375233209
S21400B950A354183A002108A81B4B98471B4BA36218
S21400B9601B4BE36201235B4223631A4B63631A4B50
S21400B970A361220019491A481A4B984700281AD181
S21400B980174D2C682000184B98471F2318401E3B65
S21400B9908340164A13602A68D369002BFCD12368BB
S21400B9A0022213432360124B98470120114B9847FD
S21400B9B0002011B030BD06204042FAE7D810002023
S21400B9C065F00000004400410B90010002000C00EE
S21400B9D002000D0002000F00001BB700001000421E
S21400B9E0DC100020C1F7000079F6000000E100E05E
S21400B9F051B8000039B80000F0B5DE4657464E464E
S21400BA004546E0B583B0032800D075E00E684D6863
S21400BA100C8900226B46DA71002D27D0002C65D0E9
S21400BA20002E00D177E00023984600239B46012293
S21400BA303B493C483C4B98473A4B9A4601270422E0
S21400BA40994659464B4259418B46307853461B68B7
S21400BA50197E3942FCD0197E3942FCD09862197E94
S21400BA601142FCD0494689798C4611E0002E3AD026
S21400BA70002C3ED00023984601339B466B46DD1DC6
S21400BA80D5E7604601280DD0986AC0B200290DD0CF
S21400BA90197E1142FCD0588B00211042F1D05A83F7
S21400BAA01E31EEE7986AC005C00DEFE72870013C2E
S21400BAB0A4B25D44434659424B41F618002CC4D10B
S21400BAC0184B196802220B7E1342FCD00022144940
S21400BAD01448154B9847002003B03CBC9046994646
S21400BAE0A246AB46F0BD0F204042F5E70F2040428D
S21400BAF0F2E70F204042EFE7832252000B490C4842
S21400BB000C4B98470C480D4B98470D200C4B98470C
S21400BB1001204042E0E7012398466B46DE1D84E79D
S21400BB20D8100020DC1000206DFA000010B40100D0
S21400BB3020B401006D91010034B401008992010027
S21400BB40A191010030B583B001AB00221A709A7043
S21400BB505A70134D2C682000124B98471F2318402C
S21400BB601E3B8340802210498B502A68D369002BE5
S21400BB70FCD18F33237523762368022293432360F8
S21400BB8001A90C20094CA04701A90F20A04701A934
S21400BB900D20A04701A90E20A047002003B030BD0D
S21400BBA0DC10002079F6000000E100E065F00000FF
S21400BBB0002A06D082180B780370013001319042BB
S21400BBC0F9D17047002A04D08218017001309042E3
S21400BBD0FBD1704703000278002A07D0002001300E
S21400BBE080B201331A78002AF9D170470020FCE7AA
S21400BBF0024AD3780133DBB2D370704718110020A5
S21400BC007047000000B583B000220A4B9A700120EE
S21400BC10094B984701A90948094B9847002801D0C5
S21400BC2003B000BD0221019B194301910348054B57
S21400BC309847F5E718110020D1B8000070100000F2
S21400BC4095D00000A1D0000010B50C4B9B780020CA
S21400BC50002B0DD1094B5B78002B03D1074B1B78CB
S21400BC60002B06D1054A53780133DBB2537000200F
S21400BC7010BD034B98470028F4D0F9E718110020B0
S21400BC807DCD0000054B5B78002B04D0034A53782B
S21400BC90013BDBB2537000207047C04618110020ED
S21400BCA010B50B4B5B78002B04D0094A5378013B48
S21400BCB0DBB25370064B5B780020002B03D1044B9D
S21400BCC01B78002B00D110BD024B9847FBE7C046FF
S21400BCD01811002015CD0000F0B5DE46574680B599
S21400BCE089B083468A460192009310AB80CB1E88AB
S21400BCF012AB1D8807AA7F230B4053701070002FCD
S21400BD0042D033000833EB185380724B07AA528890
S21400BD109A4200D9CDE0704B9847041E00D0BBE095
S21400BD200023059302AAD3800493049B5A461A4321
S21400BD300492049A53461B0213430493049A07ABD7
S21400BD405B881B041343049304996448644B984728
S21400BD50041E54D100230493049B0222134304932D
S21400BD60049960485E4B9847041E48D1002205920D
S21400BD7002ABDA8006331B889BB25B4A934246D8F6
S21400BD805A4C5B4B9A4614E0009B083307AA538034
S21400BD90BBE70120D047049B9B0728D502AB9A1D22
S21400BDA0DB8801339BB2138013889BB24E4A9342C2
S21400BDB02DD804A94B48A047002828D102AB06334B
S21400BDC01B889BB2F422FF329342E4D902AB0633BF
S21400BDD01B889BB201329342DBD84648464B9847B5
S21400BDE04648474B98470D20464B9847D1E705A94C
S21400BDF045483E4B9847041E09D000230593434B05
S21400BE009847200009B00CBC92469B46F0BD059BA7
S21400BE10002B3CD0059B06930698082207A93C4BAE
S21400BE209847041EEBD1069B08330693019B002B14
S21400BE300BD00698009A1900354B9847041EDED1A1
S21400BE40069B009A944663440693002F0ED0069BEA
S21400BE50009AAD1AED1806950698320039002C4B5C
S21400BE609847041ECBD1069BF3180693059B9B00B0
S21400BE700493049B02221343049304992548184B09
S21400BE809847041EBBD1244B98470400B9E7224BC1
S21400BE90984703246442B4E7CA2252001F49204848
S21400BEA0154B98471F48164B98470D20154B98473B
S21400BEB0A7E7CD225200194919480F4CA04707ABF7
S21400BEC05988044A1848A0470D200E4B984701246D
S21400BED0644296E73C06000049BC00008C10000057
S21400BEE0A1D0000078100000E703000095D0000005
S21400BEF039B80000C0B701006D910100CCB7010051
S21400BF0089920100A19101000004150085BC000083
S21400BF1015D100006C100000A1BC000068B4010040
S21400BF2020B40100DCB70100FCB70100F0B5DE4626
S21400BF3057464E46C0B586B00022D84B1A7100262A
S21400BF4099469A4648E1D54B059A9A605A46DA6071
S21400BF50042204A90598D24B984704006B465B8AD6
S21400BF609BB26A465382002834D104AB5B889BB2EE
S21400BF709B4505D004AB5B885A46D31A042B36DCA7
S21400BF8004AB1B78012B48D004AB1B78022B7BD06C
S21400BF9004AB1B78042B00D193E004AB1B78062B74
S21400BFA000D1ABE004AB1B78072B00D1C3E004AB99
S21400BFB01B78052B00D1DAE0BA4ABB49BB48BC4B1C
S21400BFC09847BC48BC4B98470D20BC4B9847062466
S21400BFD0644223E1EA225200B349B448B44B98477E
S21400BFE0B748B54B98470D20B44B984716E1EE225C
S21400BFF05200AD49AD48AE4CA04704A94A8892B25B
S21400C0000B78DBB2497800915946AE48A0470D2020
S21400C010AA4B98470624644200E1A04B1B69002BFC
S21400C02025D09E4B1B6904AA5078C0B25188059A49
S21400C0300832083989B29847984B9B78002B00D174
S21400C040CAE08522920098499848994CA04704ABCC
S21400C0501978C9B25A78D2B29B48A0470D20974BA0
S21400C06098479A4B9847041E00D0D7E0B4E0E822E1
S21400C070FF328D498D488E4B984795488E4B984792
S21400C0800D208E4B9847D7E7844B5B69002B0BD06F
S21400C090824B5B6904AA5078C0B25188059A083270
S21400C0A0083989B29847C7E7F72252007E497F4889
S21400C0B07F4B98478748804B98470D207F4B984783
S21400C0C0BAE7764B9B69002B0BD0744B9B6904AA8E
S21400C0D05078C0B25188059A0832083989B2984714
S21400C0E0AAE7F622FF3270497048714B98477A48A3
S21400C0F0714B98470D20714B98479DE7674B5B6ADD
S21400C100002B0BD0654B5B6A04AA5078C0B25188EE
S21400C110059A0832083989B298478DE7FE22520000
S21400C12061496248624B98476C48634B98470D20BC
S21400C130624B984780E7594BDB69002B0BD0574B77
S21400C140DB6904AA5078C0B25188059A08320839CB
S21400C15089B2984770E7624A53495448544B984707
S21400C1606048554B98470D20544B984764E74B4B17
S21400C1709B6A002B0BD0494B9B6A04AA5078C0B22E
S21400C1805188059A0832083989B2984754E7564AC2
S21400C19045494648464B98475448474B98470D20D4
S21400C1A0464B984748E7524A3F494048404B9847D5
S21400C1B05048414B98470D20404B98470224644214
S21400C1C02CE04D4A38493948394CA04703994B482A
S21400C1D0A0470D20394B98474B46DB78002B00D103
S21400C1E0B1E053461B79002B00D0ACE00020444C55
S21400C1F0A0472A4AD378013BDBB2D3700120A04780
S21400C2000425404F1AE0404A27492848284B9847BB
S21400C2103E48294B98470D20284B9847002D00D1C3
S21400C22084E03B4A3B492148214EB0472A00210082
S21400C2303948B0470D20214B9847013D03A93748A0
S21400C240B8470400061EDED10399CB07B9D50123F3
S21400C250994303913148324B9847041EDED10122A0
S21400C2600E4B9A70039B9B041B0D9B469BD0002392
S21400C270059305A92B48234B9847041E00D162E678
S21400C280CC22FF3208490948094B984726480A4BF2
S21400C29098470D20094B9847C0E7C0461811002064
S21400C2A0ADD000000E02000074B4010020B40100FE
S21400C2B06D910100F0B5010089920100A191010085
S21400C2C0CCB40100E4B4010008B6010005BC0000CF
S21400C2D024B5010044B5010068B5010088B5010029
S21400C2E003020000ACB501000A020000D0B5010050
S21400C2F01B02000034B601002302000048B601000D
S21400C300D1B8000095D000002B02000064B60100F2
S21400C3106A0200007CB40100D0B601007010000074
S21400C320A1D0000084100000A8B40100094A0A4900
S21400C3300A480B4DA84721000A48A8470D200A4B7B
S21400C3409847260048E7300006B01CBC91469A463F
S21400C350A346F0BD660200007CB4010020B40100D4
S21400C3606D91010088B60100A191010070B514001E
S21400C3701D00002803D0002901D0002A12D1002D6C
S21400C38002D0274B984770BD264A27492748284B96
S21400C39098472848284B98470D20284B98470C204C
S21400C3A04042F0E7264BDB689A421AD8244B9B683B
S21400C3B0984226D38618224A9368D2689B189E42D3
S21400C3C01FD822001F4B98470028DCD11C4A9368D0
S21400C3D0D2689B189E4201D0002DD4D0104B9847AF
S21400C3E0D1E7194A10491148114DA847144BDA688D
S21400C3F021001648A8470D20104B98470C204042B5
S21400C400C1E7134A08490948094B984711480A4B9F
S21400C41098470D20094B98470C204042B3E7C0468A
S21400C42005BC00008B0200008CB4010020B40100A3
S21400C4306D91010008B7010089920100A1910100E9
S21400C44018110020ADD000009302000028B70100AC
S21400C4509902000070B7010070B5040007281FD8C5
S21400C4608300164AD3589F46154B5961002070BD6D
S21400C470134B19610020FAE7114B99610020F6E78B
S21400C4800F4B19620020F2E70D4B59620020EEE7D1
S21400C4900B4BD9610020EAE7094B99620020E6E7DA
S21400C4A0084A094909480A4DA84721000948A847EB
S21400C4B00D20094B98470C204042D8E748B40100AD
S21400C4C018110020D102000098B4010020B4010029
S21400C4D06D910100B4B70100A191010010B52C22A6
S21400C4E000210648064B98470648074B98470749D9
S21400C4F00320074B9847002010BDC04618110020A7
S21400C500C5BB0000F1BB000079B8000001BC00000C
S21400C51059C4000030B59FB0040015002C282FD059
S21400C5201B283DD006284BD00E2827D0322857D0BF
S21400C5302F2865D0342800D177E0112800D196E066
S21400C540132800D1ACE0042800D1BBE0652800D158
S21400C550CAE0092800D1D9E02A2800D1E8E020283E
S21400C56000D1F7E02422FF3289498A488A4DA8473D
S21400C57021008A48A8470D20894B98471FB030BD38
S21400C5800023042203A92800864CA0470028F5D1E2
S21400C590854B1B68002BF1D003A92C309847EDE79C
S21400C5A00023082203A928007E4CA0470028E5D1D6
S21400C5B07D4B1B68002BE1D003A91B309847DDE7B5
S21400C5C00123302203A92800764CA0470028D5D1A5
S21400C5D0754B1B68002BD1D003A906309847CDE7D2
S21400C5E00023182203A928006E4CA0470028C5D1B6
S21400C5F06D4B1B68002BC1D003A932309847BDE7AE
S21400C6006422002103A8694B98470023642203A9EB
S21400C6102800644CA0470028B0D1634B1B68002B51
S21400C620ACD003A92F309847A8E70023042203A91B
S21400C63028005C4CA0470028A0D15D48564DA8476E
S21400C640039C230AFF200340220C0240210E2040B8
S21400C65000905848A8470D20514B9847524B1B68EE
S21400C660002B00D18AE700213420984786E7002275
S21400C670514B1A700023043203A92800494CA047E6
S21400C680002800D07AE703AB1A784C4B1A70464B5A
S21400C6901B68002B00D171E703A9113098476DE79E
S21400C6A000232C2203A928003E4CA047002800D0D7
S21400C6B064E73D4B1B68002B00D15FE703A91330EE
S21400C6C098475BE7002304221CA92800354CA047A6
S21400C6D0002800D052E7344B1B68002B00D14DE7F2
S21400C6E01CA90430984749E7002304221CA9280007
S21400C6F02C4CA047002800D040E72B4B1B68002B93
S21400C70000D13BE71CA96530984737E70123642230
S21400C71003A92800234CA047002800D02EE7224B70
S21400C7201B68002B00D129E703A90930984725E7A5
S21400C7300123042203A928001A4CA047002800D091
S21400C7401CE7194B1B68002B00D117E703A92A30FA
S21400C750984713E70023082203A92800114CA04796
S21400C760002800D00AE703AB9A8828000830012387
S21400C77003990C4CA047002800D0FFE60A4B1B6824
S21400C780002B00D1FAE603A920309847F6E6C0460B
S21400C79030B8010020B401006D91010080B801009E
S21400C7A0A19101006DC30000F4040020C5BB000089
S21400C7B0C0B7010060B80100F9040020F8040020AA
S21400C7C0F0B58FB001220F236B441A70002861D099
S21400C7D00268324B1A600022314B1A700F206844F0
S21400C7E0304B9847041E02D020000FB0F0BD00204A
S21400C7F02D4B9847041E49D12C4901202C4B9847B5
S21400C80004AE30002B4B984704002B482B4DA8470E
S21400C810B37972793179308C00902948A8470D2079
S21400C820284FB8472448A84726226A441A21694454
S21400C8302548A8470D20B8471F48A847737A327A7C
S21400C840F1792248A8470D20B8471B48A84704237B
S21400C850052213211E48A8470D20B8471648A847AA
S21400C8601C4A1D491D48A8470D20B84723000D3314
S21400C870BAD1E822FF321A491A48104B98471A488C
S21400C8801A4B98470D200F4B9847ADE70020184BE2
S21400C8909847A9E70C246442A6E7C046F4040020A3
S21400C8A0F904002061D20000DDC4000015C50000B8
S21400C8B059C400007DD10000C0B701006D91010091
S21400C8C03CB90100A191010064B9010080B90100E2
S21400C8D0A4B90100BCB90100C8B90100D4B901006F
S21400C8E03CB8010020B40100ECB9010089920100B7
S21400C8F035D3000010B5014B984710BD2DBF000082
S21400C900F0B5CE46474680B5A3B005900C0015009E
S21400C9101F002AAB1B8899462BAB1B789846012A2A
S21400C92003D0002F40D0022A4CD0631E1F2B00D904
S21400C93078E04B46013B9BB20D2B03D94B46FF2BB1
S21400C94000D07EE007AE220005995A2002AB9C4636
S21400C9506044794B98473419463400232370443397
S21400C9604A46F25243465A1E93416722B354412325
S21400C970F554032D00D172E0022D00D1ACE0042D59
S21400C98000D1C4E0012D00D0C7E00023029301933C
S21400C99000936C3307AA28210120684CA04723B0D7
S21400C9A00CBC90469946F0BD654A66496648674B9A
S21400C9B098476748674B98470D20674B98470C2069
S21400C9C04042ECE73800654B98474028ADD13B78AD
S21400C9D01A00303A362A17D80A3A062A14D9473B9C
S21400C9E0192B11D97A1C38004030137819003039C9
S21400C9F0362909D80A39062906D9473B192B03D9FF
S21400CA0001328242F1D190E7554A4E494E484F4B8B
S21400CA10984754484F4B98470D204F4B98470C204B
S21400CA204042BCE78C22920046494748474B98470D
S21400CA304D48484B98470D20474B98470C2040429E
S21400CA40ADE74A4A3F494048404B98474848414B23
S21400CA5098470D20404B98470C2040429FE73B7874
S21400CA60013BDBB207AA1370032B17D87A78511E46
S21400CA7007AB59701023110099430B291ED03D4A6D
S21400CA8030493148314CA04707AB59783A48A0475F
S21400CA900D20314B98470C20404280E794229200AC
S21400CAA028492948294CA04707AB19783348A0479E
S21400CAB00D20294B98470C20404270E7B91C1620E1
S21400CAC002AB9C4660441C4B98477B7807AA94466A
S21400CAD0634400229A7058E73800204B9847431E5C
S21400CAE09BB23F2B05D8421C390007A8124B98472B
S21400CAF04BE7234A13491448144B98472148154BD3
S21400CB0098470D20144B98470C20404247E73E229A
S21400CB10390007A8084B984737E71B4A09490A48CF
S21400CB200A4B984719480B4B98470D200A4B9847D5
S21400CB300C20404233E7C046B1BB0000D9BC000021
S21400CB401A0200004CB8010020B401006D910100EB
S21400CB5094B8010089920100A1910100D5BB0000A4
S21400CB6026020000A8B80100B4B80100390200008F
S21400CB70C8B8010057020000F0B80100D4B80100A0
S21400CB80660200000CB901007602000028B9010018
S21400CB9030B583B006AC2488002501950094024C7D
S21400CBA0A04703B030BDC04601C900000020704752
S21400CBB0F0B583B080256D000543A5246401084FB9
S21400CBC0084E29002000B8470023019301A9200041
S21400CBD0B0470028F5D1019B9D42F2D103B0F0BDCD
S21400CBE0A1D0000095D0000000B583B000230193CB
S21400CBF001A91148114B9847002801D003B000BD89
S21400CC0080214900019B194301910B480C4B984722
S21400CC100028F3D101A9D0204001084B98470028EE
S21400CC20ECD180214902019B19430191D02040019B
S21400CC30034B9847E2E7C0460814000095D0000072
S21400CC40A1D0000010B582B0284B1C68002C04D080
S21400CC50264B1C68200002B010BD19008020400141
S21400CC60234B9847002803D00022204B1A60F1E798
S21400CC7001A920481E4B9847002803D000221B4BD2
S21400CC801A60E7E7194B1B681B4A93420ED01B4AF3
S21400CC90934212D01A4A93421CD01449194A0B6880
S21400CCA01A40A023DB0213430B60D1E7019B012B44
S21400CCB0F3D0154A0D4B1A60EFE7019B032BECD01F
S21400CCC0042B03D0114A094B1A60E6E7104A074BBB
S21400CCD01A60E2E70549EC208003054B98470028D8
S21400CCE0DBD00022014B1A60B4E7C046FC040020EB
S21400CCF095D00000F4130000A0021000B00210004F
S21400CD00F0001000FFFFF0FFA1021000B2021000BA
S21400CD10B102100030B583B0164C012501A91020D1
S21400CD20A04700281CD1019B2B42F7D101A9013056
S21400CD30104B9847002813D101998B0707D502237B
S21400CD409943019101300C4B9847002808D101A95E
S21400CD500B20084B9847002802D10199CB0701D435
S21400CD6003B030BD0123994301910B30024B984725
S21400CD70F6E7C04695D00000A1D00000F0B583B01D
S21400CD8000230193009301A90B20284B9847041E0B
S21400CD9030D10199CB0706D4012319430B20244B2D
S21400CDA09847041E26D101A90120204B9847041E4F
S21400CDB020D101998B0720D505251C4F1D4E6946AD
S21400CDC00F20B847041E20D1009B5B072BD40220FF
S21400CDD0B047013D002DF2D1AD225200164917484A
S21400CDE0174B98471748184B98470D20174B9847EE
S21400CDF004246442200003B0F0BD0223194301203E
S21400CE000B4B9847041ED7D0F4E7A82252000A49D5
S21400CE100A480B4DA847009A21000D48A8470D2048
S21400CE200A4B9847E6E70B4B9847E3E795D0000098
S21400CE30A1D0000039B8000008BA010020B40100F3
S21400CE406D91010050BA010089920100A191010084
S21400CE5038BA01007DD00000F8B507002D4D2E4CE5
S21400CE602E4E2800A047002802DB0120B047F8E736
S21400CE702B48294B9847C30709D4284E294C264DE2
S21400CE800120B0472000A847274B9842F8D1022F30
S21400CE9021D0032F29D0042F30D024492448254BF5
S21400CEA098470024244B98470005000D234B9842D2
S21400CEB02AD82000224B98472248234CA0471B49DB
S21400CEC02248A0470D20224B984722491548194B67
S21400CED098470020F8BD20492048164CA0478021DE
S21400CEE049031348A0470024DCE71B491B48114CA4
S21400CEF0A04700210E48A0470024D3E70B490C4862
S21400CF000C4B98478024CDE7022020430C4B9847D3
S21400CF10D2E7C0461410000089D0000039B80000DF
S21400CF20BC0702000C000C009ED0AD10541330134A
S21400CF308C100000A1D0000045CC00009F0300002C
S21400CF40B1CB0000C0B701006D9101006CBA0100C2
S21400CF50A1910100612F52EF7DD51C3CAC07020069
S21400CF6070B582B0154B0193154B0093023801281B
S21400CF7011D9012464420020124E134D009B9842A2
S21400CF800ED00220B0470198A847013C002CF5D1EE
S21400CF900520404209E00D4B01930D4B0093E8E756
S21400CFA0009A074B00209A4201D002B070BD0021C3
S21400CFB00248084B98470020F7E7C0468C10000050
S21400CFC03626530239B8000089D00000AC070200AC
S21400CFD0C3C15DD7A1D0000010B582B00023019375
S21400CFE001A9A0204001144B9847041E15D11349EF
S21400CFF0019B19400191A0204001114B9847041E47
S21400D00016D0104A10491148114B98471148124B38
S21400D01098470D20114B98470AE0114A0A490B48D9
S21400D0200B4B98470B480C4B98470D200B4B9847DB
S21400D030200002B010BDC04695D00000FFFBFFFFE9
S21400D040A1D000000702000014BA010020B40100BD
S21400D0506D91010020BA010089920100A1910100A2
S21400D0600102000010B5014B984710BDF5B800004E
S21400D07010B5014B984710BD45BB000010B5014BDD
S21400D080984710BD25DA000010B5014B984710BD33
S21400D0905DDA000010B5014B984710BD71DA00004C
S21400D0A010B5014B984710BD89DA0000F0B5D6469A
S21400D0B04F464646C0B582B0804689461500134B9B
S21400D0C01F88083FBBB201931E0004009A421AD97B
S21400D0D00F4B9A46371A4346E11A4944019A2000F4
S21400D0E0D047002809D1AD1B3919A419B542F2D88A
S21400D0F0AAB249442000064B984702B01CBC904692
S21400D1009946A246F0BD0021F2E7C0461000002076
S21400D110C9DB0000F0B5D6464F464646C0B582B0DD
S21400D120804689461500134B1F88083FBBB2019303
S21400D1301E0004009A421AD90F4B9A46371A4346E5
S21400D140E11A4944019A2000D047002809D1AD1BB6
S21400D1503919A419B542F2D8AAB249442000064BA0
S21400D160984702B01CBC90469946A246F0BD0021E6
S21400D170F2E7C0461000002025DD000070B584B040
S21400D1800400002303930822002101A82D4B984792
S21400D190002C44D02822002120002B4B984703A9BE
S21400D1A02A482B4B984700283AD1039B002B39D0AE
S21400D1B0C02080021843082201A9264B9847002861
S21400D1C02ED1029B1804000C03902ED0C0239B0285
S21400D1D01843282221001F4B9847002820D1217988
S21400D1E00902A2790F231A400A4361790901FF2533
S21400D1F029400A43E1790902667A33400B43217AD3
S21400D20009010D402B43002A12D0002B13D01249DF
S21400D2108B4213D8114B9A4202D80D3800E00020FA
S21400D22004B070BD0C204042FAE70C204042F7E7FD
S21400D2300C204042F4E70C204042F1E70D2040422B
S21400D240EEE7C0460B900100C5BB000008000C00CE
S21400D25095D00000ADD0000054130000531300001A
S21400D26070B5002837D005786B1E032B00D9012532
S21400D2700020204B9847041E2FD11F481F4CA04764
S21400D2801F4B984701001F48A0470D201E4B98478C
S21400D2901E4B984728001E4B9847041E17D128009F
S21400D2A01C4B9847041E12D1023D012D11D91A4B72
S21400D2B09847041E0DD0A7225200184918480F4B55
S21400D2C098471848184B98470D200F4B9847174B10
S21400D2D09847200070BD0125CAE7902252000F49EA
S21400D2E00F48064B984712480F4B98470D20064BA1
S21400D2F09847EEE765D00000C0B701006D910100C9
S21400D30045CC00003CBB0100A1910100A1DA000061
S21400D31059CE000061CF0000E9CB000084BA0100BE
S21400D32020B4010000BB01008992010071D000000A
S21400D33020BB010010B51C4B9847041E0BD10020E3
S21400D3401A4B9847041E14D1194B9847041E1DD13A
S21400D350184B98470BE06622FF3217491748184BC0
S21400D36098471848184B98470D20184B98472000A8
S21400D37010BDB622520010491048114B9847144869
S21400D380114B98470D20114B9847F0E7B9225200F1
S21400D39009490A480A4B98470E480B4B98470D20F8
S21400D3A00A4B9847E3E7C046D9CF000001E90000E2
S21400D3B071D000004DDA000090BA010020B40100E0
S21400D3C06D910100A0BA010089920100A1910100AF
S21400D3D0C0BA0100E4BA010000B585B001AB019007
S21400D3E000220292198119000320024B984705B0CB
S21400D3F000BDC046F9B9000070B584B008AC257809
S21400D40001AC20703F30C4B20E2C00D984E0A000DE
S21400D4104F4C2058874601AB0A0C5A700A0A9A707D
S21400D420D97005214B4B1B78002B77D00139C9B238
S21400D43083E00B0ADBB2002D07D101AA537001ABC3
S21400D44099700022DA700521ECE7802252421343DD
S21400D45001AA5370F3E701AB00225A709A70DA7093
S21400D4600521DFE701AB00225A709A70DA700521B9
S21400D470D8E701ABFF225A709A70DA700521D1E71F
S21400D48001AA080C5070080A9070D170190A117120
S21400D49053710721C6E701AA080C5070080A90705D
S21400D4A0D170190C1171190A517193710821B9E7DD
S21400D4B00B0ADBB2002D0CD101A8437001AB9970AA
S21400D4C0110ED970110C1971110A59719A7108212F
S21400D4D0A8E780204042034301A84370EEE701AB73
S21400D4E0080C5870080A9870D970110E1971110C32
S21400D4F05971110A9971DA71092193E79022520045
S21400D50015491648164B98471648174B98470D204E
S21400D510164B9847002317E0002315E04E1E01AA7D
S21400D52095197F23124C5B0010784340E35C013270
S21400D530AA42F8D15B0001AA935589B201A80D4B07
S21400D540984701230028D9D1180004B070BDC04602
S21400D5504CBB0100000500208CBB010020B401007C
S21400D5606D9101001CC0010089920100A19101008B
S21400D57018BC0100D9D3000000B585B001AB00226D
S21400D58001920290198119000320024B984705B0BA
S21400D59000BDC046F9B90000F0B5C64600B582B079
S21400D5A00700CF282BD003003B33DBB2012B26D954
S21400D5B00B246B46DE1D264B984601213000C047E3
S21400D5C0051E25D13378BB4230D0013CE4B2002C96
S21400D5D0F3D10B346B46DE1D1D4F01213000B847DA
S21400D5E0002825D13378002B2FD0013CE4B2002C44
S21400D5F0F3D10125280002B004BC9046F0BD0121FD
S21400D6006B46D81D124B984700250028D0D0F1E76E
S21400D6105C22FF320F491048104B98471048114BB8
S21400D62098470D20104B98470025E3E70B24D1E7D9
S21400D6306A22FF3207490848084B98470848094BB2
S21400D64098470D20084B9847D4E70125D2E7C046F7
S21400D65079D50000A4BB010020B401006D91010043
S21400D66048C0010089920100A1910100F0B5DE4694
S21400D67057464E464546E0B587B001908946029229
S21400D68000239A4680239B019B466A46D3813C4BE7
S21400D69098462FE0BE2292003A493B483B4B9847BB
S21400D6A03B483C4B98470D203B4B984700252800AD
S21400D6B007B03CBC90469946A246AB46F0BD002C4F
S21400D6C02EDD019B5344180039002D4B9847041E4D
S21400D6D034D1029B002B03D1304B1B78002B39D062
S21400D6E05346FB181BB29A464B46DF1BBBB2994605
S21400D6F0002B43D04F46D94501D96B46DF89BFB2D0
S21400D7000A2404ABDE1C01213000C047051EC1D12F
S21400D71033781B090F2BD2D0013C24B2631CF2D104
S21400D720C122920017491848184CA04704ABD97874
S21400D7301B48A0470D20184B9847B8E7194A1149CF
S21400D7401148124B98471848124B98470D20124B19
S21400D7509847ACE7022105A8094B98470028BFD098
S21400D760C622920007490848084B98470F48094BBD
S21400D77098470D20084B9847250098E7012596E71F
S21400D78079D50000B0BB010020B401006D91010006
S21400D7907CC0010089920100A191010000050020D3
S21400D7A0B0C001000D030000E0C0010010C1010080
S21400D7B0F0B5D6464F464646C0B586B003900491AF
S21400D7C030280FD8304B1F78FBB205930023302249
S21400D7D003998A425B41DBB29A460A252B4B984650
S21400D7E0D14633E02A4B1F78EEE70598294B984739
S21400D7F00400012841D0284A28492948294EB04724
S21400D80003992948B0470D20284B98470120284EF9
S21400D810B0470023009300220021CF201B4FB847BB
S21400D820CF201C4B9847EA2292001C491C481D4FEB
S21400D830B847049B039A29001E48B8470D201B4B87
S21400D84098470120B047013D002D16D04B46009367
S21400D8500423049A039F39000598C0470400012852
S21400D860C3D0154A0D490E480E4EB047390013482E
S21400D870B0470D200D4B9847C8E7200006B01CBCEB
S21400D88090469946A246F0BD88BB0100F9D3000039
S21400D89089BB010099D5000095030000D0BB0100AC
S21400D8A020B401006D91010008C20100A1910100A1
S21400D8B039B8000040C201008F030000DCC101003F
S21400D8C0F0B5DE4657464E464546E0B587B0029070
S21400D8D08B46FF280FD8414B1F78FBB203930023DB
S21400D8E0FF2202998A425B41DBB29A460A253C4BEC
S21400D8F09846D14631E03B4B1F78EEE703983A4B0B
S21400D90098470400012840D0384A394939483A4EE9
S21400D910B04702993948B0470D20394B9847012047
S21400D920384EB0470023009300220021CF202C4F12
S21400D930B847CF202C4B9847334A2D492D482E4FB9
S21400D940B847029A29003148B8470D202C4B984713
S21400D9500120B047013D002D38D04B4600930423EC
S21400D9600022029F39000398C04704000128C5D052
S21400D9708222D2001E491F481F4EB0473900244855
S21400D980B0470D201E4B9847C9E74A46042105A814
S21400D990204B9847040001280BD01F4A144915480D
S21400D9A0154B98471D481E4B98470D20144B98471B
S21400D9B0B5E705AA53781B02917809040B43117842
S21400D9C00B43D278120613435A461360200007B062
S21400D9D03CBC90469946A246AB46F0BD8ABB0100C9
S21400D9E0F9D300008BBB010099D500001604000097
S21400D9F0F0BB010020B401006D91010070C1010070
S21400DA00A191010039B8000035040000C4C101002E
S21400DA1044C101006DD600001D040000A4C1010031
S21400DA208992010010B582B00023009300220021E5
S21400DA30CF20044CA047CF20034B9847002002B0CD
S21400DA4010BDC046F9D3000099D500000022024B55
S21400DA501A7000207047C0460005002000B583B04D
S21400DA6001A9024B9847019803B000BDC1D8000039
S21400DA7010B5044B98470023012801D1180010BDAB
S21400DA80063BFBE7C1D8000010B5044B98470023BF
S21400DA90012801D1180010BD063BFBE7B1D70000F6
S21400DAA010B582B000230093354A13706946354896
S21400DAB0354B9847002828D0314B1B78002B0DD1CA
S21400DAC07C33009999432C3B194300912D482F4BEA
S21400DAD09847041E3AD00122294B1A7001A98020CB
S21400DAE04001294B984700283CD0264C2000284B64
S21400DAF09847702301009943502001432000254B8E
S21400DB0098470024200002B010BD01221C4B1A705A
S21400DB109822D20020492148214B98472148224B81
S21400DB2098470D20214B984769461648164B98474C
S21400DB30041EC1D11E4A18491848194B98471D485B
S21400DB40194B98470D20194B9847DBE71A4A12499C
S21400DB501248134B98471948134B98470D20134B00
S21400DB609847CFE7164A0C490C480D4B984715487E
S21400DB700D4B98470D200D4B984706246442C1E78D
S21400DB800005002024E80000C1D80000B1D700003E
S21400DB905DDA000089DA00000CBC010020B4010048
S21400DBA06D91010018BD010089920100A19101004C
S21400DBB0C304000068BD0100CD04000094BD010050
S21400DBC0D7040000C8BD0100F0B5DE4657464E46F5
S21400DBD04546E0B587B00290039116000A2500235B
S21400DBE09B4600243E4B9846A94637E001239B46B9
S21400DBF0013635E0C8203B4B9847012845D03A4AC5
S21400DC003A493B483B4FB84702993B48B8470D2036
S21400DC103A4B984701203A4FB84700942300220019
S21400DC202100CF202E4DA847CF202E4B9847354AAF
S21400DC302E492F482F4B9A4698473300029A49465A
S21400DC403148D0470D202D4B98470120B847012377
S21400DC505B429C46E1444B46002B38D0012EC5D093
S21400DC60009433002200029D2900C820C0470128E6
S21400DC70C0D0264A1D491E481E4FB84729002448D2
S21400DC80B8470D201D4B9847C4E75B46002B16D0BF
S21400DC9005AF2200310038001E4B98473B78039AA8
S21400DCA01370012811D01C4A10491148114B98478F
S21400DCB01A481B4B98470D20104B9847AAE722009E
S21400DCC031000398134B9847EBE7002001E006204D
S21400DCD0404207B03CBC90469946A246AB46F0BDD3
S21400DCE0F9D3000099D500005C04000000BC0100D8
S21400DCF020B401006D9101001CBE0100A19101003D
S21400DD0039B800007D0400007CBE01005604000007
S21400DD10ECBD01006DD600006C04000054BE01008E
S21400DD2089920100F0B5DE46474680B589B004907A
S21400DD308B4603920A268027BF016B46DF8235009A
S21400DD402DE0013303932DE0824A83498348844CB7
S21400DD50A04731008348A0470D20834B98470120F9
S21400DD60824CA0470023009300220021CF20804E43
S21400DD70B047CF207F4B98477F4A77497748784E01
S21400DD80B047039B049A29007C48B0470D20764B89
S21400DD9098470120A047013D002D00D1D2E0039B0B
S21400DDA0012BCED000230093039B0022049E31005B
S21400DDB0C7206F4CA0470128C6D1C7206D4B984797
S21400DDC001280BD06E4A64496448654CA047049904
S21400DDD06C48A0470D20644B9847C0E7002207AB6D
S21400DDE01A80039C0026A8463500260021E0002362
S21400DDF0B7425B4102330B2004AA944660441022CB
S21400DE0052421343037001215F4B984700281DD1EF
S21400DE105B46581921005C4B984700282ED15B4B77
S21400DE201B78002B37D065192DB2361BB6B2002EE4
S21400DE3052D0341CBE4201D96B46DC8AA4B2002DF7
S21400DE40D5D10323BE42D6D9023BD4E74546504A35
S21400DE5050494248424B98474F48504B98470D20F0
S21400DE60414B98474E4A3C493C483D4B98474D48A5
S21400DE704A4B98470D203C4B984770E745464A4A20
S21400DE8044493648364B98474848444B98470D20F7
S21400DE90354B9847E6E7022107A83B4B98470028F2
S21400DEA0C1D04546D72292003A492C482C4B984779
S21400DEB03F483A4B98470D202B4B9847D2E79A227B
S21400DEC052003C492548264B98473B48334B9847D9
S21400DED00D20254B984727E045462C4B1C78631EA3
S21400DEE09C410234A1B207A8344B98470028E6D1DB
S21400DEF008AB1B19053B1B78002B06D108AB9C46CC
S21400DF006444063C2378C32B1AD03C22FF322949AE
S21400DF101248134CA04707A98B784A7809782848F6
S21400DF20A0470D20104B9847264A0B490B480C4B30
S21400DF3098471C48194B98470D200B4B98470EE7FF
S21400DF40002001E00620404209B00CBC90469B46EB
S21400DF50F0BDC046C3030000E0BB010020B40100D2
S21400DF606D91010098BE0100A191010039B8000032
S21400DF70F9D3000099D50000EB0300007CBE010039
S21400DF80C9030000C8BE0100D9D300000005002068
S21400DF9049030000C0BB010000BF010089920100D8
S21400DFA0D9030000F4BF01005203000038BF01008F
S21400DFB06CBF010094BB0100A4BF010079D500002E
S21400DFC0C4BF0100E1030000F0B5DE4657464E46EA
S21400DFD04546E0B585B001900E0002921D000EABDE
S21400DFE01C88002C64D0030135495B58002B5FD099
S21400DFF00101334B5B189B889BB2002B58D0304BEB
S21400E0005B189B7A012B53D1F4802D4B9B468B4497
S21400E0105B460A229046D8448A460095039315E04C
S21400E020250001231CE00133002200210020254C9E
S21400E030A0473DE02448254DA84721002448A8478E
S21400E0400D20244B984733E0002C31D05B469B884C
S21400E050E31A1BB2002BE3DD039B9D88ADB20023C1
S21400E060174A514689582A000098164FB847002884
S21400E070E0D1134B5246D3583360B580F3885B1B10
S21400E080F380154B1B68002B05D0134B1B68320022
S21400E090029901989847641BA4B2009B9C46AC4426
S21400E0A06346009343461B78002BCDD1002CBAD193
S21400E0B005B03CBC90469946A246AB46F0BDC0466D
S21400E0C0481100206DC30000C0B701006D9101002B
S21400E0D05CC20100A1910100F8110020F0B5D646FF
S21400E0E04F464646C0B59AB00D001400412839D0B8
S21400E0F0542837D0422853D043286AD0442800D129
S21400E100AFE04B2800D1ACE04A2800D1CFE046284B
S21400E11000D1E5E0482800D10EE14D2800D1DCE032
S21400E120452800D12CE1472800D14DE107254C2891
S21400E13000D126E152282DD10123142209A920005E
S21400E140A24CA047002825D1A14B0A9A1A601B684A
S21400E150002B1FD09E4B1C6809AB1A7C0B990998A4
S21400E160A04717E00023042209A92000974CA047E7
S21400E17000280FD109AB5A7805AB1A70954B1B686F
S21400E180002B07D0934B1B6809AA0020105605AA3F
S21400E190012198471AB01CBC90469946A246F0BD8D
S21400E1A00023042209A92000884CA0470028F1D1AA
S21400E1B009AB5A7805AB1A70864B1B68002BE9D062
S21400E1C0844B1B6809AA0020105605AA022198470E
S21400E1D0E0E700230C2205A920007C4CA04700287D
S21400E1E0D8D105AB09229A56002A24DB180008214C
S21400E1F05956794B09015918C97AC9B214011B1925
S21400E200D972012199724189083989B219817349F5
S21400E2100B8801339BB20B800B889BB2002B03D17B
S21400E2200B8801339BB20B806C4B198889B21001A6
S21400E230694B1B18D98009AB1A7002229A8005AA6E
S21400E2405188D980069A0B92624B1B68002BA1D08E
S21400E250604B1B6805AA0820105609AA0421984797
S21400E26098E70023042209A92000584CA04700285C
S21400E27000D08FE709AB0020185605AA10705B780F
S21400E2805BB25370002B07D109AB5B88083B9BB28F
S21400E2900101514A521813814E4B1B68002B00D1C6
S21400E2A078E74C4B1B6805AA0521984772E70023C0
S21400E2B0442209A92000454CA047002800D069E761
S21400E2C0474B1B68002B00D164E7454B1B68199A27
S21400E2D00392110009A898475CE706239A4601E0D6
S21400E2E006239A460023102205A92000374FB84778
S21400E2F0002800D04EE705AA0C201056D389070147
S21400E3003549C91900270F730826975FB8465789FD
S21400E310B94609AF56887E81069A0C92CA8892B290
S21400E32093420CD0102D00D834E7012300220021A0
S21400E3300020264CA0472DE709239A46D2E74346FD
S21400E340002B01DDA8450FDB09AB42469A8000236F
S21400E3500993204B1B68002B00D11BE71D4B1B6845
S21400E36009AA5146984715E723004B44424669469A
S21400E3708A818A890092524639001A4CA04709E7DA
S21400E38007250023082209A92000104CA0470028D2
S21400E39000D0FFE609AB002018569A88598805ABCE
S21400E3A0198001010C4B5B18DB889BB29A4200D0A7
S21400E3B0F0E6084B1B68002B00D1EBE6054B1B680C
S21400E3C005AA29009847E5E60825DAE76DC30000A8
S21400E3D0FC110020F8110020481100200205002042
S21400E3E000120020C9DF000010B50A4B1B78002B76
S21400E3F000D010BDB02200210748084B98470849B6
S21400E4000220084B98470122024B1A700022064B46
S21400E4101A80EEE70105002048110020C5BB000069
S21400E420DDE0000059C400000205002010B5B0224F
S21400E43000210748074B984700210220064B9847C3
S21400E4400023064A1360064A1360064A137010BD7E
S21400E45048110020C5BB000059C40000F811002078
S21400E4600012002001050020024B1860024B1960C4
S21400E4707047C046F811002000120020F0B5D646BE
S21400E480474680B589B00592022800D09CE0012955
S21400E4900AD0022900D170E001256D42280009B09B
S21400E4A00CBC90469A46F0BD494C2778FFB22678B9
S21400E4B0F6B2207801300631464B9847C9B2217033
S21400E4C03201454B9B189B7A0625002B18D0404EF0
S21400E4D0404B9A46404B98463778FFB23478E4B2C1
S21400E4E0307801300721D047C9B231702301434448
S21400E4F09B7A002B07D0013DEDB2002DECD1CBE787
S21400E500354BD41802E02401334BE4187DB2002DBD
S21400E510C4DB102200212000304B98470123A37251
S21400E5202F4A138801339BB2138013889BB2002BAB
S21400E53003D1138801339BB21380294E33889BB2D4
S21400E540E3802848284FB847328892B229002748E7
S21400E550B8470D20264B9847059BDB079ED507AA94
S21400E56015702123E3720023029301930093043372
S21400E570502102201F4CA04790E71F4B1D78EDB29C
S21400E5801C7824011D4AA4181978013103220A4078
S21400E5901A70A37A002B14D003221749174F0320B2
S21400E5A00D78EDB20C782401E4190B7801330340A2
S21400E5B00B70A37A002B04D0013AD2B2002AEFD116
S21400E5C06AE707356DB2A2E701256D4266E7C046E9
S21400E5D004050020F572010048110020C5BB0000AC
S21400E5E002050020C0B701006D91010088C201003D
S21400E5F0A1910100D9BC000005050020B81100203B
S21400E60070B588B0041E30DB002931D000011D4BE8
S21400E6101B189B7A012B2ED1002A2FD0194B1B18C2
S21400E620DB7A4426DB0705D5164B1B18DA7A05ABD2
S21400E6305A72073605AD2C7208222800124B9847EE
S21400E6402401104B1C19E3886B810023029301936D
S21400E65000930C332A00310002200C4CA0470028FF
S21400E66001D00920404208B070BD06204042FAE7BB
S21400E67006204042F7E706204042F4E706204042E4
S21400E680F1E7C04648110020B1BB0000D9BC00002D
S21400E69030B589B0002836DB002937D0AF23DB0041
S21400E6A09A4236D804011E4B1B199B7A012B33D194
S21400E6B004AB18705A802500194C6419E4889C81B4
S21400E6C05025062800DD0C3D0401154B1B19DC7A8D
S21400E6D04523E40705D50001114B18180589ADB28E
S21400E6E04C2380201843029501920091102304AA1F
S21400E6F0010002200B4CA0470023002800D00E3B50
S21400E700180009B030BD06235B42F9E706235B42DA
S21400E710F6E706235B42F3E706235B42F0E7C046D4
S21400E72048110020D9BC000030B587B0002834DB83
S21400E730002935D0002A36D005011E4C6419A47A6B
S21400E740012C33D11B4C29516419A280217B002255
S21400E75000291DD101212173E27A4531D20700D567
S21400E7600731002B17D1013B049304AA1071000156
S21400E770104B1818C388D38000230293019300938C
S21400E780083302200C4CA0470022002800D00E3A86
S21400E790100007B030BD0493E7E706225242F7E7C1
S21400E7A006225242F4E706225242F1E7062252427D
S21400E7B0EEE7C04648110020D9BC000030B587B04F
S21400E7C004001E481E4DA84721001E48A8470D20DD
S21400E7D01D4B9847002C2ADB22011C4B9B189B7A6A
S21400E7E0012B27D105A90C70184B9B18DA884A8094
S21400E7F000229A72DA80DB7A4921DB0700D50531E0
S21400E8000023029301930093043305AA0220104DBF
S21400E810A847051E01D009256D4224010B48201883
S21400E820102200210B4B9847280007B030BD062564
S21400E8306D42F9E706256D42F6E7C046C0B701000F
S21400E8406D91010070C20100A191010048110020E5
S21400E850D9BC0000C5BB000070B582B00023019390
S21400E860002600210278441C05300B0009E09D00BC
S21400E8705B195B009B18DBB222000134A0420AD071
S21400E88012782E2A0AD0002A0CD0303AD2B2092AA0
S21400E890EDD9002000E0002002B070BD6A46B354F7
S21400E8A0200002E06A46B35420000136042ED9D177
S21400E8B00422694601A8024B98470198ECE7C04637
S21400E8C0B1BB000010B584B004000B4B9847C3B230
S21400E8D0402B0DD8FF230340013300220292019201
S21400E8E0009222004A210220044CA04704B010BD2A
S21400E8F006204042FAE7C046D5BB0000D9BC00005F
S21400E90070B582B004002A4B98470005000D294BCD
S21400E9100025984202D8280002B070BD01A92648FA
S21400E920264B9847051EF6D1254B019A13402549DC
S21400E930194301912048244B9847002C20D00021F1
S21400E9402248214CA047AB212148A047012121485D
S21400E950A04700212048A04781212048A047204EFC
S21400E960204C3000A0470128FBD1154B019A1340DC
S21400E97080214902194301910F48134B9847CAE773
S21400E98000211248104CA047B9211148A047012188
S21400E9901048A04700211048A04781210F48A047F3
S21400E9A00F4E104C3000A0470128FBD1DDE7C046D3
S21400E9B045CC00009F0300001014000095D0000016
S21400E9C0FF8F88F800101101A1D000000802010096
S21400E9D00C020100140201001C02010004020100E6
S21400E9E01802010089D00000F0B5C64600B5032322
S21400E9F007009F431368DB430C00032902D94442F7
S21400EA0003200440002C16D0091B3E1D3D68E00084
S21400EA1040422030C5406B40E00019D00124274D0D
S21400EA2003E05B080138002804D01C42F9D05B08DC
S21400EA306B40F7E7370003200C0084431ED0081B0A
S21400EA408446890888463E000D0001201B4C0BE0DA
S21400EA503700F0E75B080139002904D01842F9D0E6
S21400EA605B086340F7E70436013D03D331684B404B
S21400EA702021F3E7414689007F186146002917D018
S21400EA803C68C8004042203001256D42C540280041
S21400EA9020404340C9000BD00120084C03E05B082F
S21400EAA00139002904D01842F9D05B086340F7E723
S21400EAB0DB431360002004BC9046F0BD2083B8ED15
S21400EAC010B50123002801D0180010BD014B98474F
S21400EAD00300F9E731AF000010B50123002801D08C
S21400EAE0180010BD0800024B98470300F8E7C04620
S21400EAF061AF000043425841C0B2704710B50123D1
S21400EB00002801D0180010BD014B98470300F9E714
S21400EB1071AF000010B50C000123002801D01800CA
S21400EB2010BD11002000024B98470300F7E7C046CF
S21400EB30C5AF000010B50C000123002801D0180056
S21400EB4010BD11002000024B98470300F7E7C046AF
S21400EB501DB000000C4B1B68002B06D1EFF3108392
S21400EB60002B07D00022094B1A70074A136801339E
S21400EB701360704772B6BFF35F8F0022044B1A70A3
S21400EB800132024B1A70F0E7080500200C05002041
S21400EB9012000020084B1A68013A1A601B68002B06
S21400EBA009D1064B1B78002B05D00122044B1A70A6
S21400EBB0BFF35F8F62B67047080500200C05002083
S21400EBC012000020F0B583B001AC01256570002767
S21400EBD0A770257021001720064EB0478022120429
S21400EBE0054B9A612770657021003720B04703B047
S21400EBF0F0BDC04665F00000004400411723002A1F
S21400EC0001D0180070478B00064A9B58002B03D093
S21400EC10834205D01D23F4E7890088500023F0E7DF
S21400EC200023EEE7081200201723002901D0180061
S21400EC30704700221F2800D8024A01238340D36071
S21400EC400023F4E7001800401723002901D018001D
S21400EC50704700221F2800D8024A01238340936091
S21400EC600023F4E70018004070B50022104B1A701D
S21400EC70002310491F25104E0D4C0AE00D4908E0F0
S21400EC8023780133DBB223700F2B10D800211F2B03
S21400EC90F4D9280018400122824008691042EFD0BB
S21400ECA00A619B009B59002BEAD09847E8E770BDA5
S21400ECB0041200200018004008120020044A1378AE
S21400ECC002210B43137053785BB2002BFBDB7047BB
S21400ECD00018004000B583B0124A936940210B43E8
S21400ECE0936101A900230B7005200F4B9847052060
S21400ECF00E4B98470E4A137801210B431370537836
S21400ED005BB2002BFBDB0B4B19004031002204C327
S21400ED109942FCD11022084B1A60084B984703B062
S21400ED2000BDC04600040040B90901002D090100DD
S21400ED30001800400812002000E100E0BDEC0000D2
S21400ED400023036043600122027242728372023320
S21400ED50C3727047F0B583B005000C0001A900230C
S21400ED604B70CB7023790B70237A8B702078154B01
S21400ED70984700201F2D00D8134807222A409200EB
S21400ED80E77AA37A002B01D008231F43EB089B00E9
S21400ED90C31899690F269640B14397403A000A4334
S21400EDA09A61637A002B06D143690122AA409343F5
S21400EDB0436103B0F0BD42690123AB401343436196
S21400EDC0F7E7C046B10A01000018004010B51E4A19
S21400EDD0D36904210B43D3611C4B2022FF321A83D4
S21400EDE01A7D0523D20701D4180010BD03781B0234
S21400EDF0C022920013404178C901FF220A40134303
S21400EE00817849001E220A401343C278920480216A
S21400EE10C9020A40134302791204C02189020A403B
S21400EE2013430A4A536093685B035B0F0849082440
S21400EE309C400C8093684B8043780B71138BDB05EA
S21400EE40DB0F1B01D0E7C046000400400040004135
S21400EE501005002030B50400224A1088538843432A
S21400EE608B4206D28022920118201F4BCB18934269
S21400EE700ED81E4B5D688022D2022A435A6020229A
S21400EE80FF321A831B7DDB0703D4184B5D60052019
S21400EE9030BD452C22D8A300154AD3589F46134BA5
S21400EEA01B8BDB0503D5114B5D601020F0E789084E
S21400EEB049000E4BD96103E0890849000B4BD96124
S21400EEC0A52000020443094B1C80190001220B7D7B
S21400EED01342FCD0054B5D600020D9E7034B5D6014
S21400EEE01720D5E71005002000C07FFF0040004136
S21400EEF0A4C20100F8B5254B1D885B886B43182417
S21400EF00834201D22000F8BD6B1E1842FAD1013CA4
S21400EF109542F7D31E4B1B7D123CDB07F2D51D4CEA
S21400EF201B4B1C801D0001242B7D2342FCD020247B
S21400EF30FF34174B1C83002A22D0012305009D4373
S21400EF400023571E09E0CE187678360234432C800C
S21400EF5002339BB202359A4204D9CC5CBB42F2DB48
S21400EF60A4B2F4E7094B1B790024002BCAD13F2A30
S21400EF70C8D8002201000420074B98470400C1E7C8
S21400EF80024B1B790024002BF3D0BBE710050020B2
S21400EF900040004144A5FFFF55EE000070B5184B39
S21400EFA01D885B886B431824834201D2200070BD05
S21400EFB06B1E1842FAD1013C9542F7D3114B1B7DCC
S21400EFC0123CDB07F2D52024FF340E4B1C83002AAC
S21400EFD014D0012398430023561E04E002339BB24C
S21400EFE002309A4208D90488A4B2CC54B342F5DA67
S21400EFF0CD18240A6C70F1E70024D7E70024D5E783
S21400F0001005002000400041134B1A885B885343CC
S21400F0101821834201D2080070479200013A10423C
S21400F020F9D10E4B1B7D1339DB07F4D50B4B202291
S21400F030FF321A8380084000D861094A1A801900F6
S21400F04001220B7D1342FCD0044B198B1C2001407F
S21400F050481E81418900DEE710050020004000417F
S21400F06002A5FFFF00B583B001AB80221A700A78B4
S21400F0705A704A789A708A78DA701900014B984765
S21400F08003B000BDB10A010001680822054B1A60F2
S21400F0900268937A5BB2002BFBDB0B8802221343D9
S21400F0A00B80704700E100E010B50268082480235A
S21400F0B00749CC5001688B7A5BB2002BFBDBC1237F
S21400F0C093711372138802218B43138010BDC046C0
S21400F0D000E100E070B504000568074B9847002380
S21400F0E0238263822268937A5BB2002BFBDB2B8839
S21400F0F0012213432B8070BDA9F0000010B5CB8809
S21400F100C2889A1A92064B799B050C7964042343AD
S21400F1108C782403234313430279002A05D1CA7846
S21400F120002A02D0802252021343487880010A78CF
S21400F1301043184310BD10B58B0EC4881B19D3801E
S21400F1408B011B0F53718B02DB0E13710379002B9F
S21400F1500CD10B041B0F9370CB03DB0FD370880905
S21400F1603F23184050701940117010BDCB03DB0EC2
S21400F1709370F4E710B50A0003684179002906D0B9
S21400F180598849040BD519690A4B984710BD0A4996
S21400F19059800468A17A49B20029FBDBF3E7598855
S21400F1A0C0242402214359800468A17A49B2002968
S21400F1B0FBDBE8E737F100000080FFFF70B50D00CD
S21400F1C014001723012A01D9180070BD0668064BE3
S21400F1D09847B37A5BB2002BFBDBE4003419A061DE
S21400F1E02B7A23770023EFE7FDF0000030B583B0DD
S21400F1F00500140001601C4A936920210B439361AB
S21400F20001A902230B700420184B98470420184BC2
S21400F21098472800174B984723792B71E3786B7132
S21400F220E388EB80144B1D602A6823882179002927
S21400F23017D008210B43A178002901D080210B4369
S21400F2401380E378002B04D053888021C9010B4338
S21400F25053802100083100222800084B984703B04D
S21400F26030BD48210B43E6E700040040B909010021
S21400F2702D090100D5F0000048120020BDF1000065
S21400F28010B50F4B1A681468518A138A1940207AF1
S21400F290E379034058B2002806DBDB0703D5CB072B
S21400F2A00AD40123237210BD8B0702D48023237255
S21400F2B0F9E7D3689847F9E793689847F1E7C046B7
S21400F2C048120020F0B5DE4657464E464546E0B5A5
S21400F2D087B08046049116001F00002200230021FC
S21400F2E08B463F2401202100009601975C4603943C
S21400F2F04446059413E02024641A0500E540A84619
S21400F30014E0009C019D121BAB415C464D462C430D
S21400F310A346039C45462C430394013925D3202459
S21400F32064420C19E7D40500A540A84604008C40AA
S21400F330A14692185B4114001D00059E4F463E40B4
S21400F340B446049E47463E40B246664657463E434F
S21400F35003D00600264332002B00009C019D9D42F0
S21400F360DBD8CED19442D8D8CBE7039B58461900B9
S21400F37007B03CBC90469946A246AB46F0BD10B5D9
S21400F380490840230024814202D2180010BD1C0008
S21400F390091A631C9BB28842F9D94023FF2CF4D883
S21400F3A014800023F1E70000F0B583B00F001600CC
S21400F3B008AA117804004C434022BC4202D910002F
S21400F3C003B0F0BD002B14D1020008000021194C38
S21400F3D0A04701003A0000230020174CA047002257
S21400F3E00123121A8B41120C1B041A43328000228E
S21400F3F0E5E70022012BF9D10A00002300210D4C7D
S21400F400A04702000B0000920193380000210A4C2E
S21400F410A047050080239B0140229842CFD8790F51
S21400F420F800009A019BA047EA00821AD2B2520363
S21400F4302A43DBE701730100C5F2000010B582B075
S21400F44004000E4B1B78002B07D0002905D10B4B70
S21400F4505B78834210D01D200CE001A90C701320AD
S21400F460074B98471320074B9847044B5C700122C4
S21400F4701A70002002B010BD0020FBE7180500201F
S21400F480B90901002D090100404B984231D00AD934
S21400F4903F4B98424DD03F4B98425AD03E4B9842F5
S21400F4A037D0002070473D4B98420CD03C4B9842DA
S21400F4B0F7D1012917D000295DD0022915D00329DC
