:10000000202000201901000015010000150100004A
:1000100000000000000000000000000000000000E0
:1000200000000000000000000000000015010000BA
:100030000000000000000000150100001501000094
:100040001501000015010000150100001501000058
:100050001501000015010000150100001501000048
:100060001501000015010000150100001501000038
:100070001501000015010000150100001501000028
:100080001501000015010000150100001501000018
:100090001501000000000000000000001501000034
:1000A00015010000150100001501000015010000F8
:1000B0000000000010B5064C2378002B07D1054B3B
:1000C000002B02D0044800E000BF0123237010BDC4
:1000D000000000200000000068020000084B10B57E
:1000E000002B03D00749084800E000BF0748036819
:1000F000002B00D110BD064B002BFBD09847F9E731
:1001000000000000040000206802000068020000F7
:1001100000000000FEE70000F8B52A4A2A4B9A4288
:1001200011D01A00294B9A420DD2294A03339B1A47
:100130009B0801339B000022234822498C5884509D
:1001400004329A42FAD1234A234B9A420AD2D34329
:1001500021495B1803218B4304339B18002102C201
:100160009342FCD11D4AFF211D4B8B439360FD3907
:1001700090235B001B4AD1501B4AD3780325AB4325
:1001800002242343D370D3780C27BB430826334380
:10019000D370164B987B30229043202210439873E3
:1001A000997BB943314399739A7BAA4322439A734B
:1001B0000F4A536880210B4353600E4B98470E4BF8
:1001C0009847FEE7680200000000002000000020C1
:1001D00004000020000000201C00002000ED00E0D2
:1001E0000000000000700041005000410048004144
:1001F0000040004101020000FD010000FEE7000098
:1002000070B500260C4D0D4C641BA410A64209D1FC
:10021000002600F019F80A4D0A4C641BA410A642EF
:1002200005D170BDB300EB5898470136EEE7B30037
:10023000EB5898470136F2E75402000054020000E0
:100240005402000058020000F8B5C046F8BC08BCD3
:100250009E467047DD000000F8B5C046F8BC08BCFB
:080260009E467047B500000046
:0400000300000119DF
:00000001FF
