S029000053414D5732355F485454505F414E445F4D5154545F535441525445525F434F44452E73726563E8
S1130000E0260020A5330000A1330000A133000046
S113001000000000000000000000000000000000DC
S1130020000000000000000000000000A1330000F8
S11300300000000000000000A13300002D5000006B
S1130040A1330000A1330000A1330000C51A000051
S1130050AD140000A1330000A1330000A13300005F
S1130060A1330000ED1E0000FD1E00000D1F000066
S11300701D1F00002D1F00003D1F0000A1330000C4
S1130080A1330000A1330000A1330000A13300001C
S1130090A13300000000000000000000A1330000B4
S11300A0A1330000A1330000A1330000A1330000FC
S11300B00000000010B5064C2378002B07D1054B37
S11300C0002B02D0044800E000BF0123237010BDC0
S11300D00002002000000000787B0000084B10B5EF
S11300E0002B03D00749084800E000BF0748036815
S11300F0002B00D110BD064B002BFBD09847F9E72D
S11301000000000004020020787B0000787B0000DF
S11301100000000010B5064B19688B7F5A1E9341EE
S1130120DBB24A7B096803480078034CA04710BD42
S11301301C02002044020020CD0D000010B5042351
S1130140002801D0180010BD0E4B9B7A033B012BF5
S11301500DD900220C4B1A700A4C0C4B1C600C4B32
S11301609847A37A023B58424341DBB2EAE7054B86
S113017002229A72074A1A6001225A7300229A775D
S1130180E7E7C04620020020440200201C020020B1
S113019015010000801A0600F8B5094D094F0A4EF2
S11301A000210A48B847041E07D0B047FF23034282
S11301B003D0013D002DF3D100242000F8BDC0463A
S11301C0410D030011100000291000000D1B000058
S11301D010B582B00C4B1B681989090401230093E4
S11301E010220A480A4CA047002801D102B010BDD1
S11301F0054B18680E300121064B98470028F5D0AE
S1130200054B9847F2E7C0461C020020091108007C
S1130210810E0000AD1000003911000010B5044B30
S11302201B78002B00D010BD0020024B9847FAE742
S113023044020020210E000010B50422034B9A72E0
S1130240FB32034B1A70034B984710BD2002002069
S113025044020020D10C0000F0B5C64600B588B0B9
S1130260CB4B98470400012806D0CA4B984720007E
S113027008B004BC9046F0BDC74B1B680122DA727B
S113028000221A731A81C54B984700218820400127
S1130290C34B9847002807D1BF4B1B6803229A72AF
S11302A0BC4B98470324E2E7D5214900BD48BC4B29
S11302B098470026002825D1B74B1B68DB7ADB075B
S11302C000D5EBE1B44B1B68DA7A09231340012B08
S11302D00FD180218900B448B14B98470028DBD066
S11302E0AD4B1B68DB7ADB0703D5B04B984700287E
S11302F0D2D0AF4B9847A84B1B6800229A72A54BEB
S11303009847B4E7AB4B9847431C00D1C4E10005C0
S1130310000DD5235B0001369842BDD1CCE7002106
S1130320A5489F4B9847002819D19B4B1B68022274
S1130330DA72002188204001994B98470028ABD0FD
S11303409E4D974F9B4E00219D48B8470028A3D04F
S1130350B047C3077DD5013D002DF4D19CE7954BF3
S11303609847430005D58C4B1A68D37A08210B4370
S1130370D372002193488A4B984700288CD0864B2F
S11303801B68DB7ADA0700D4A4E18F4B9847002876
S113039082D0814B1A68537C0721194089008B480D
S11303A00858FA21890041435B061B0F9B008848CB
S11303B01B584B431360937B9B0900D03CE1917D18
S11303C08911537D9B00107D800203430B43107EF3
S11303D0C011D17D490008431B051B0D01330721C2
S11303E0014002318B40D07C0F2101408B409B0A9D
S11303F05360118909047748694B9847002800D154
S11304004AE701230093082200217348734DA8474B
S1130410002800D140E7012106A8714B9847002825
S113042000D139E76F4B9847002800D134E706AB79
S11304301B780F221340012B00D119E1002B00D1AE
S113044009E1022B00D118E1534B1B6810221A73E7
S113045005E100215848524B9847002800D11BE77A
S1130460544B9847C023DB0518408023DB05984292
S113047005D1494B1A68D17A08230B43D372002162
S11304805048474B9847002800D105E74E4B984702
S1130490002800D100E7404B1A68937B9B061B0F92
S11304A0022B00D1A8E007D9032B00D1A7E0042B2D
S11304B004D14023137303E0012B66D0122313737A
S11304C0537C5906090F8900072003409B003F48CD
S11304D01858FA239B004343434809584B4313607D
S11304E0917D8911537D9B00107D800203430B4352
S11304F01B051B0D3D498B420FD0107EC011D17DD1
S11305004900014301330720014002318B40D17C73
S1130510083001408B409B0A5360137B3F2B7BD9EF
S11305200021009101238022920031482B4DA847DD
S1130530002800D1B0E600252E4E05A8B0470028BB
S113054000D1A9E60135ADB2322DF6D1124B1968AE
S11305508A7D92114B7D9B00097D89020B431343D5
S11305601B051B0D214A934254D1224E06A8B047C5
S1130570002800D190E60135ADB2352DF6D9064BF1
S11305801A68069B5B08536044E01423137397E7CF
S11305903D0100001D0200001C020020490E000065
S11305A0111000000855000010110000990100000E
S11305B015010000291000003A050000EF1B00009F
S11305C0011100003B110000D1010000586D000032
S11305D0746D00003711000033110800810E000013
S11305E0AD10000039110000186D0000FF0F00006D
S11305F008110800351000002223137360E730232C
S113060013735DE706A8364B9847002800D143E6EC
S11306100135ADB27F2DF5D9802189003148324BA7
S11306209847002800D137E6304B9847002800D17E
S113063032E62F4B98475EE6D07D937D1B02517DB9
S113064009040B4303439B025B08802189008C4609
S113065063445360CDE6274B1B6810221A73254B65
S11306601B68DB7A09221340012B00D038E630E600
S1130670204B1B681A221A73F1E706AB9B78DB093F
S1130680012B04D11B4B1B6830221A73E7E7194B6B
S11306901B6820221A73E2E700260DE6731E9E41B2
S11306A0B3070393144D104FB846144E0021144859
S11306B0B847002800D138E603991248C0470028FB
S11306C000D132E6B047C30700D428E6013D002D2F
S11306D0ECD12AE609221340012B00D009E6F8E503
S11306E035100000101100001110000099010000E5
S11306F0150100001C020020EF1B0000291000005F
S1130700371100002911000010B5064B984700234B
S1130710002801D0180010BD034B9847034B1B68F9
S1130720DB7AF7E73D0100001D0200001C020020F7
S113073010B5064B98470023002801D0180010BDBF
S1130740034B9847034B1B685B68F7E73D010000C8
S11307501D0200001C0200200020704770B582B00A
S11307600E001500164B9847041E02D0200002B05C
S113077070BD144B9847002817D0012D19D9124881
S1130780124B1B68DB7A1B0700D47602012300930B
S11307902B008022920031000D4EB04700280AD071
S11307A00C4B1D800C4B1D80E0E70C4B9847053427
S11307B0DCE70B48E4E7094B98470524D6E7C04635
S11307C03D01000099010000121110001C020020DC
S11307D0810E000040020020420200201D020000A1
S11307E01111080010B50C00074B9847002804D1DC
S11307F00022064B1A80053010BD044A13881C1BC6
S113080014800020F8E7C046AD100000400200202C
S113081010B50400144B98470523002801D1180093
S113082010BD002C10D00022104B1A80104B1B88D6
S1130830012B0FD000210F480F4B984700280DD0F3
S11308400E4B98470023EAE7084B1A880023002A36
S1130850ECD0E4E7094B98470023E0E70021054882
S1130860054B9847ECE7C0463911000040020020D0
S1130870420200200C310000111000001D02000093
S113088070B582B00E001500114B9847041E16D1A6
S1130890012D17D90F48104B1B68DB7A1B0700D4B6
S11308A07602012300932B008022920031000B4E2C
S11308B0B047002808D00A4B1D800A4B1D80200039
S11308C002B070BD0848E6E7084B98470524F6E7F0
S11308D03D010000199110001C020020810E00004F
S11308E04002002042020020189108001D0200006E
S11308F010B50C00074B9847002804D10022064B82
S11309001A80053010BD044A13881C1B1480002073
S1130910F8E7C0463D1100004002002010B5040075
S11309200E4B98470523002801D1180010BD002C58
S11309300AD000220A4B1A800A4B1B88012B09D0CB
S1130940094B98470023F0E7054B1A880023002A37
S1130950F2D0EAE7044B98470023E6E7BD11000014
S113096040020020420200201D02000010B50400D5
S11309700F4B9847012819D0002803D0022810D023
S1130980012010BD0B4B1B5D0220002BF9D1200070
S1130990094B984703000320184043425841400044
S11309A0EFE70022034B1A550220EAE70320E8E7A9
S11309B059020000480200200907000010B5002079
S11309C0014B984710BDC0466D09000070B5040086
S11309D00D00044B98474000013828602000024B6A
S11309E0984770BD310700006D09000010B5010083
S11309F00020014B984710BDCD09000010B5002020
S1130A00014B984710BDC0465907000010B51400AB
S1130A1001220C4B9847002804D002384342584125
S1130A20013010BD01212000074B9847030001202D
S1130A30002BF6D10020054B9847431E9841C0B2C5
S1130A40EFE7C0465D070000E5070000110800005D
S1130A5010B50A0001000020014B984710BDC046A4
S1130A600D0A000010B5140001220C4B9847002811
S1130A7004D0023843425841013010BD0121200006
S1130A80074B984703000120002BF6D10020054BAB
S1130A909847431E9841C0B2EFE7C0468108000062
S1130AA0F10800001D09000010B50A000100002033
S1130AB0014B984710BDC046650A000000B583B0DD
S1130AC06B46D91DFF230B7001220B480B4B984733
S1130AD00B4B1B88012B0AD0FC226B469A71012216
S1130AE06B46991D0448054B984703B000BDFE2290
S1130AF06B469A71F3E7C0464C020020F1230000D4
S1130B0090020020F0B583B06B46DC1DFF232370F8
S1130B10124E012221003000114DA847FF2301226B
S1130B2021003000A847FF23012221003000A847FC
S1130B300C4C6B46DD1D094E094F2B78FF2B09D059
S1130B40FF23012229003000B847013C002CF4D1D6
S1130B50002000E0012003B0F0BDC0464C0200209C
S1130B6029220000400D030070B582B0144B1C888C
S1130B70012C23D0134B1988134B1868134B984737
S1130B800123844202D9180002B070BD6B46DC1DFB
S1130B90FF2323700E4E0122210030000D4DA84783
S1130BA0FD232370012221003000A8470A4B9847F7
S1130BB0031EE8D10521094A1170E4E70123E2E7A5
S1130BC0900200208802002098020020495700006B
S1130BD04C020020F1230000050B00008F020020CE
S1130BE0F0B583B000226B46DA71144C6B46DD1D00
S1130BF0134E144FFF23012229003000B8472B78ED
S1130C000F22190091430A1E09D0FE2B13D0013C78
S1130C10002CEFD104220C4B1A7000200CE05B076F
S1130C2004D00732084B1A70002005E00B22064B53
S1130C301A70002000E0012003B0F0BD20A10700DD
S1130C404C020020292200008F02002030B583B01E
S1130C5001A901235B420B80144D02222800144B8E
S1130C6098476B46DC1DFF23012221002800114D0B
S1130C70A847227811231340012B05D001220E4BE3
S1130C801A70002003B030BD1E231A40042A0BD072
S1130C900A2A04D1023A084B1A700020F2E70A2209
S1130CA0054B1A700020EDE70120EBE74C02002011
S1130CB0F1230000292200008F02002010B5024811
S1130CC0024B984710BDC0464C0200204D1F000047
S1130CD070B590B000232D4A137002AC0125257025
S1130CE00393049323746374A574E5742375242215
S1130CF0A354183A002108A8254B984780235B0287
S1130D00E360244BA36201235B42E362224B23632F
S1130D10224B6363224BA361224E220022493000FE
S1130D20224B984734682000214B98471F231840D2
S1130D308540204B1D603268D369002BFCD12368A9
S1130D400222134323601C4A0023537093701B49EF
S1130D50087810701A4C20706370A37001A90122E6
S1130D604A708B700A70174B98472278D109002378
S1130D70002904D15309DB0113498C4663441F2124
S1130D80114001228A409A6110B070BD8F02002088
S1130D90DD5A0000020010000200120002001300DD
S1130DA0801A06004C020020000C00425120000072
S1130DB0BD1E000000E100E09C02002000000020B5
S1130DC08C020020A918000000440041F8B5070077
S1130DD000220D4B1A700C000C4B994200D91C00D8
S1130DE00B4D0C4E01E0E308E41A21002800B04743
S1130DF01728F8D07900CF190749C91901220448E6
S1130E00064B9847F8BDC0468F0200208096980094
S1130E104C020020991F00008C020020FD220000DB
S1130E2010B50022044B1A70410008180349091830
S1130E300348044B984710BD8F0200208C02002009
S1130E404C020020FD22000070B582B0FF226B46E8
S1130E50DA710022074B1A700A24074E074D01224B
S1130E606B46D91D3000A847013CE4B2002CF6D1F2
S1130E7002B070BD8F0200204C020020F12300005C
S1130E80F0B5C64600B586B0804600920193FF22B5
S1130E900F2302A8844663441A700022534B1A702D
S1130EA004AB3F3240460240402002431A700A0E0F
S1130EB05A700A0C9A700A0ADA7019710027002312
S1130EC004A90822092411E07600F6B20138C0B260
S1130ED0002808D05B00DBB21D0075402D06F3D559
S1130EE06340DBB2F0E70137052F02D07E5C1000CF
S1130EF0F0E75B000122134304AC63713C4E012212
S1130F000F2102AB9C46614430003A4FB847062299
S1130F1021003000B84702ABD91DFF230B7001221A
S1130F203000354EB047072402ABDE1D304F324D42
S1130F30FF23012231003800A84733785AB2002A2F
S1130F400BDA013CE4B2002CF2D10222274B1A70D6
S1130F50002006B004BC9046F0BD284A13601A076E
S1130F601AD45A071DD4012293431FD143469B042C
S1130F7020D443469B0525D443465B052BD4204B04
S1130F806A4612881A801F4B6A4692881A80002289
S1130F901D4B1A600120DCE70622144B1A70002056
S1130FA0D7E70922114B1A700020D2E70F4B1A70B1
S1130FB00020CEE7154B98470028DAD103220B4BCB
S1130FC01A70C6E70D4900230B60FF33012208485D
S1130FD0094EB047D0E7094EFF23042231000448EC
S1130FE0054FB84733681BBA3360C8E78F02002047
S1130FF04C020020F123000029220000940200206A
S1131000880200209002002098020020050B0000B6
S113101010B582B0002300930022024CA04702B016
S113102010BDC046810E0000014B18687047C046D1
S11310309402002010B584B001900022144B1A7061
S1131040144B1988144B1868144B9847002903D182
S1131050134B9847002810D0FF23042201A91148FC
S1131060114CA0470C4B1A68101D1860094B1988C5
S11310700A4B98470120002901D004B010BDFF237A
S1131080022203A90748084CA0470120F5E7C046FF
S11310908F0200208802002098020020555800008A
S11310A0E10B00004C02002029220000F0B5DE46CE
S11310B057464646C0B582B083460022174B1A7085
S11310C04C1EA4B2002926D00026154B9A46154F73
S11310D0D0478046002817D03A885B469919FF23E9
S11310E01148124DA8473B88F618114A11688C46DE
S11310F063441360FF23022201A90B48A847013C63
S1131100A4B20C4B9C42E3D1404602B01CBC9046B6
S11311109A46A346F0BD01239846F5E78F020020C6
S1131120E10B0000880200204C020020292200006C
S113113098020020FFFF000001207047F0B5C6466A
S113114000B580460022154B1A700025144F154E29
S113115000E021004C1EA4B200291BD0B8473288FD
S1131160434659191048114B98473388ED18104AD3
S113117011688C46634413600E4B984700280AD0CC
S1131180002CE6D00C4B98470028E2D10522034BF3
S11311901A7000E0012004BC9046F0BD8F020020CC
S11311A0BD0A0000880200204C020020F123000048
S11311B0980200204D0C0000050B000010B5054BF3
S11311C09847002803D10522034B1A7010BD034B26
S11311D09847FBE7050B00008F020020690B000015
S11311E070B50020084B98470500084CFA21890087
S11311F0A047074B186007492800A047064B186012
S11312000522064B1A6070BD3131000049570000B9
S11312100400002040420F000800002010E000E01D
S113122030B5084B1C68084A002580214902013862
S113123007D3002CFBD05460956013680B42FCD09C
S1131240F5E730BD0400002010E000E0F0B5C6462C
S113125000B5032307009F431368DB430C000329F5
S113126002D9444203200440002C16D0091B3E1D21
S11312703D68E00040422030C5406B40E00019D09A
S11312800124274D03E05B080138002804D01C42E8
S1131290F9D05B086B40F7E7370003200C00844368
S11312A01ED0081B8446890888463E000D00012094
S11312B01B4C0BE03700F0E75B080139002904D030
S11312C01842F9D05B086340F7E70436013D03D3C5
S11312D031684B402021F3E7414689007F1861467D
S11312E0002917D03C68C8004042203001256D42D7
S11312F0C540280020404340C9000BD00120084CC1
S113130003E05B080139002904D01842F9D05B08D6
S11313106340F7E7DB431360002004BC9046F0BD54
S11313202083B8ED10B50123002801D0180010BDAA
S1131330014B98470300F9E7BD09000010B50123EC
S1131340002801D0180010BD0800024B9847030084
S1131350F8E7C046ED09000043425841C0B2704767
S113136010B50123002801D0180010BD014B984787
S11313700300F9E7FD09000010B50C000123002863
S113138001D0180010BD11002000024B9847030043
S1131390F7E7C046510A000010B50C0001230028ED
S11313A001D0180010BD11002000024B9847030023
S11313B0F7E7C046A90A00000C4B1B68002B06D1B6
S11313C0EFF31083002B07D00022094B1A70074A51
S11313D0136801331360704772B6BFF35F8F002246
S11313E0044B1A700132024B1A70F0E7A00200207D
S11313F0A40200200C000020084B1A68013A1A606D
S11314001B68002B09D1064B1B78002B05D0012249
S1131410044B1A70BFF35F8F62B67047A0020020BE
S1131420A40200200C000020F0B583B001AC01251B
S113143065700027A770257021001720064EB0475D
S113144080221204054B9A612770657021001420D4
S1131450B04703B0F0BDC046A918000000440041E5
S11314601723002A01D0180070478B00064A9B58A6
S1131470002B03D0834205D01D23F4E78900885054
S11314800023F0E70023EEE7A80500201723002936
S113149001D01800704700221F2800D8024A0123F7
S11314A08340D3600023F4E70018004070B50022A5
S11314B0104B1A70002310491F25104E0D4C0AE0E2
S11314C00D4908E023780133DBB223700F2B10D8C9
S11314D000211F2BF4D928001840012282400869FA
S11314E01042EFD00A619B009B59002BEAD0984729
S11314F0E8E770BDA405002000180040A8050020FE
S1131500044A137802210B43137053785BB2002B07
S1131510FBDB70470018004000B583B0124A9369A2
S113152040210B43936101A900230B7005200F4B4D
S1131530984705200E4B98470E4A137801210B4318
S1131540137053785BB2002BFBDB0B4B190040315B
S1131550002204C39942FCD11022084B1A60084BA4
S1131560984703B000BDC046000400404932000063
S1131570BD31000000180040A805002000E100E093
S113158001150000002303604360012202724272CD
S113159083720233C3727047F0B583B005000C0048
S11315A001A900234B70CB7023790B70237A8B70C5
S11315B02078154B984700201F2D00D81348072288
S11315C02A409200E77AA37A002B01D008231F4314
S11315D0EB089B00C31899690F269640B1439740C6
S11315E03A000A439A61637A002B06D143690122C7
S11315F0AA409343436103B0F0BD42690123AB4069
S113160013434361F7E7C04641330000001800402C
S113161010B51E4AD36904210B43D3611C4B20220D
S1131620FF321A831A7D0523D20701D4180010BD96
S113163003781B02C022920013404178C901FF22A3
S11316400A401343817849001E220A401343C2789A
S113165092048021C9020A40134302791204C02172
S113166089020A4013430A4A536093685B035B0F81
S1131670084908249C400C8093684B8043780B7184
S1131680138BDB05DB0F1B01D0E7C04600040040D1
S113169000400041A802002030B50400224A10880E
S11316A0538843438B4206D28022920118201F4B59
S11316B0CB1893420ED81E4B5D688022D2022A4377
S11316C05A602022FF321A831B7DDB0703D4184B98
S11316D05D60052030BD452C22D8A300154AD3589F
S11316E09F46134B1B8BDB0503D5114B5D6010200C
S11316F0F0E7890849000E4BD96103E089084900E5
S11317000B4BD961A52000020443094B1C8019002E
S113171001220B7D1342FCD0054B5D600020D9E70C
S1131720034B5D601720D5E7A802002000C07FFFAF
S113173000400041B46D0000F8B5254B1D885B885E
S11317406B431824834201D22000F8BD6B1E18425B
S1131750FAD1013C9542F7D31E4B1B7D123CDB07AB
S1131760F2D51D4C1B4B1C801D0001242B7D2342F4
S1131770FCD02024FF34174B1C83002A22D00123E1
S113178005009D430023571E09E0CE1876783602E3
S113179034432C8002339BB202359A4204D9CC5C88
S11317A0BB42F2DBA4B2F4E7094B1B790024002B03
S11317B0CAD13F2AC8D8002201000420074B984709
S11317C00400C1E7024B1B790024002BF3D0BBE7D4
S11317D0A80200200040004144A5FFFF9916000024
S11317E070B5184B1D885B886B431824834201D263
S11317F0200070BD6B1E1842FAD1013C9542F7D30C
S1131800114B1B7D123CDB07F2D52024FF340E4B19
S11318101C83002A14D0012398430023561E04E09D
S113182002339BB202309A4208D90488A4B2CC5441
S1131830B342F5DACD18240A6C70F1E70024D7E737
S11318400024D5E7A802002000400041134B1A8869
S11318505B8853431821834201D2080070479200E9
S1131860013A1042F9D10E4B1B7D1339DB07F4D535
S11318700B4B2022FF321A8380084000D861094AAA
S11318801A80190001220B7D1342FCD0044B198BE2
S11318901C200140481E81418900DEE7A802002087
S11318A00040004102A5FFFF00B583B001AB8022D8
S11318B01A700A785A704A789A708A78DA7019001D
S11318C0014B984703B000BD413300000168082272
S11318D0054B1A600268937A5BB2002BFBDB0B8822
S11318E0022213430B80704700E100E010B5026848
S11318F0082480230749CC5001688B7A5BB2002B03
S1131900FBDBC12393711372138802218B43138071
S113191010BDC04600E100E070B504000568074B47
S113192098470023238263822268937A5BB2002B58
S1131930FBDB2B88012213432B8070BDED180000C4
S113194010B5CB88C2889A1A92064B799B050C79FC
S1131950640423438C782403234313430279002A29
S113196005D1CA78002A02D0802252021343487853
S113197080010A781043184310BD10B58B0EC4883B
S11319801B19D3808B011B0F53718B02DB0E137158
S11319900379002B0CD10B041B0F9370CB03DB0FCB
S11319A0D37088093F23184050701940117010BD3E
S11319B0CB03DB0E9370F4E710B50A00036841799A
S11319C0002906D0598849040BD519690A4B984750
S11319D010BD0A4959800468A17A49B20029FBDB89
S11319E0F3E75988C0242402214359800468A17A6A
S11319F049B20029FBDBE8E77B1900000080FFFF08
S1131A0070B50D0014001723012A01D9180070BD08
S1131A100668064B9847B37A5BB2002BFBDBE40005
S1131A203419A0612B7A23770023EFE741190000D2
S1131A3030B583B00500140001601C4A936920216D
S1131A400B43936101A902230B700420184B9847A0
S1131A500420184B98472800174B984723792B717B
S1131A60E3786B71E388EB80144B1D602A6823884C
S1131A702179002917D008210B43A178002901D02E
S1131A8080210B431380E378002B04D053888021FA
S1131A90C9010B4353802100083100222800084B60
S1131AA0984703B030BD48210B43E6E700040040EB
S1131AB049320000BD31000019190000E80500207A
S1131AC0011A000010B50F4B1A681468518A138A62
S1131AD01940207AE379034058B2002806DBDB077B
S1131AE003D5CB070AD40123237210BD8B0702D47C
S1131AF080232372F9E7D3689847F9E793689847F6
S1131B00F1E7C046E8050020F0B5DE4657464E46EC
S1131B104546E0B587B08046049116001F000022B8
S1131B20002300218B463F240120210000960197C9
S1131B305C4603944446059413E02024641A05008B
S1131B40E540A84614E0009C019D121BAB415C4695
S1131B504D462C43A346039C45462C43039401392C
S1131B6025D3202464420C19E7D40500A540A846D7
S1131B7004008C40A14692185B4114001D00059E90
S1131B804F463E40B446049E47463E40B2466646F3
S1131B9057463E4303D00600264332002B00009CE8
S1131BA0019D9D42DBD8CED19442D8D8CBE7039B8C
S1131BB05846190007B03CBC90469946A246AB462D
S1131BC0F0BD10B5490840230024814202D2180018
S1131BD010BD1C00091A631C9BB28842F9D940232A
S1131BE0FF2CF4D814800023F1E70000F0B583B093
S1131BF00F00160008AA117804004C434022BC428E
S1131C0002D9100003B0F0BD002B14D1020008006B
S1131C100021194CA04701003A0000230020174C72
S1131C20A04700220123121A8B41120C1B041A43F1
S1131C3032800022E5E70022012BF9D10A000023BB
S1131C4000210D4CA04702000B00009201933800C4
S1131C5000210A4CA047050080239B0140229842A2
S1131C60CFD8790FF800009A019BA047EA00821AA6
S1131C70D2B252032A43DBE7355A0000091B0000A5
S1131C8010B582B004000E4B1B78002B07D000293E
S1131C9005D10B4B5B78834210D01D200CE001A9C9
S1131CA00C701320074B98471320074B9847044B9D
S1131CB05C7001221A70002002B010BD0020FBE706
S1131CC0B002002049320000BD310000404B984270
S1131CD031D00AD93F4B98424DD03F4B98425AD00D
S1131CE03E4B984237D0002070473D4B98420CD071
S1131CF03C4B9842F7D1012917D000295DD0022925
S1131D0015D0032915D00020EEE7012907D00029BA
S1131D1051D0022905D0032905D00020E4E7324838
S1131D20E2E73248E0E73248DEE73248DCE73248AF
S1131D30DAE73248D8E7012907D000293FD0022941
S1131D4005D0032905D00020CEE72D48CCE72D4847
S1131D50CAE72D48C8E7012907D0002931D0022954
S1131D6005D0032905D00020BEE72848BCE7284851
S1131D70BAE72848B8E7012907D0002923D0022967
S1131D8005D0032905D00020AEE72348ACE723485B
S1131D90AAE72348A8E7012907D0002915D002297A
S1131DA005D0032905D000209EE71E489CE71E4865
S1131DB09AE71E4898E71E4896E7032094E71D48D3
S1131DC092E71D4890E71D488EE71D488CE7C04602
S1131DD00010004200180042001C0042001400429F
S1131DE000080042000C0042030005000300060046
S1131DF0030007000300010003001E0003001F008E
S1131E000300090003000A0003000B000300110093
S1131E10030012000300130003000D0003000E0072
S1131E2003000F000300170003001800030019004B
S1131E3003000400030008000300100003000C006A
S1131E400300160030B587B00B4B6A4632CB32C262
S1131E5032CB32C2009B83420BD001239A006946E5
S1131E605258824206D00133062BF7D1002007B026
S1131E7030BD0023D8B2FAE7CC6E000070470000F2
S1131E80F0B50A4B1B78002B0CD1094F094E0A4DB3
S1131E900024DE515A1914600433182BF9D101229D
S1131EA0024B1A708000024BC150F0BDB2020020F8
S1131EB0B40200207D1E0000EC05002000B583B0B4
S1131EC009236A461370013353700133937001334D
S1131ED0D3700133137101335371034B98476B462D
S1131EE0185603B000BDC046451E000010B5024B95
S1131EF01B680020984710BDB402002010B5024BA7
S1131F005B680120984710BDB402002010B5024B55
S1131F109B680220984710BDB402002010B5024B04
S1131F20DB680320984710BDB402002010B5024BB3
S1131F301B690420984710BDB402002010B5024B61
S1131F405B690520984710BDB402002070B50500F8
S1131F50046820000E4B98471F2318401E3B834003
S1131F6080220C498B502A68D369002BFCD18F3313
S1131F702375237623680222934323602A68D36956
S1131F80002BFCD1236801221343236070BDC0469B
S1131F90BD1E000000E100E070B582B005000C0039
S1131FA000226B46DA8006683000244B98471F23D2
S1131FB018401E3B8340802221498B502A68D369F4
S1131FC0002BFCD18F33337533763368022293436D
S1131FD033602868C369002BFCD11A4B984714302E
S1131FE0C0B2194B984701006B469A1D2000174B4D
S1131FF09847041E03D01724200002B070BD6B461E
S113200006331B7833732E68F369002BFCD1300040
S11320100A4B98471F2318401E3B8340084A13600D
S11320202A68D369002BFCD133680222134333603E
S11320302A68D369002BFCD1DEE7C046BD1E000030
S113204000E100E0451E000065320000C31B0000F3
S1132050F0B58BB005000C00160029600B681C203D
S11320609B0701D50BB0F0BD0B681738DB07F9D41B
S11320700800604B9847604A116A871C0123BB40E3
S11320800B43136209A92427F35D0B701430C3B208
S113209001931800594B98470198594B9847F05DA4
S11320A00021584B98473378012B38D02B000C3340
S11320B029002831002204C38B42FCD10023EB62A7
S11320C0AB620024AB862B863633EC540133EC54DC
S11320D00133EC54353B6B722C712868454B98479F
S11320E007004949494B9847BF00494BFD502F68A9
S11320F004AB80221A705C707F3A9A70DC7033787B
S1132100002B02D1002204AB9A70B36A0593F36AE0
S11321100693336B0793736B089300240BE02368D7
S11321200C2213432360C1E738003A4B98470AE076
S11321300134042C10D0E1B2A30002AA0C2012181E
S1132140D0580028F0D0431CF2D004A90870000C29
S1132150C0B2314B9847EBE733786B71337CAB718A
S1132160B37CEB71337D2B72002202ABDA803378BF
S1132170012B28D07368B2681343F2681343317C8F
S1132180727C002A03D1254A9278920701D58022D5
S11321901343B27C002A02D0802292021143F27CC3
S11321A0002A02D0802292001143327D002A02D0FC
S11321B08022920111433A6813433B607B680B43CE
S11321C07B6000204EE728680A4B98471430C0B261
S11321D0134B9847010002AB9A1DB069114B984705
S11321E003001720002B00D03CE702AB06331B781A
S11321F03B73BFE7451E0000000400404932000065
S1132200BD310000811C0000BD240000811E0000BF
S1132210EC050020CD1C00004133000000200041EB
S113222065320000C31B0000F0B5D646474680B5B2
S113223083B03824055D333C052D02D01234002AC6
S113224005D1200003B00CBC90469A46F0BDC47979
S1132250002C44D11C34F4E705682C7E3C42FCD0AD
S11322602C7E3C421AD04446AC6217E08479012C9F
S113227026D0AD6AECB2A446019C002C3AD1751C60
S1132280ADB264468C558479012C1ED02E00013ADF
S113229092B252451FD04479012CDDD005682C7EC2
S11322A01C42FCD02C7E1C4217D06C8BA44600240C
S11322B0019464461C42D9D06B831E240194D5E753
S11322C0AC6AE405E40DA446D6E70236B6B2644629
S11322D0240A4C55DBE7019CB3E71024B1E7013A2B
S11322E092B200260127DB05DB0D98460423024C3D
S11322F0A246D0E7019CA4E7FFFF000010B5447993
S11323001523012C01D0180010BD047A0023002CE1
S1132310F9D1002A58D04B78002B44D003681B7E97
S1132320DB0710D40A78D1090023002904D153090A
S1132330DB012E498C4663441F21114001228A404F
S11323409A610523DFE70A78D4090023002C04D11D
S11323505309DB01254CA44663441F241440012285
S1132360A2405A6103681A7ED20701D58A789A621C
S1132370C2790023002AC6D102680421137E0B42CD
S1132380FCD0117E00234907BDD5538B5B0701D5D3
S1132390042353838379012B02D0936A0023B2E789
S11323A0936A0023AFE70A78D1090023002904D1F6
S11323B05309DB010D498C4663441F21114001225E
S11323C08A405A6100239EE70A78D1090023002934
S11323D004D15309DB0105498C4663441F21114094
S11323E001228A409A6100238DE7C04600440041DF
S11323F0F0B5DE4657464E464546E0B583B08A46BC
S11324003823C45C333B052C02D01233002A4BD151
S1132410180003B03CBC90469946A246AB46F0BDBA
S11324200237BFB241465346595C09025B460B432F
S113243018E08379012B2AD0936A013EB6B266452F
S113244027D00268137E2342FCD07B1C9BB29846A3
S11324505346DB5D9B4681790129E1D06946CB80F7
S1132460CB884746117E214202D0DB05DB0D936207
S1132470C379002BE1D00268137E2B42FCD0137E7B
S11324802B42DAD0538B2B42D3D05583D1E7936AB6
S1132490D3E742790023012ABAD1016801320B7EC5
S11324A01342FCD00023B3E7013A96B2002701247B
S11324B00425014B9C46C4E7FFFF0000F8B58000EB
S11324C0704BC45826683723E75C3622A25C174059
S11324D0337EB57D1D40EB0702D56379012B1ED0F9
S11324E06B0711D5738B5B075AD5637A012B08D020
S11324F01E223823E254353B6372023333753B07A3
S11325004AD4B36A04237383AB0703D56379012BDD
S113251000D197E06DB2002D00DAA9E0F8BD637A2E
S1132520002B22D0637A002BDAD02168E26A137878
S1132530DBB2501CE062A079012827D09BB2DB05F6
S1132540DB0D8B62A38E013B9BB2A386A38E9BB251
S1132550002BC5D101333375637A012BC0D1E379E4
S1132560002BBDD10233B375BAE7474B1B88B36266
S1132570638E013B9BB26386638E9BB2002B01D1B9
S1132580013333756379012BCCD0A9E7507800026D
S113259003430232E262D2E72000A3699847B0E71E
S11325A0637A012B28D023689B6ADB05DB0DDAB242
S11325B0A16A0A70A26A511CA162A179012934D0CE
S11325C0238E013B9BB22386238E9BB2002B00D02B
S11325D09AE700223833E254343B3375637A022B92
S11325E029D0637A002B00D08EE7BB0700D48BE799
S11325F020002369984787E723689B6A638E013B21
S11326009BB26386638E9BB2002B00D07CE70433BD
S1132610337500223433E254353B6372FB0700D434
S113262072E72000E36898476EE71B0A5370A36AB9
S11326300133A362C4E77B0700D465E72000636924
S1132640984761E7637A012B00D063E7E379002BB5
S113265000D05FE7023333750133637200223533F0
S1132660E254FB0700D455E72000E368984751E79C
S11326708023337533767B0600D44FE7636A2000EA
S113268098474BE7EC05002004060020F0B5DE4631
S113269057464E464546E0B591B005000C0016007D
S11326A029600800BC4B9847020023680520DB071B
S11326B006D511B03CBC90469946A246AB46F0BD47
S11326C0236817309B07F4D4B449086A971C012384
S11326D0BB4003430B620FA92D27F35D0B7014322B
S11326E0D3B202931800AE4B98470298AD4B98476B
S11326F0F05D0021AC4B9847F37A6B712423F35CB3
S1132700AB712523F35CEB71F37E2B72337F6B7219
S11327102B6898461800A04B9847143000220E23CB
S113272006A98C4663441A80328A02928023DB0114
S11327309A4200D19EE00FD9C023DB01029A9A424B
S113274000D192E080231B029A4200D01FE10323B0
S113275006930023079308E080239B019A4200D04C
S113276015E1102306930F3B079333680593F36831
S1132770039373690493337E9B462623F35C9A4642
S113278073689946002B00D1A0E080235B0599452E
S113279000D184E0737E002B02D0B37E4246937353
S11327A02A68029FD369002BFCD10E3306AA9446F3
S11327B063441B8842469381059B039A1343049AFE
S11327C013434A4613431F435B461B021F435346AE
S11327D05B071F432723F35C002B01D104331F4302
S11327E0737E9B02327F52021343727F12021343A1
S11327F02422B25C520413432522B25C1204134314
S1132800B17AF27A114319433389FF2B00D181E065
S113281080225204174319432C23F35C002B03D169
S1132820624B9B789B0701D580231F432A68D36999
S1132830002BFCD1434659602A68D369002BFCD194
S113284043461F600EAB80221A7000225A70DA7061
S11328509A70336B0A93736B0B93B36B0C93F36B98
S113286002930D9300270AAE63E008230693073B07
S113287007937AE733680593F368039373690493C2
S1132880337E9B462623F35C9A4673689946002B55
S113289018D080235B05994501D0002025E027232B
S11328A0F35C002B00D075E7336A1F00C0B2404BC5
S11328B0984701000E2206AB9C46624438003D4B0B
S11328C0984712E008230693002307932723F35C19
S11328D0002B0ED0069B0093079B0E2206A98C4664
S11328E06244B16A306A344FB847002800D0E0E649
S11328F050E7336A1F00C0B22D4B98470100069B76
S11329000093079B0E2206A88446624438002A4F8F
S1132910B847EAE7F37E002B00D17DE78023DB0490
S11329201F4379E72000254B984707E00137042F20
S11329300DD0F9B2BB0098590028F3D0431CF5D050
S11329400EA90870000CC0B21D4B9847EEE7002397
S1132950EB602B616B61AB61EB612B62AB626B6211
S11329600022EB85AB853033EA540133EA5401335A
S1132970EA540133EA542868074B98470400114984
S1132980114B9847A400114BE550002091E6102309
S1132990069300230793E8E6451E00000004004068
S11329A049320000BD310000811C000000200041BC
S11329B065320000C31B0000ED1B0000CD1C0000AD
S11329C0413300006D2A0000811E0000EC05002048
S11329D0C2791C23002A01D118007047C28D92B21B
S11329E0173B002AF8D10368DA69002AFCD119855B
S11329F002211A7E0A42FCD00023EDE782791C23CF
S1132A00002A01D118007047828D92B2173B002A28
S1132A10F8D10268107E4007F4D5D369002BFCD1AD
S1132A20538BDBB298061DD0980703D5022353833A
S1132A301833E7E7580703D5042353831A33E1E730
S1132A40D80703D5012353831233DBE7D80603D514
S1132A50102353833233D5E79B0603D520235383B6
S1132A602133CFE7138D0B800023CBE7F8B580002B
S1132A70624BC5582C68E369002BFCD1237EA67DEC
S1132A801E403023EB5C3122AF5C1F40F30722D59C
S1132A90EB8D9BB2002B1CD0AA6A1378DBB2511CBD
S1132AA0A962697901290ED09BB2DB05DB0D238570
S1132AB0EB8D013B9BB2EB85002B0CD101332375CD
S1132AC00133A37507E0517809020B430232AA626D
S1132AD0EBE701232375B30706D5022323750022F0
S1132AE03133EA54FB071AD4730765D5AB8D9BB217
S1132AF0002B5FD0638BDBB21A0714D43F22134040
S1132B00002B34D09A0711D51A223223EA54303BD1
S1132B1063837B0750D528006B6998474CE02800F5
S1132B20EB689847E0E737221340E9E75A0705D5F1
S1132B301E223223EA542E3B6383EAE7DA0705D5E3
S1132B4013223223EA54313B6383E2E7DA0605D5E4
S1132B5042223223EA54223B6383DAE720221A42D8
S1132B60D7D021323223EA54123B6383D1E7238D39
S1132B70DB05DB0DDAB2696A0A706A6A511C6962A4
S1132B806979012910D0AB8D013B9BB2AB85002B39
S1132B9012D10433237500222E33EA54BB070BD51C
S1132BA028002B69984707E01B0A53706B6A0133AE
S1132BB06B62E8E704232375F30604D51023237519
S1132BC02376FB060ED4B30604D52023237523767F
S1132BD03B070BD4330704D5082323752376BB06A0
S1132BE008D4F8BD2800EB699847ECE72800AB69E6
S1132BF09847EFE72B6A28009847F2E7EC05002096
S1132C0010B5082803D880001C4B1B589F46002091
S1132C1032E01B4B18692FE01A4B1B6A9B059B0F74
S1132C201948D84028E0164B586925E0144B1B6816
S1132C3000209B0720D513491022CB681A42FCD0F0
S1132C400F4B1A6824231340042B01D00F4813E0C0
S1132C5000200F4B98470A4B9B681B041B0C5843DE
S1132C600AE05023074AD35C00205B0704D5044BD9
S1132C70D86801E08020000210BDC046E46E000068
S1132C80CC0200200008004000127A00006CDC0234
S1132C906532000070B50C490B6A04788578407879
S1132CA00122104080014026B34303432A40D2014D
S1132CB0802083431343032222401202034803402B
S1132CC013430B6270BDC04600080040FFFCFFFFC9
S1132CD0F0B5DE4657464E464546E0B50100264B64
S1132CE09B469B8A457800784242424191468878C7
S1132CF0CA7894460A7990464E7B0F7B8C7B8A680F
S1132D001E494A6101214A46920091460422934396
S1132D104A46134342460A40D2009046082293434F
S1132D204246134362460A401201944610229343DA
S1132D3062461343084040012022934303430F405B
S1132D40BF01402083433B430E40F60140308343A0
S1132D503343793805402D02094803402B43214071
S1132D600903084803400B435A4693823CBC9046EF
S1132D709946A246AB46F0BD00080040CC020020B4
S1132D80FFF8FFFFFFEFFFFF10B5037A9B061B0C54
S1132D9042899205920D134318494B608379C27995
S1132DA0134342888488224313434278D201134355
S1132DB00B600378042B11D0202B0ED1037B9B06D0
S1132DC0028A1343C28912040D490A4013430B4A71
S1132DD0936011680B4B0B43136010BD037B9B0680
S1132DE0028A1343C289120405490A401343034A61
S1132DF09360136804210B431360EEE7CC020020B8
S1132E000000FF0324040000082803D88000254B99
S1132E101B589F46172044E0234A136A02210B43A0
S1132E20136200203DE0204A936902210B43936121
S1132E30002036E01C4A138A02210B43138200202F
S1132E402FE0194A938A02210B439382002028E041
S1132E5016490B68022213430B60134B9A84190022
S1132E600E32CB681A42FCD0104A91680E4BD962DC
S1132E7052689A6200229A8419001032CB681A426E
S1132E80FCD00A4B1B689BB2074A9384002008E0DD
S1132E90054944228B5C022003438B54002000E04C
S1132EA000207047086F000000080040CC0200209A
S1132EB0F0B58FB0C222D200474B9A60474A53689C
S1132EC01E218B431A390B435360022201AB1A7043
S1132ED00024434DE0B201A9A8470134252CF9D1BF
S1132EE00AA8002303708370802212028260C370D8
S1132EF00122027103738373023242704373394BAC
S1132F0098470520384B984733490222CB681A4228
S1132F10FCD0314A938A80210B43938205AB002174
S1132F200022598099809A71DA713F3159813B3975
S1132F3019705A702D4B1B689B0E3F2B4AD005A865
S1132F4003722B4B0382072303733833C381294B4A
S1132F50984704A800254570012686700570264B05
S1132F6098470620204FB847244B984701AC029657
S1132F706570257265720523237021000120204BA2
S1132F80984701201F4B9847267021000020144BBE
S1132F90984700201C4B98470720B8470E49D02279
S1132FA0CB681340D02BFBD1184A00231372537201
S1132FB09372D37201A901224A604B700B724B7257
S1132FC007330B7000200E4B984700200D4B984799
S1132FD00FB0F0BD203BB2E70008004000400041C4
S1132FE049320000D12C0000092E0000246080002A
S1132FF0B9050000892D0000952C00001130000057
S113300035300000ED300000BD3100000004004008
S1133010064A936908210B4393610122044B1A70F9
S113302019000B781342FCD17047C04600040040DD
S1133030000C004070B5060004000D782D02054315
S11330404B78002B02D08023DB021D434B7A002BEC
S113305002D080231B031D434868012810D9431E56
S1133060184234D1022830D90223002201325B00F5
S11330709842FBD812023243140080235B031D43A1
S11330800B7A002B02D080239B031D43134A5378F1
S11330905BB2002BFBDB124B9847124B1E700F4A9E
S11330A053785BB2002BFBDB0C4B9C601A0053780B
S11330B05BB2002BFBDB094A5368802149020B40B9
S11330C01D435560084B984770BD0022D2E70402A7
S11330D0344380239B021D43D2E7C046000C0040CA
S11330E0B9130000080C0040F913000010B50400E7
S11330F00B4A53785BB2002BFBDB0A4B98470A4B15
S11331001C70074A53785BB2002BFBDB044A5168FE
S113311080235B020B435360044B984710BDC046A9
S1133120000C0040B9130000040C0040F913000027
S113313070B504001A4A53785BB2002BFBDB194BC1
S11331409847194B1C70164A53785BB2002BFBDB73
S1133150134E7068C004C00E144B98470500124B00
S11331601C707668F602F60F114B1C700C4A5378EB
S11331705BB2002BFBDB0A4B9C682402240C0D4B36
S11331809847002E07D1012C07D9210028000A4BAB
S11331909847050001E00134E540280070BDC046B1
S11331A0000C0040B9130000040C0040012C000086
S11331B0080C0040F91300004957000010B5040042
S11331C0064B9847064B1C70064A53888021C90158
S11331D00B435380044B984710BDC046B9130000FD
S11331E0020C0040000C0040F913000010B504006C
S11331F00F4B98470F4B1C700F4A53881B05180F31
S113320053880E490B40538053880D490B4053801B
S113321011008022D2014B881342FCD106494A880E
S113322003020648024013434B80064B984710BDE7
S1133230B9130000020C0040000C0040FFF0FFFF37
S1133240FFBFFFFFF913000010B50C7824020443FC
S1133250024B9847A4B2024B5C8010BDED310000D4
S1133260000C004010B50400064B9847064B1C7038
S1133270064B5C882405240F054B98472000054B1A
S1133280984710BDB9130000020C0040000C004028
S1133290F91300003131000030B5D378002B35D15B
S11332A01378802B29D01B0680246402234354788E
S11332B00225AC4306D19478002C20D18024A402AA
S11332C0234341605478013C012C1CD90D042D0C7E
S11332D0A024E4052C431C4384620D0CD024240652
S11332E02C431C438462D478002C22D15B031CD56C
S11332F09378012B1ED0416117E00023D7E7C02447
S1133300E4022343DDE70D4C2340DFE741600C0476
S1133310240CA023DB05234383620C0CD0231B065F
S113332023438362D378002B03D15378013B012BD1
S113333002D930BD8161F8E78160FAE7FFFFFBFF46
S113334010B50A00C1090023002904D14309DB0197
S113335005498C4663441F24204001218140180004
S1133360024B984710BDC04600440041993200000A
S11333707047000010B5054B9847054B9847054B1F
S11333809847054B9847054B984710BDB12E000050
S11333902914000071330000191500007133000076
S11333A0FEE70000F8B52A4A2A4B9A4211D01A00C7
S11333B0294B9A420DD2294A03339B1A9B080133A5
S11333C09B000022234822498C58845004329A429C
S11333D0FAD1234A234B9A420AD2D34321495B1898
S11333E003218B4304339B18002102C29342FCD176
S11333F01D4AFF211D4B8B439360FD3990235B00D5
S11334001B4AD1501B4AD3780325AB4302242343E0
S1133410D370D3780C27BB4308263343D370164BA1
S1133420987B30229043202210439873997BB943B0
S1133430314399739A7BAA4322439A730F4A536880
S113344080210B4353600E4B98470E4B9847FEE781
S1133450787B00000000002000020020040000200F
S113346000020020DC06002000ED00E00000000067
S113347000700041005000410048004100400041FC
S1133480955A0000C5540000F0B5C64600B50C00BE
S1133490904600280FD1002A11DD8F18094E0A4DDD
S11334A0306821002B6898470134BC42F8D140466B
S11334B004BC9046F0BD01235B429846F7E7804682
S11334C0F5E7C0461006002008060020F0B5C64601
S11334D000B50E0015000138022810D8002A11D0BA
S11334E000240C4B98460C4F43461868315D3B68EA
S11334F09847002808DB0134A542F5D106E00124F1
S1133500644203E0140001E001246442200004BC8E
S11335109046F0BD100600200C0600200300064A69
S11335201268002A04D0044A1068C3181360704754
S11335300249014A1160F6E7E4020020E026002077
S113354001204042704780239B014B60002070475C
S1133550012070470020704730B587B0040001AAED
S1133560A0231B01138000239370D370FA21C90098
S1133570D180012111710420107253729372D3729D
S113358011735173144BD38106231374134D1449CF
S11335902800144B98472800134B98470120012C0E
S11335A001D907B030BD2000104B98470300032811
S11335B006D120000D4B984703000120032BF0D0C7
S11335C0002B06D120000A4B9847431E98418000E7
S11335D0E7E70120E5E7C046DE0700001406002007
S11335E000140040311A0000CD180000251300001B
S11335F06113000010B5054B9847031E04D0032047
S1133600022B00D0023810BD0020FCE72513000077
S1133610F0B5DE464F464646C0B584B001900D0075
S113362014001F00184B984706000120002E05D1F6
S113363004B01CBC90469946A346F0BD03A901986A
S1133640124B9847B14632007A431219039B013357
S1133650734304209A42EBD8002F11D0730298468A
S11336607B1C9B4601270A4E2A0021000198B04783
S1133670002807D101374C4445445F45F4D1D7E7CE
S11336800020D5E70120D3E7591300003D130000C3
S113369079130000F0B5DE464F464646C0B584B007
S11336A001900D0014001F00184B984706000120DC
S11336B0002E05D104B01CBC90469946A346F0BD2B
S11336C003A90198124B9847B14632007A43121964
S11336D0039B0133734304209A42EBD8002F11D08B
S11336E0730298467B1C9B4601270A4E2A00210040
S11336F00198B047002807D101374C4445445F4541
S1133700F4D1D7E70020D5E70120D3E7591300000F
S11337103D1300009913000010B582B01400012974
S11337200BD0002920D002290FD00420032902D174
S113373001231360002002B010BD01A90E4B98476D
S1133740019B013323600020F5E70C4B9847431E8F
S1133750DBB2012B04D9031FFB2201201342EAD15F
S1133760002323700020E6E7054B9847002801D08A
S11337700320E0E70020DEE73D13000059130000BA
S11337802513000000B583B069460F480F4B9847D6
S11337906B46587940051B791B0418436B469B788C
S11337A0DB0218436B465B785B0118436B461B785E
S11337B05B0818436B46DB88054A944663445B0602
S11337C0184303B000BDC04614060020B919000018
S11337D044F8FFFF10B5002A05D00023CC5CC45484
S11337E001339342FAD110BD002A05D00300821898
S11337F0197001339342FBD1704702000239836987
S1133800023B0020994203D290784143906A081801
S11338107047020001000B3100204308C00103433C
S113382010781818C0B201328A42F6D170470000ED
S113383010B5002810D002780923002A01D11800FD
S113384010BDC2888A42FAD14078044B98470323BA
S1133850C007C0170340F2E70923F0E7F53500007D
S113386070B504000A0001003031407801231F4D77
S1133870A8470323002801D0180070BD1C4BE35C4B
S11338801B021C4AA25C1A431B4912B202238A423D
S1133890F2D16733E35C1B066822A25C1204134373
S11338A06622A25C13436722A25C120213431B022A
S11338B01B0A124A934216D08523E35C1B0684221A
S11338C0A25C120413438222A25C13438322A25CEF
S11338D0120213431B021B0A094A94466344581EEE
S11338E08341DBB2C8E70023C6E7C04611360000B7
S11338F02F0200002E02000055AAFFFF464154008B
S1133900BABEABFFF0B5D6464F464646C0B5150025
S113391003681C78303C092C0ED85A783A2A01D016
S113392000240AE0023303600B20072C05D91CBCD9
S113393090469946A246F0BD0024A300C54A9E586D
S11339400E60002E00D1E8E03378002B0DD07078A3
S1133950C14B98470300C20707D40020002DE6D0CE
S11339605B0700D4DBE00A30E1E700233370E0B208
S11339707070BA4B984703000320DA07D7D4002DA0
S113398002D007305B07D2D400213000B44B9847F3
S113399003000024012800D19AE0032B00D1C0E0E9
S11339A00D20002BC3D13C33F25C1202013BF35CCB
S11339B01343802292001BB29342B8D14723F35C95
S11339C01B02BB3AFF3AB55C1D430DD15723F55C8E
S11339D02D06013BF35C1B041D435423F35C1D4380
S11339E05523F35C1B021D43F5614023F25CF27026
S11339F0531E0D20012B9AD83D23F15CB170002990
S1133A0095D04B1E194292D14223F35C1B023430F1
S1133A10305C1843804630810D2043461B0700D09C
S1133A2085E74423F35C1B023630305C03430DD13D
S1133A305333F35C1B065220305C000403435020D4
S1133A40305C03435120305C000203433F20305C70
S1133A5000023E27F75D0743BA460D20002F00D130
S1133A6065E76A4391464246170957444F44BB42AF
S1133A7000D25CE7D81B7B4B984703000D20002B3A
S1133A8000D154E7784A9A4292415242013277492E
S1133A908B4248D80233B361E719B76254443462A5
S1133AA00D204146002900D141E74C447462022AAA
S1133AB02CD15B006E498C4663445B0A0D209D4209
S1133AC000D234E701235B4233610023F360B6E0A4
S1133AD0F233FF33F35C0D20002B00D127E7FA23E8
S1133AE0FF33F45C2406013BF35C1B041C43FB23FF
S1133AF05B00F35C1C43F823FF33F25C12021443B3
S1133B0021003000564B9847030046E703215943F0
S1133B10490801200340CB18CCE70C2007E700201C
S1133B2005E7012003E70233B361E719B7625246A0
S1133B30A21832620D204246002A00D0F7E65F2226
S1133B40B25C12065E21715C09040A435C21715C5B
S1133B500A435D21715C09020A4372629B00444A74
S1133B60944663445B0A0D209D4200D2DFE60123A4
S1133B705B4233610023F36073716133F35C1B02B6
S1133B806022B25C1A4312197261310030317078CC
S1133B900123384CA0470322002850D1364BF25C55
S1133BA01202364BF35C134335491BB203228B429A
S1133BB045D13323F35C1B062F32B25C120413434A
S1133BC03022B25C13433122B25C120213432D49FA
S1133BD003228B4233D12C4BF35C1B062B4AB25C81
S1133BE01204134385229200B25C1343284AB25C48
S1133BF012021343274903228B4220D1264BF35C44
S1133C001B06264AB25C1204134387229200B25C5C
S1133C101343234AB25C12021343F360214BF35C57
S1133C201B06214AB25C1204134386229200B25C42
S1133C3013431E4AB25C12021343336103223270EF
S1133C401B4A138801339BB21380F3800020F06277
S1133C5030716CE6E8020020F535000059350000AB
S1133C606138000049570000F50F0000F5FF00001F
S1133C70FF010000113600002F0200002E02000098
S1133C8055AAFFFF525261411702000016020000BC
S1133C9015020000727241611F0200001E02000042
S1133CA01D0200001B0200001A020000190200009D
S1133CB008030020F0B5CE4600B582B004000F0022
S1133CC0C56A8D423FD00379002B07D10023002F12
S1133CD02CD1180002B004BC9146F0BD30239C46A0
S1133CE08444634661460193407801232A00174EB9
S1133CF0B04701230028ECD100232371236AE26931
S1133D00944663449D42E1D2E678012EDED90F4BFE
S1133D109946E3699C466544607801232A00019929
S1133D20C847013EF6B2012EF3D1CFE7210030316E
S1133D30607801333A00064DA84701230028C8D112
S1133D40E7620023C5E70023C3E7C04695360000B9
S1133D5011360000F8B505000C00012974D90120C2
S1133D60AB69994271D22B78022B34D0032B49D002
S1133D70012B02D00120404267E04E087618710AF8
S1133D802B6A9C4661442800304B9847002802D097
S1133D900120404259E0F305DB0DEB1830331F7866
S1133DA00136710A2B6A9C4661442800274B9847C8
S1133DB0002802D00120404247E0F605F60DAD1977
S1133DC03035287800023843E30701D500093CE088
S1133DD00005000D39E0090A2B6A9C46614428005D
S1133DE01A4B9847002802D0012040422DE064007D
S1133DF0FF235B001C402D1930356B781B0228789B
S1133E00184322E0C9092B6A9C46614428000F4BE1
S1133E109847002802D00120404216E0A400FE2367
S1133E205B001C4023003033EB18D87800069A78E6
S1133E30120410432C193034227810435B781B028F
S1133E4018430001000900E00120F8BDB53C000062
S1133E50F8B504000D00E18081680220012903D037
S1133E6023689A69914200D3F8BD002919D11A78C0
S1133E70032A13D00022E2601A890220AA42F3D94D
S1133E802A0992B25B6A9B182361236830330F229C
S1133E9015406D015D1965610020E5E7596A002947
S1133EA0E8D09E783601B54213D3AD1BADB2104FA6
S1133EB000E01D002068B8470100431C12D001280F
S1133EC012D923689B69984210D2AB1B9BB2B542AE
S1133ED0EFD2E1602068074B98472B099BB2181872
S1133EE02061D2E70120BFE70220BDE70220BBE743
S1133EF0553D0000FB370000F0B5C64600B507008D
S1133F000C0016000225012902D98369994203D3C2
S1133F10280004BC9046F0BD0378022B53D0032B39
S1133F2063D00225012B02D001233B71F0E74B083B
S1133F30984688444346590A036A9C4661443B4B6D
S1133F409847051EF0D14346DB05DB0DE2071FD57C
S1133F50FB18303319780F220A403101FF20000189
S1133F6001400A431A704446013401233B71610A3B
S1133F703B6A9C46614438002C4B9847002851D139
S1133F80E405E40D3609F6B23C1930342670CBE76B
S1133F90FB1830331E704446013401233B71610A1F
S1133FA03B6A9C4661443800204B984700283BD12B
S1133FB0E405E40D3B1930331B780F229343360597
S1133FC0360F1E43E0E7090A036A9C466144174B17
S1133FD09847051EA8D16300FF2464002340FB1802
S1133FE030331E70360A5E709EE7C909036A9C4628
S1133FF061440E4B9847051E96D1A400FE235B0036
S11340001C4022003032BA18D3783C1930341B09D2
S11340101B071E432670330A5370330C9370360EFD
S1134020D67081E705007FE705007DE7B53C000019
S1134030F0B5C64600B505008846002907D1C66814
S1134040002E0DD083699E420BD3012609E0264B36
S1134050984701283DD9AB694646984201D23DE0D4
S113406001263400204F0AE021002800B847002828
S11340700DD0431C32D0012830D0B4422DD00134AD
S1134080AB699C42F0D3012E25D90224ECE7174AF0
S113409021002800164B9847002813D14346002BD3
S11340A009D1EC602B695A1C1BD0013B2B61012305
S11340B06B71200012E02200414628000C4B984707
S11340C00028EED0013842424241504201231843B5
S11340D004E0012002E0002000E0002004BC90463F
S11340E0F0BD2000FAE7C046553D0000FFFFFF0F7A
S11340F0F93E0000F8B5CE46474680B504000D00F1
S11341000220012902D9A369994203D30CBC904629
S11341109946F8BD134F144B98460123994603E082
S11341203500A369B342F1D929002000B847061E1F
S113413011D0012811D0431C11D0002229002000E5
S1134140C0470028E2D123695A1CE9D00133236116
S11341504B466371E4E70020D8E70220D6E701204C
S1134160D4E7C046553D0000F93E0000F8B5D646F8
S1134170474680B506000D00C4880134A4B204206B
S1134180002C03D10CBC90469A46F8BD3369002B31
S1134190F8D00F2727400FD101333361F16800298C
S11341A004D133681B89A342ECD905E030688378D5
S11341B0013B22091A4207D0F480336830337F016F
S11341C0DF1977610020DDE72C4B984780460220F9
S11341D04346012BD6D901334BD033689A699045B5
S11341E03FD30230002DCDD0F1681800244B9847FE
S11341F0804607204346002BC4D00538012BC1D08C
S113420001380133BED0002130681E4B98470300AB
S11342100120002BB6D1306830308022920000217A
S1134220194B9847356841462800184B9847E8626F
S1134230002501239A4633689A78AA420ED9524639
S11342401A71002130680F4B9847002813D1326847
S1134250D36A0133D3620135EDB2ECE7DA6A521B5B
S1134260DA624346F36041463068084B9847306150
S1134270A2E7012086E7012084E7C046553D0000FF
S113428031400000B53C0000E9370000FB37000076
S1134290F0B5DE4657464E464546E0B583B00500C8
S11342A000215A4B9847071E00D09EE0FF239946F1
S11342B09A46574B9B461BE00F2B30D05346002B9E
S11342C005D12000534B9847814500D18DE001234F
S11342D05B422B84A869C37ADB0700D47DE0FF230B
S11342E09A46002128004C4B9847071E00D07CE0DA
S11342F029692868D847071E77D16C692678002E6B
S113430000D180E0E27A3F231340E52E00D177E02C
S11343101207D1D50F2B02D0FF239A46E1E7EF69AC
S1134320002FDED0730618D5637B994640239E4345
S1134330EB882B84637B0093FF2292464B45D0D1BC
S11343402378BF3A9343013B5A00D2189200924615
S11343509A440122002399461DE0B245EAD0FF2386
S11343609A46BEE72D4B984701905346FE2B1FD823
S113437001235344984653465B00D85B274B984728
S11343800200019B834213D1C24601239C46E144AF
S11343904B460D2B11D0224B4946C95C63185B7800
S11343A01B02605C1843002ADCD11E4B9842ECD0FF
S11343B0009B9946FF239A4693E723785B0606D52C
S11343C0002A04D053465B00DB5B002BF0D1013E96
S11343D0F3B29A46009B994683E70023E15CC25CF2
S11343E091420AD101330B2BF8D1380003B03CBC05
S11343F090469946A246AB46F0BDFF239A4670E725
S1134400FF239A466DE70427EFE7C046513E0000BC
S1134410B53C0000133800006D410000F14F00006E
S11344202C6F0000FFFF0000F0B5DE4657464E46F5
S11344304546E0B589B004008769C3699A4605AD6D
S11344400C2239002800A74B9847EB7ADB0700D4ED
S113445070E00023FB72E3610B2205A93800A14B35
S11344609847012303AD1E00A04649E001382918EE
S11344704A701B099BB2002B07D0210019400A0087
S11344803032392AF2D90732F0E77E332B54002830
S11344900AD03B78202B09D000230133984207D05F
S11344A0FA5C202AF9D109E0030007E0002305E0C3
S11344B0030003E0FA540133072B05D82022072810
S11344C0F8D82A5C0130F5E74046874B9847002826
S11344D01CD10136B6B2642E15D00B2205A93800C2
S11344E0804B98473300052E0AD951465A08DB03FE
S11344F013430A889B189BB202310A88002AF5D11B
S113450007200F24B9E70723984606E0444680466F
S1134510642E00D1A5E0042807D0404609B03CBC75
S113452090469946A246AB46F0BD05ABDB7AFB72DA
S11345305346E36105ABDB7A012293469B0711D511
S113454053461B88002B1BD000205246013080B2FA
S113455043009B5A002BF9D119300D21634B984726
S113456083B29B4600212000614B98478046002877
S1134570D3D1824600255F4F00265F4B99460BE05E
S11345800020E9E76B1C9BB29B456DD01D00012107
S11345902000C847002812D121692068B8470028A4
S11345A000D098E063691B78E52B01D0002B04D17F
S11345B0002DE7D1E3889A46E4E73500E7E7804633
S11345C0ABE7514620004A4B984780460028A4D1C7
S11345D0A0694A4B98470190A8461FE0220067E073
S11345E05E46644646498B4203D05200935B002BDF
S11345F003D140234A461A4391464B460370012394
S113460022681371002120003B4B9847002866D193
S11346104546013DABB29846002B27D0216920685E
S1134620344B9847002858D1E669606943466A4686
S1134630D370D3789946137943730F23C37200233D
S113464003738376C3764B46013B5A00D21892001B
S1134650D2182C490D000D350023294FB346A4462A
S113466029E00723984658E7012BAAD82169206836
S1134670204B98478046002800D04EE765692022E9
S113468000212800204B98470B22A1692800154BD4
S11346909847A369DA7A182313402B7323680122FD
S11346A01A713AE70C78FF2606550419FF2666703E
S11346B00131A94294D0BB42F4D0541C52005B4651
S11346C0D35A0A78835482181E0A5670002B85D157
S11346D022003B00ECE780461FE780461DE780464A
S11346E01BE7C046D5370000914200005D5800002A
S11346F0513E0000B53C00006D410000133800003D
S1134700FFFF00002C6F0000E937000070B50400C3
S113471000212C4B984700280AD12378032B08D07A
S1134720607800220021284B9847431E9841C0B26C
S113473070BD6379002BF3D00026E6622500303586
S11347408022920000212800204B98475522204BBC
S1134750E25455321F4BE254DE3BFF3B7A3AA354FA
S11347600132A3540F330132A3540F323321625464
S11347703F31852080002154174821541749625441
S1134780174AA35423690132A354190A154AA154A0
S1134790190C154AA1541B0E144AA354E3680132A0
S11347A0A354190A124AA154190C124AA1541B0EFB
S11347B0114AA35460780123626929000F4DA84768
S11347C06671ADE7B53C000019370000E937000019
S11347D02E0200002F020000150200001602000045
S11347E017020000190200001A0200001B02000058
S11347F01D0200001E0200001F020000953600008A
S1134800F0B5DE4657464E464546E0B583B082468F
S11348100D000B782F2B0FD05C2B0DD000235246AC
S113482093602B7857461F2B09D800215046B24B72
S1134830984700237B613AE10135EFE70135287899
S11348402F28FBD05C28F9D0FB699A4680B21F2838
S113485000D83BE12F2800D13BE15C2800D13BE1AB
S11348606E1C012480235B009846BB462B00250068
S113487034005646994611E0002B35D130806B1C2C
S113488020781F281ED92F2800D128E15C2800D1C8
S113489042E102360134434526D01D000121974BE5
S11348A09847011E20D07F28E8D8222800D1FDE0B7
S11348B02A23934A9FB28F42DED001321378002B11
S11348C0F8D1DBE72C005F464D46ED1804260BE1DA
S11348D0013C023B002C00D1E8E01A88202AF7D0E2
S11348E02E2AF5D0002C01D10620E0E06300984682
S11348F000235246414653520B222021B869814B72
S113490098475246002301E00133023211882029DE
S1134910FAD02E29F8D0002B01D003221643524698
S11349204244023A12882E2A09D04246043A52449A
S1134930013C002C03D0023A51882E29F8D10822D8
S11349400192002293469146A04606E0444500D1D8
S1134950E6E003231E43F6B223005C1C5B005246D0
S1134960985A00282CD02028F3D02E28EED0019B72
S11349709B4519D2444500D1D2E07F285ED82B282C
S11349806ED02C23604A99B2814267D001321378E9
S1134990002BF8D10300413B9BB2192B6CD80223A6
S11349A04A461A4391465FE0019B0B2B3BD044459A
S11349B000D1B9E003231E43F6B2444500D8B3E066
S11349C0BB691A78E52A36D0019B082B60D00C23EA
S11349D04A4613400C2B60D0D24392075DD0B207F5
S11349E006D4032249460A40012A59D0042B5AD03E
S11349F0BB69DE723800454B9847BB69DB7A0028F7
S1134A005CD15B0753D47A69D37ADB065CD5517DDC
S1134A100902137D0B431B04D17E0902927E0A43D3
S1134A201343BB600BE703231E43BB691A78E52AD3
S1134A30CDD10B22019205221A70C5E700212F4B1C
S1134A409847002800D179E0314B9C466044803877
S1134A50007802231E43002802D090E7002B99D04F
S1134A6003231E43F6B25F20BB695A4698542300C1
S1134A7001229446E34470E70300613B9BB2192B87
S1134A80F2D801234A461A439146203880B2EBE714
S1134A904B469B00DBB2994699E7022216439EE7F8
S1134AA00F321643A2E704331E43A1E7062003B0E6
S1134AB03CBC90469946A246AB46F0BD0428F6D1CC
S1134AC05B07F4D40130F2E70520F0E7012300246A
S1134AD0FBE60123002405E00123002402E02C006E
S1134AE05F464D46ED180026002CDFD0094BE31835
S1134AF05B005344F1E6C046513E0000A94F00005C
S1134B00BD6F0000E9370000C96F0000914200004A
S1134B103C6F0000FFFFFF7F2C005F464D46E1E73E
S1134B20019B0B2B00D17EE74B469B00DBB29946E1
S1134B3043460B220192033A93460EE702231E4397
S1134B408EE7C0460B23072801D91800704783005D
S1134B50074A9B58002B01D000221A70002901D06B
S1134B6000230B708000024BC1500023EDE7C046C8
S1134B70E8020020F0B5C64600B5594CA54405002E
S1134B8001911700002303601F2616401E223A409D
S1134B9085A901A8534B984782AB8B9302AB8C93A6
S1134BA0002806D08A9C1C233B4245D100283DD1D5
S1134BB00CE0019985A84C4B98478A9C0028F2D1B7
S1134BC0002C00D186E01C233B4246D1E37A04202A
S1134BD0DA062BD4BA0702D50330DB0726D43B0709
S1134BE001D520231E43859BDB6AEB612C62AE71E9
S1134BF0627D1202237D13431B04E17E0902A27E1F
S1134C000A4313432B61E37F1B06A27F1204134361
S1134C10227F1343627F12021343EB600023AB60D5
S1134C20AB61859B2B60DB88AB8000208E239B00CF
S1134C309D4404BC9046F0BD042805D008231E43BF
S1134C408A9C0028D3D0F1E785A8284B98470823ED
S1134C501E438A9C002808D0E8E7E37A1122072043
S1134C601A42E3D101307B07E0D43307BBD5204B94
S1134C709847A073030AE373030C2374000E607453
S1134C800023E37223776377A377E377627D1202CD
S1134C90277D17433F04E17E0902A27E0A4317439E
S1134CA0A376E37623756375859801330371002F2A
S1134CB097D0C36A984639000E4B98470028B5D15F
S1134CC08598013FC76041460B4B9847002800D1A7
S1134CD087E7ABE71C2306203B42B2D00620ADE7B2
S1134CE0C8FDFFFF05390000014800002944000009
S1134CF085370000F5400000B53C0000F0B5DE4605
S1134D0057464E464546E0B583B004000F001500F3
S1134D10994600234A461360818800685E4B984791
S1134D200090002800D0AFE0A3795AB2002A00DA3C
S1134D30A8E0DB0702D407230093A5E0E368A26898
S1134D409E1AAE4200D92E00002E53D19CE0616918
S1134D50524B98475CE0A27980235B421343A371D2
S1134D600223009390E0A27980235B421343A37152
S1134D700123009388E0A27980235B421343A3714B
S1134D800223009380E0A27980235B421343A37142
S1134D900123009378E030314002381880229200D9
S1134DA03F4B984763E04346A361A368DD05ED0DDF
S1134DB080239B005D1BB54200D93500A1692068A2
S1134DC0384B9847002855D1A368D905C90D30310F
S1134DD023689C4661442A003800314B98477F1968
S1134DE0A3685B19A3604B461B685B194A461360B2
S1134DF0761B49D0A368DA05D7D120688278013AB6
S1134E005D0A1540EDB2002D07D1002B9FD120691A
S1134E100128A0D9431CA6D0606123689A46616921
S1134E201800214B98470028A5D08046A844730A4F
S1134E309B46B8D053469B785A46AA189A4201D941
S1134E405B1B9B465B466A46D371D37952465078C6
S1134E5042463900154DA847002894D121680B79A2
S1134E60002B04D0CB6A4246981A834593D85B46FC
S1134E705D02B4E7A27980235B421343A37101234B
S1134E80009301E002230093009803B03CBC9046D9
S1134E909946A246AB46F0BD31380000553D0000AE
S1134EA0D5370000B53C0000FB3700001136000088
S1134EB070B50400818800681C4B9847002802D113
S1134EC0A3799B0600D470BDE1692068184B98470C
S1134ED00028F8D1256AEB7A20221343EB72237B56
S1134EE02B77A3891B0A6B77E389AB77E37BEB779B
S1134EF0237CAB76238A1B0AEB76638A2B75638A41
S1134F001B0A6B750B4B9847A875030AEB75030CCA
S1134F102B76000E6876A37920229343A371012394
S1134F20226813712068044B9847CCE7313800009D
S1134F30B53C0000853700000D47000010B50400A3
S1134F40034B9847002801D10023236010BDC046BD
S1134F50B14E0000F0B5C64600B584B0070001921A
S1134F60050000244B1E98460E4E44450EDA02AB53
S1134F70012203A90198B047029B012B06D103AB80
S1134F801B7801353B5501340A2BEED100232B70DD
S1134F90631E9C4164422740380004B004BC904620
S1134FA0F0BDC046FD4C000003007F2811D9002944
S1134FB011D1C72817D00D4A02320123118881422A
S1134FC004D001339BB20232802BF7D18033FF200F
S1134FD00340180070470023FF28FAD880384000A7
S1134FE0024BC35AF5E70023F0E7C046D06F000038
S1134FF0612814D00B4B043301216222904207D064
S1135000013102339A1E1288002AF7D1030004E00A
S1135010031E02D04900044BCB5A180070470021EC
S1135020F8E7C046D0700000B0720000024A13686E
S1135030013313607047C0460C0300200122014B6A
S11350401A7070479805002070B582B005000E00F4
S113505000226B46DA80064C6B46991D2800A04757
S11350600028F9D16B4606331B88337002B070BD3B
S1135070FD29000070B505008CB2034E2100280004
S1135080B0470028FAD170BDD129000010B5084CF2
S11350902000084B984714232360002363600133E6
S11350A023720133E37221000420034B984710BD9F
S11350B0C0060020851500009915000010B50022D7
S11350C004210448044B984700210420034B9847CB
S11350D010BDC0463D500000611400008D14000056
S11350E010B5074800220270064B5B68DB061B0FF5
S11350F08370C27002714270034B984710BDC04662
S113510070060020004000411116000010B514483C
S1135110144B9847144B1B78002B0BD19B231B0279
S11351201B78FF2B0ED19C231B021B68012001332B
S113513010D010BD0D480B4B984700220A4B1A7033
S11351400020F6E70A48074B98470122094B1A70DA
S11351500020EEE70848034B98470020E9E7C046E3
S113516090740000ED5A000098050020D0740000EF
S1135170FC740000BC0600201475000070B50A4DD4
S11351802C682000094B98471F2318401E3B83407E
S1135190802207498B502A68D369002BFCD12368ED
S11351A002229343236070BD10030020BD1E000043
S11351B000E100E010B50948094B9847FA20C00007
S11351C0084B984772B6BFF35F8F0022064B1A70E4
S11351D0064B9847064B984710BDC04638750000EB
S11351E0ED5A0000211200000C0000207D51000047
S11351F0BD0C000080B500AF064B98479C231B02F2
S11352001A6882F30888044A9360044B1B68984721
S1135210BD4680BDB551000000ED00E0049C0000D7
S1135220F0B5DE4657464E464546E0B583B0844861
S1135230844B9847844930230B70844C012220000E
S1135240834B9847834B187021000C31824D220008
S11352502800824B98472000814B98472800814BB7
S113526098476B46D871804E804D814C01223100A5
S11352709A200002A84720700528F7D06B46D979F8
S11352807C48704DA847784C21787B48A847237800
S1135290FF2B04D06A46073212789A4242D97748E3
S11352A0684B9847764930230B7001226748684B56
S11352B09847684B187000283AD17248614CA0474F
S11352C07148A04700230093604BDB683F221A40DB
S11352D0924699098846002A05D00A000131884679
S11352E092019A1A9246002B00D180E01B0A9BB2CD
S11352F099460027654E5E4D3C029C231B029C464A
S113530064442000B04728700528FAD00137BFB2A2
S1135310B945F1D24346002B69D0002400255C4BEB
S11353209B4629E05B48474B98475B4B9847B9E756
S11353305A48444B9847012003B03CBC90469946D8
S1135340A246AB46F0BD564A40215648564B9847B4
S1135350AC019C231B029C466444544F444E6B4650
S11353601A8850492000B84730700528F7D0013515
S1135370ADB22C00A84513D96B46402249493348A5
S1135380D84701235B4243449946A342DBD15346A9
S1135390002BD8D0424A51464248434B9847D7E75E
S11353A000239B460027314E314D09E0404A4021FD
S11353B040483D4B98470137BFB2BB46B84516D964
S11353C0BC019C231B029C466444402239492000B2
S11353D0B04728700528F8D0D945E7D15346002BAB
S11353E0E4D0334A514633482F4B9847E3E71748F4
S11353F01B4B98472A4B1A682D4B1B689A4203D0C3
S11354002D48104B984796E79A2636021F4D184CA4
S11354103000A84720700528FAD0244D144C0122EE
S11354206B46D91D9A200002A84720700528F6D0A3
S11354302248044CA0472248A047174B98477BE7D3
S1135440D0770000ED5A00002000002074050020F1
S1135450754B00006C06002078060020554F0000B4
S11354603D4F0000895A000028060020E117000083
S1135470CD060020FC7700000C7800001C780000AA
S113548010000020B4780000DC7800004D18000003
S1135490FD4C000060780000F551000088780000A1
S11354A0D40600207C0600204D12000039170000AD
S11354B0D00600202C060020847900001879000012
S11354C04C790000F0B5C64600B590B06D4B9847D6
S11354D08023DB05009300230193FF2269460A81A0
S11354E000228B72CB72012424216846445401317A
S11354F0445401314354013143540A930531435414
S11355000131435405930382C376027602774276CF
S1135510132383764277C4239B03039301235B42C3
S11355200C930D93584B0E93584B0F93E1235B024E
S11355300893574D574B1D60574A584B1A60584AA9
S1135540584B1A606A4658492800584B9847584F98
S11355503B6898680021574EB0473B685868002163
S1135560B0472E683000544B98471F23184084409E
S1135570524B1C602B68DA69002AFCD13368023272
S1135580134333604E484F4CA0474F4B98474F4806
S1135590A0474F4B98474F48A0474F4D494C0020D8
S11355A0A847012809D14D48A0474D48A0474D4E72
S11355B00020B0470228FBD1F1E70028EFD14A4888
S11355C0404B9847494C8C22920000212000484BC4
S11355D0984721000020474B98470B2816D10B21F0
S11355E04548464B9847464B9847464B9847464B49
S11355F098470122454B1A70BFF35F8F62B6444847
S11356003E4B98473D4B9846424F0DE042482D4B48
S11356109847E8E74148394B9847414B98470CE095
S1135620404B984701282AD13F48C047FA20C00080
S1135630B8473E4B98470128ECD03D4B1B78002BD4
S1135640EED03C482D4B9847FF223B4B1A709B26CB
S113565036023A4D3A4C3000A84720700528FAD05B
S1135660354C384D364E012221009B200002A847BC
S113567030700528F7D000222D4B1A70D0E7284B44
S11356809847D1E77533000003002A0003002B007C
S11356901003002010060020755000000C060020A6
S11356A04950000008060020001800428D26000022
S11356B030000020F55B0000BD1E000000E100E0AA
S11356C084750000E15B0000E1110000E475000056
S11356D0390200001C7600006D09000054760000B9
S11356E07C76000059020000AC76000044030020E0
S11356F0DD5A0000454B0000D0760000ED5A000052
S11357008D500000BD500000E15000000C0000204E
S11357102477000021120000007700009077000039
S1135720F551000021520000547700000D51000093
S1135730BC060020A8770000CC0600204D1800000D
S1135740CD06002039170000002243088B4274D391
S113575003098B425FD3030A8B4244D3030B8B426E
S113576028D3030C8B420DD3FF22090212BA030C77
S11357708B4202D31212090265D0030B8B4219D358
S113578000E0090AC30B8B4201D3CB03C01A524178
S1135790830B8B4201D38B03C01A5241430B8B42C0
S11357A001D34B03C01A5241030B8B4201D30B03A9
S11357B0C01A5241C30A8B4201D3CB02C01A5241D0
S11357C0830A8B4201D38B02C01A5241430A8B4293
S11357D001D34B02C01A5241030A8B4201D30B027C
S11357E0C01A5241CDD2C3098B4201D3CB01C01A96
S11357F0524183098B4201D38B01C01A52414309A0
S11358008B4201D34B01C01A524103098B4201D38D
S11358100B01C01A5241C3088B4201D3CB00C01AFA
S1135820524183088B4201D38B00C01A5241430872
S11358308B4201D34B00C01A5241411A00D2014697
S1135840524110467047FFE701B5002000F0F0F820
S113585002BDC0460029F7D076E7704703460B43E4
S11358607FD4002243088B4274D303098B425FD355
S1135870030A8B4244D3030B8B4228D3030C8B4281
S11358800DD3FF22090212BA030C8B4202D3121267
S1135890090265D0030B8B4219D300E0090AC30B3C
S11358A08B4201D3CB03C01A5241830B8B4201D3E9
S11358B08B03C01A5241430B8B4201D34B03C01AD2
S11358C05241030B8B4201D30B03C01A5241C30A4A
S11358D08B4201D3CB02C01A5241830A8B4201D3BB
S11358E08B02C01A5241430A8B4201D34B02C01AA5
S11358F05241030A8B4201D30B02C01A5241CDD24A
S1135900C3098B4201D3CB01C01A524183098B4294
S113591001D38B01C01A524143098B4201D34B017D
S1135920C01A524103098B4201D30B01C01A5241E0
S1135930C3088B4201D3CB00C01A524183088B4267
S113594001D38B00C01A524143088B4201D34B0050
S1135950C01A5241411A00D20146524110467047C2
S11359605DE0CA0F00D04942031000D340425340C7
S113597000229C4603098B422DD3030A8B4212D387
S1135980FC22890112BA030A8B420CD389019211B9
S11359908B4208D3890192118B4204D389013AD0F6
S11359A0921100E08909C3098B4201D3CB01C01ACB
S11359B0524183098B4201D38B01C01A52414309DE
S11359C08B4201D34B01C01A524103098B4201D3CC
S11359D00B01C01A5241C3088B4201D3CB00C01A39
S11359E0524183088B4201D38B00C01A5241D9D251
S11359F043088B4201D34B00C01A5241411A00D2D2
S1135A000146634652415B10104601D34042002BCD
S1135A1000D54942704763465B1000D3404201B54C
S1135A20002000F005F802BD0029F8D016E7704701
S1135A307047C046F0B5CE46474615042D0C2E00DF
S1135A4080B50704140C3F0C9946030C7E435D4358
S1135A50674363437F19340CE4199C46A54203D978
S1135A6080235B029846C4444B4651434343360467
S1135A70360C250C24046544A4195918491920002E
S1135A800CBC90469946F0BD10B50A22002100F0E6
S1135A90EDF910BD70B500260C4D0D4C641BA4101F
S1135AA0A64209D1002602F057F80A4D0A4C641B9D
S1135AB0A410A64205D170BDB300EB589847013637
S1135AC0EEE7B300EB5898470136F2E7647B000039
S1135AD0647B0000647B0000687B00000300821884
S1135AE0934200D1704719700133F9E70FB40B4B9F
S1135AF013B51C68002C05D0A369002B02D120002B
S1135B0000F08CFB05AB049AA1682000019300F01F
S1135B1075FD16BC08BC04B01847C0463000002010
S1135B2070B505000E00002804D08369002B01D154
S1135B3000F074FBAB69AC68002B02D1280000F0C4
S1135B406DFB244B9C420FD16C68A3891B0702D5C3
S1135B502369002B20D12100280000F0F1F900284E
S1135B601AD00120404270BD1B4B9C4201D1AC684D
S1135B70EBE71A4B9C42E8D1EC68E6E7013B0136BF
S1135B80A360002B04DAA269934216DB0A2914D01D
S1135B9023685A1C226019703178A3680029EDD15A
S1135BA0013BA360002B0FDA22000A31280000F029
S1135BB071F9431CD5D00A20D5E72200280000F053
S1135BC069F9431CE8D1CCE70A2023685A1C2260F7
S1135BD01870C8E7D8790000F8790000B879000097
S1135BE010B5034B01001868FFF79AFF10BDC046BB
S1135BF0300000204A424A41802310B55200DB00A5
S1135C0000F002F810BD0000F0B51D004F4B85B048
S1135C101E6804000F000092002E05D0B369002B0B
S1135C2002D1300000F0FAFA494B9C4250D174681A
S1135C30009B022B05D0012B00D984E0002D00DA53
S1135C4081E02100300000F07BFA616B002908D06C
S1135C5023004433994202D0300000F0FFFB0023BC
S1135C6063630023A3616360A3891B0603D52169D1
S1135C70300000F0F3FBA389364A1340A381009B54
S1135C80022B5AD003AB02AA2100300000F05EFBC5
S1135C90A3891843A081002D24D1029D280000F07F
S1135CA0C1FB0195071E42D1029B0193AB4239D13E
S1135CB0012040420223A2891343A3810023A3604D
S1135CC023004733236023610123636105B0F0BDE2
S1135CD0214B9C4201D1B468AAE7204B9C42A7D136
