S013000041365F544748315F4170702E73726563A7
S1130000B0270020A51D0000A11D0000A11D0000B7
S113001000000000000000000000000000000000DC
S1130020000000000000000000000000A11D00000E
S11300300000000000000000A11D0000A11D000040
S1130040A11D0000A11D0000A11D0000A11D0000B4
S1130050A11D0000A11D0000A11D0000A11D0000A4
S1130060A11D0000D50F0000E50F0000F50F0000F2
S1130070051000001510000025100000A11D00004F
S1130080A11D0000A11D0000A11D0000A11D000074
S1130090A11D00000000000000000000A11D0000E0
S11300A0A11D0000A11D0000A11D0000A11D000054
S11300B00000000010B5064C2378002B07D1054B37
S11300C0002B02D0044800E000BF0123237010BDC0
S11300D07401002000000000F84A0000084B10B52D
S11300E0002B03D00749084800E000BF0748036815
S11300F0002B00D110BD064B002BFBD09847F9E72D
S11301000000000078010020F84A0000F84A0000CE
S113011000000000F0B583B001AC01256570002734
S1130120A770257021001720064EB04780221204C4
S1130130054B9A612770657021003720B04703B0E2
S1130140F0BDC046CD0B000000440041F0B5D646DA
S11301504F464646C0B58AB006000F001400316011
S11301600800A04B9847A04A116A851C0123AB40A4
S11301700B43136209A9237B0B701430C5B228000A
S11301809A4B984728009A4B9847207B0021994B1B
S113019098473B681C209B0705D50AB01CBC9046B9
S11301A09946A246F0BD3B681738DB07F5D43068A2
S11301B08C4B9946984705008F49904B9847AD0062
S11301C08F4BEE5000233376737600257383B3830D
S11301D02522B554336214333B60336898461800C3
S11301E0C8478146802308AA137055700123937071
S11301F0D570E069276A002800D1AFE008AB187019
S1130200022308AA5370000CC0B211007D4B98471A
S1130210002F00D1A7E008AB1F70022308AA537077
S11302203F0CF8B21100774B9847A38AF380E38A16
S11302303381237E8022002B04D1734B9B789B0750
S1130240DB0FDA01A16823690B4313432422A25C68
S1130250002A02D08022D2051343A26A13432C221F
S1130260A25C002A03D180229204914202D180220E
S1130270120513432D22A25C002A02D0802212040C
S113028013432E22A25C002A02D08022D2031343FD
S11302904246126813434246136080235B00536056
S11302A048461430C0B2594B98470790FA239B0034
S11302B022685A43914663689A46554DA847009070
S11302C001914B465800A84702900391208EA847FD
S11302D0049005914F4F504A504B00980199B847EC
S11302E002000B0004980599B8474D4E00224D4B6F
S11302F0B047049005914846A84702000B000498B3
S11303000599B84702000B00474D00980199A8478A
S1130310029A039BB0470022444BA847029A039BCE
S1130320434DA847434B9847050080239B04A2688C
S11303309A421ED003004020FF2D00D92DE700244F
S11303400020FF251D40240625430004FF231B0431
S1130350184005434346DD6000201EE70021404667
S1130360354B98474AE701214046334B98470700ED
S113037051E7FA26B60053465E43009801990200FD
S11303800B00274CA047009001913000204B984768
S113039000222A4BB84702000B0000980199244C14
S11303A0A0470022214B204CA047224B9847041E13
S11303B00CD031000798224B98470238001B2B00C1
S11303C0FF2D0CD8FF28BCD94020E6E67100481E5A
S11303D0079B9C4660441A4B98470138EFE740203E
S11303E0DBE6C0462D0F000000040040491C00005D
S11303F0BD1B0000690D000095060000690F000098
S11304001C070020411D000000200041651C000065
S1130410A93D00009131000095D626E80B2E113E2F
S11304200925000000002440913600000000F03F40
S1130430292B0000BD3C0000B50D00000000084061
S1130440A121000003681A7E920707D502221A76BA
S11304505B8B9B074120DB17184070475A8B520770
S113046006D55968C02292020A435A601820F4E75C
S11304700020F2E730B50268002301240225117E32
S113048021420BD1117E294206D101339BB201894D
S11304909942F4D8122002E0002000E0002030BD90
S11304A010B5046862688023DB02134363606162F1
S11304B0024B98470123237610BDC0467504000003
S11304C001680722CB691A42FCD1704770B5040059
S11304D006683268458B838BED1AADB2838B013B82
S11304E09BB2838313011DD5C37A002B03D0838B66
S11304F09BB2012B10D0A38B9BB2002B02D1A37A09
S1130500002B1CD12000124B9847236A5D19282325
S1130510F35CDBB22B7070BD72688023DB02134383
S11305207360E8E7C37A002BE5D0838B9BB2002B82
S1130530E1D172688023DB0213437360DBE72000A0
S1130540034B98477268C0239B0213437360D9E737
S1130550C104000070B5040005686B8B5B0703D50C
S11305601E222523C25470BD468B838BF61AB6B265
S1130570838B013B9BB28383044B9847236A9E1968
S11305803378DBB22822AB54EDE7C046C104000047
S1130590F8B505000C0006684B6803624B8883833A
S11305A001222423C25404320133C25437683F0168
S11305B0FF0F4B7A002B17D1002F02D06388012B39
S11305C016D07368204A13407360237A002B15D128
S11305D00323B37523885B00627A920313430122D9
S11305E0134373620020F8BD897A184B9847E3E7F8
S11305F072688023DB0213437360E6E723885B00A1
S1130600627A920313438022120213437362280016
S11306100F4B984773680C4A134073600028E2D16B
S113062028000C4B98470028DDD10323B375238899
S11306301B0A782213435B00627A920301210A4366
S113064013437362CFE7C046FFFFFBFFA104000022
S11306507504000045040000931C9B00C3185960F6
S1130660037E012191400B43DBB203767047000007
S113067010B5838B9BB20522002B01D0100010BD56
S113068001338372C372024B98470200F6E7C046F7
S11306909105000070B58000754BC45825682B681F
S11306A01B01DA0F637E267E1E40638B9BB2002BF8
S11306B003D1A38B9BB2002B23D1638B9BB2002B62
S11306C008D0A38B9BB2002B04D12533E35C052B0C
S11306D000D16DE0638B9BB2002B24D0A38B9BB223
S11306E0002B20D06B8B9B0600D581E0002A04D020
S11306F0A38B9BB2012B00D17AE041222523E25443
S113070011E02B7EDB0707D501232B766B8B9B0730
S11307102ED541222523E254A38B9BB26383252348
S1130720E35C052B38D0638B9BB2002B07D0A38BE3
S11307309BB2002B03D12533E35C052B64D0252326
S1130740E35C052B13D02523E35C002B0FD003239C
S11307502B7500236383A3832533E35C412B03D0F0
S1130760A37A002B00D075E0730700D57BE070BD41
S11307706B8B5B07D0D518222523E2540023A38377
S1130780A37A002BC8D020003A4B98476A68C0234C
S11307909B0213436B60BFE71F33E35C002B03D062
S11307A02000354B9847BEE72000344B9847BAE702
S11307B01F33E35C002B00D08CE703332B7500233D
S11307C0638325330022E254A37A002B07D101234B
S11307D02B76F307A7D5E36820009847A3E720000A
S11307E0244B98476A68C0239B0213436B60F0E76D
S11307F02423E35C002B03D12000204B984792E78D
S113080020001D4B98478EE71F33E35C012B96D1E4
S11308102B7E9B0701D502232B7603232B75002304
S1130820638325330022E254B30703D52423E35C16
S1130830012B0BD0F30700D481E72423E35C002BC6
S113084000D07CE7E3682000984778E7236920001C
S1130850984774E72000074B98476A68E023DB0257
S113086013436B6080E76369200098477FE7C046C5
S11308701C070020C1040000CD0400005505000041
S113088010B50400037C002B05D08368581CE16874
S1130890074B9847A1606368581CE168044B98476C
S11308A06160A368591A4A424A41227410BDC04685
S11308B0AD22000070B505000C001420044B9847CD
S11308C00560C460002343608360037470BDC04648
S11308D03141000010B5036842689954014B9847B0
S11308E010BDC04681080000027C0023002A05D107
S11308F0436880681B1A58424341DBB218007047B2
S113090070B504000D000A4B984700280DD12368E8
S1130910A2689B5C2B7000232374A368581CE168B5
S1130920044B9847A160002070BD01204042FBE7C2
S1130930E9080000AD22000010B5064B186806490E
S1130940064B9847431C04D0012203490448054B35
S1130950984710BD18070020140700200109000063
S1130960D80200201D14000030B591B08025AD00E0
S113097029003648364CA047364B186029003648C3
S1130980A047364B18608023DB05009300230193B6
S1130990FF2269460A8100228B72CB720121242036
S11309A06C46215401302154253163540131635480
S11309B00A93053163540131635405932382E3762A
S11309C02276227762761323A3766277E1235B0291
S11309D00893C4239B03039301235B420C930D935D
S11309E01F4B0E931F4B0F931F4D204C6A462049FB
S11309F02800A0470028F9D11B4D2C6820001D4B6E
S1130A0098471F2318401E3B83401B4A13602A68E3
S1130A10D369002BFCD12368022213432360124CB8
S1130A20002216492000164DA8470122154920002E
S1130A30A8473122A35C03210B43A354303A124943
S1130A402000124B984711B030BDC0461405002059
S1130A50B50800000C030020140300201807002030
S1130A6003002A0003002B00D802002035100000E8
S1130A7000180042A50F000000E100E03909000061
S1130A8005140000050B0000100300203D140000B5
S1130A90F0B5C64600B505000024002812D0114E5A
S1130AA0114F124B984603E0295D3868C047013462
S1130AB02800B0478442F7D301210D480D4B9847D5
S1130AC0002802D004BC9046F0BD0B4C064B1868BD
S1130AD021000A4B9847012221000548084B9847FA
S1130AE0F0E7C046FD42000018070020D5080000CA
S1130AF0D80200205D140000140700200109000042
S1130B001D14000010B582B00D4C20000D4B984709
S1130B102378082B0CD00A4C21780B4B18680B4B0C
S1130B209847012221000A480A4B984702B010BD99
S1130B3001A818330370183B4370024B9847EAE747
S1130B4010030020910A00000C030020D5080000C7
S1130B50D80200203D140000704700000C4B1B68B5
S1130B60002B06D1EFF31083002B07D00022094B92
S1130B701A70074A136801331360704772B6BFF3E3
S1130B805F8F0022044B1A700132024B1A70F0E797
S1130B9090010020940100200C000020084B1A68EA
S1130BA0013A1A601B68002B09D1064B1B78002BF5
S1130BB005D00122044B1A70BFF35F8F62B67047F1
S1130BC090010020940100200C00002000B583B0A7
S1130BD001AB80221A700A785A704A789A708A781F
S1130BE0DA701900014B984703B000BD411D0000A5
S1130BF0F0B5DE4657464E464546E0B587B08046DA
S1130C00049116001F000022002300218B463F247C
S1130C1001202100009601975C4603944446059404
S1130C2013E02024641A0500E540A84614E0009C63
S1130C30019D121BAB415C464D462C43A346039CCD
S1130C4045462C430394013925D3202464420C19CE
S1130C50E7D40500A540A84604008C40A14692189C
S1130C605B4114001D00059E4F463E40B446049E61
S1130C7047463E40B246664657463E4303D00600CA
S1130C80264332002B00009C019D9D42DBD8CED12F
S1130C909442D8D8CBE7039B5846190007B03CBC14
S1130CA090469946A246AB46F0BD10B5490840238C
S1130CB00024814202D2180010BD1C00091A631CD2
S1130CC09BB28842F9D94023FF2CF4D81480002326
S1130CD0F1E70000F0B583B00F00160008AA117800
S1130CE004004C434022BC4202D9100003B0F0BDC2
S1130CF0002B14D1020008000021194CA047010068
S1130D003A0000230020174CA04700220123121AA6
S1130D108B41120C1B041A4332800022E5E70022A7
S1130D20012BF9D10A00002300210D4CA047020039
S1130D300B0000920193380000210A4CA0470500E3
S1130D4080239B0140229842CFD8790FF800009A63
S1130D50019BA047EA00821AD2B252032A43DBE77E
S1130D60F9220000F10B000010B582B004000E4B14
S1130D701B78002B07D0002905D10B4B5B788342ED
S1130D8010D01D200CE001A90C701320074B9847CC
S1130D901320074B9847044B5C7001221A70002003
S1130DA002B010BD0020FBE798010020491C0000A0
S1130DB0BD1B0000404B984231D00AD93F4B9842AA
S1130DC04DD03F4B98425AD03E4B984237D00020EA
S1130DD070473D4B98420CD03C4B9842F7D10129C7
S1130DE017D000295DD0022915D0032915D0002081
S1130DF0EEE7012907D0002951D0022905D00329A3
S1130E0005D00020E4E73248E2E73248E0E7324820
S1130E10DEE73248DCE73248DAE73248D8E701292E
S1130E2007D000293FD0022905D0032905D000208E
S1130E30CEE72D48CCE72D48CAE72D48C8E701295D
S1130E4007D0002931D0022905D0032905D000207C
S1130E50BEE72848BCE72848BAE72848B8E701298C
S1130E6007D0002923D0022905D0032905D000206A
S1130E70AEE72348ACE72348AAE72348A8E70129BB
S1130E8007D0002915D0022905D0032905D0002058
S1130E909EE71E489CE71E489AE71E4898E71E48AE
S1130EA096E7032094E71D4892E71D4890E71D4804
S1130EB08EE71D488CE7C04600100042001800422F
S1130EC0001C00420014004200080042000C0042D2
S1130ED003000500030006000300070003000100EF
S1130EE003001E0003001F000300090003000A00A2
S1130EF003000B00030011000300120003001300A1
S1130F0003000D0003000E0003000F000300170090
S1130F100300180003001900030004000300080084
S1130F200300100003000C000300160030B587B066
S1130F300B4B6A4632CB32C232CB32C2009B834265
S1130F400BD001239A0069465258824206D00133DD
S1130F50062BF7D1002007B030BD0023D8B2FAE742
S1130F609449000070470000F0B50A4B1B78002B31
S1130F700CD1094F094E0A4D0024DE515A19146050
S1130F800433182BF9D10122024B1A708000024B52
S1130F90C150F0BD9A0100209C010020650F0000A3
S1130FA01C07002000B583B009236A46137001337F
S1130FB05370013393700133D370013313710133D0
S1130FC05371034B98476B46185603B000BDC04697
S1130FD02D0F000010B5024B1B680020984710BD70
S1130FE09C01002010B5024B5B680120984710BD9E
S1130FF09C01002010B5024B9B680220984710BD4D
S11310009C01002010B5024BDB680320984710BDFB
S11310109C01002010B5024B1B690420984710BDA9
S11310209C01002010B5024B5B690520984710BD58
S11310309C010020F0B5DE4657464E464546E0B5D5
S113104091B005000C00160029600800BC4B9847BD
S1131050020023680520DB0706D511B03CBC90468E
S11310609946A246AB46F0BD236817309B07F4D4DB
S1131070B449086A971C0123BB4003430B620FA9C0
S11310802D27F35D0B701432D3B202931800AE4BCC
S113109098470298AD4B9847F05D0021AC4B9847B8
S11310A0F37A6B712423F35CAB712523F35CEB714E
S11310B0F37E2B72337F6B722B6898461800A04B1B
S11310C09847143000220E2306A98C4663441A80E4
S11310D0328A02928023DB019A4200D19EE00FD92A
S11310E0C023DB01029A9A4200D192E080231B02C2
S11310F09A4200D01FE1032306930023079308E0DC
S113110080239B019A4200D015E1102306930F3BE4
S1131110079333680593F368039373690493337EE9
S11311209B462623F35C9A4673689946002B00D1AC
S1131130A0E080235B05994500D184E0737E002BF9
S113114002D0B37E424693732A68029FD369002B70
S1131150FCD10E3306AA944663441B88424693810D
S1131160059B039A1343049A13434A4613431F43AC
S11311705B461B021F4353465B071F432723F35C55
S1131180002B01D104331F43737E9B02327F520232
S11311901343727F120213432422B25C520413439A
S11311A02522B25C12041343B17AF27A1143194333
S11311B03389FF2B00D181E0802252041743194365
S11311C02C23F35C002B03D1624B9B789B0701D546
S11311D080231F432A68D369002BFCD143465960FE
S11311E02A68D369002BFCD143461F600EAB8022D2
S11311F01A7000225A70DA709A70336B0A93736B08
S11312000B93B36B0C93F36B02930D9300270AAE0D
S113121063E008230693073B07937AE73368059353
S1131220F368039373690493337E9B462623F35C2C
S11312309A4673689946002B18D080235B0599451C
S113124001D0002025E02723F35C002B00D075E7B4
S1131250336A1F00C0B2404B984701000E2206AB10
S11312609C46624438003D4B984712E0082306939D
S1131270002307932723F35C002B0ED0069B0093D7
S1131280079B0E2206A98C466244B16A306A344F29
S1131290B847002800D0E0E650E7336A1F00C0B228
S11312A02D4B98470100069B0093079B0E2206A82E
S11312B08446624438002A4FB847EAE7F37E002B9D
S11312C000D17DE78023DB041F4379E72000254B11
S11312D0984707E00137042F0DD0F9B2BB009859A5
S11312E00028F3D0431CF5D00EA90870000CC0B23E
S11312F01D4B9847EEE70023EB602B616B61AB61FC
S1131300EB612B62AB626B620022EB85AB85303301
S1131310EA540133EA540133EA540133EA542868A5
S1131320074B984704001149114B9847A400114BEF
S1131330E550002091E61023069300230793E8E686
S11313402D0F000000040040491C0000BD1B0000DC
S1131350690D000000200041651C0000AB0C00007A
S1131360D50C0000B50D0000411D000079140000EB
S1131370690F00001C070020F8B506000C001500DA
S113138007680A4B9847F38D9BB2002B03D0084B98
S113139098470520F8BDF585054B9847B4620522AA
S11313A03323F254323BBB750020F3E75D0B00009E
S11313B09D0B0000F8B504000D00160007680F4BE4
S11313C09847A38D9BB2002B03D00D4B9847052063
S11313D0F8BDA6850A4B9847656205223223E2547C
S11313E02E3BBB75237A002B01D02023BB75637A77
S11313F00020002BECD00823BB75E9E75D0B00004F
S11314009D0B0000931C9B00C318596030210123DD
S113141093401A00435C13434354704710B5172399
S1131420002A01D1180010BDC4790533002CF9D06D
S1131430014B98470300F5E77913000010B5172313
S1131440002A01D1180010BD84790533002CF9D08D
S1131450014B98470300F5E7B5130000002903D0BA
S1131460012905D0172002E03223C05CC0B27047C6
S11314703323C05CC0B2FAE7F8B58000624BC558AC
S11314802C68E369002BFCD1237EA67D1E4030230B
S1131490EB5C3122AF5C1F40F30722D5EB8D9BB28E
S11314A0002B1CD0AA6A1378DBB2511CA96269799B
S11314B001290ED09BB2DB05DB0D2385EB8D013BAF
S11314C09BB2EB85002B0CD1013323750133A3753B
S11314D007E0517809020B430232AA62EBE70123C9
S11314E02375B30706D50223237500223133EA544A
S11314F0FB071AD4730765D5AB8D9BB2002B5FD065
S1131500638BDBB21A0714D43F221340002B34D070
S11315109A0711D51A223223EA54303B63837B079E
S113152050D528006B6998474CE02800EB68984731
S1131530E0E737221340E9E75A0705D51E22322394
S1131540EA542E3B6383EAE7DA0705D513223223F4
S1131550EA54313B6383E2E7DA0605D542223223BB
S1131560EA54223B6383DAE720221A42D7D021329D
S11315703223EA54123B6383D1E7238DDB05DB0D71
S1131580DAB2696A0A706A6A511C69626979012966
S113159010D0AB8D013B9BB2AB85002B12D1043331
S11315A0237500222E33EA54BB070BD528002B6980
S11315B0984707E01B0A53706B6A01336B62E8E7D4
S11315C004232375F30604D5102323752376FB0621
S11315D00ED4B30604D52023237523763B070BD4FE
S11315E0330704D5082323752376BB0608D4F8BD36
S11315F02800EB699847ECE72800AB699847EFE7C8
S11316002B6A28009847F2E71C07002010B5082829
S113161003D880001C4B1B589F46002032E01B4B14
S113162018692FE01A4B1B6A9B059B0F1948D84079
S113163028E0164B586925E0144B1B6800209B07D3
S113164020D513491022CB681A42FCD00F4B1A68DC
S113165024231340042B01D00F4813E000200F4B28
S113166098470A4B9B681B041B0C58430AE0502301
S1131670074AD35C00205B0704D5044BD86801E01B
S11316808020000210BDC046AC490000B401002017
S11316900008004000127A00006CDC02651C0000A7
S11316A070B50C490B6A04788578407801221040A3
S11316B080014026B34303432A40D2018020834360
S11316C013430322224012020348034013430B62D4
S11316D070BDC04600080040FFFCFFFFF0B5DE46C9
S11316E057464E464546E0B50100264B9B469B8A2D
S11316F0457800784242424191468878CA789446B7
S11317000A7990464E7B0F7B8C7B8A681E494A611E
S113171001214A4692009146042293434A461343C8
S113172042460A40D200904608229343424613435D
S113173062460A40120194461022934362461343C0
S1131740084040012022934303430F40BF0140203F
S113175083433B430E40F60140308343334379389F
S113176005402D02094803402B4321400903084842
S113177003400B435A4693823CBC90469946A2468A
S1131780AB46F0BD00080040B4010020FFF8FFFFA5
S1131790FFEFFFFF10B5037A9B061B0C42899205ED
S11317A0920D134318494B608379C27913434288DD
S11317B08488224313434278D20113430B60037895
S11317C0042B11D0202B0ED1037B9B06028A1343DA
S11317D0C28912040D490A4013430B4A93601168ED
S11317E00B4B0B43136010BD037B9B06028A134310
S11317F0C289120405490A401343034A93601368DB
S113180004210B431360EEE7B40100200000FF0342
S113181024040000082803D88000254B1B589F4649
S1131820172044E0234A136A02210B431362002069
S11318303DE0204A936902210B439361002036E086
S11318401C4A138A02210B43138200202FE0194AF9
S1131850938A02210B439382002028E016490B68E7
S1131860022213430B60134B9A8419000E32CB6887
S11318701A42FCD0104A91680E4BD96252689A629F
S113188000229A8419001032CB681A42FCD00A4B09
S11318901B689BB2074A9384002008E00549442250
S11318A08B5C022003438B54002000E0002070472F
S11318B0D049000000080040B4010020F0B58FB00A
S11318C0C222D200454B9A60454A53681E218B437D
S11318D01A390B435360022201AB1A700024414DA4
S11318E0E0B201A9A8470134252CF9D10AA80023A4
S11318F003708370802212028260C370012202711D
S113190083730621417043730273374B9847052054
S1131910364B984731490222CB681A42FCD005ABBA
S113192000210022598099809A71DA713F315981DE
S11319303B3919705A702E4B1B689B0E3F2B4BD0B2
S113194005A80372B723DB000382032303731C334C
S1131950C381284B984704A801258570002606708A
S11319604570254B98470620204FB847234B98478E
S113197001AC0295667026726672052323702100FD
S113198001201F4B984701201E4B984725702100CA
S11319900020144B984700201B4B98470720B8475A
S11319A00E49D022CB681340D02BFBD1174A002319
S11319B0137253729372D37201A901224A604B705D
S11319C04B7207330B700A7200200D4B98470020AE
S11319D00C4B98470FB0F0BD203BB1E70008004026
S11319E000400041491C0000DD16000015180000ED
S11319F02460800095170000A1160000111A000051
S1131A00351A0000ED1A0000BD1B00000004004060
S1131A10064A936908210B4393610122044B1A700F
S1131A2019000B781342FCD17047C04600040040F3
S1131A30000C004070B5060004000D782D0205432B
S1131A404B78002B02D08023DB021D434B7A002B02
S1131A5002D080231B031D434868012810D9431E6C
S1131A60184234D1022830D90223002201325B000B
S1131A709842FBD812023243140080235B031D43B7
S1131A800B7A002B02D080239B031D43134A537807
S1131A905BB2002BFBDB124B9847124B1E700F4AB4
S1131AA053785BB2002BFBDB0C4B9C601A00537821
S1131AB05BB2002BFBDB094A5368802149020B40CF
S1131AC01D435560084B984770BD0022D2E70402BD
S1131AD0344380239B021D43D2E7C046000C0040E0
S1131AE05D0B0000080C00409D0B000010B50400C5
S1131AF00B4A53785BB2002BFBDB0A4B98470A4B2B
S1131B001C70074A53785BB2002BFBDB044A516814
S1131B1080235B020B435360044B984710BDC046BF
S1131B20000C00405D0B0000040C00409D0B000005
S1131B3070B504001A4A53785BB2002BFBDB194BD7
S1131B409847194B1C70164A53785BB2002BFBDB89
S1131B50134E7068C004C00E144B98470500124B16
S1131B601C707668F602F60F114B1C700C4A537801
S1131B705BB2002BFBDB0A4B9C682402240C0D4B4C
S1131B809847002E07D1012C07D9210028000A4BC1
S1131B909847050001E00134E540280070BDC046C7
S1131BA0000C00405D0B0000040C00400D1600000A
S1131BB0080C00409D0B0000A121000010B504009A
S1131BC0064B9847064B1C70064A53888021C9016E
S1131BD00B435380044B984710BDC0465D0B000077
S1131BE0020C0040000C00409D0B000010B50400E6
S1131BF00F4B98470F4B1C700F4A53881B05180F47
S1131C0053880E490B40538053880D490B40538031
S1131C1011008022D2014B881342FCD106494A8824
S1131C2003020648024013434B80064B984710BDFD
S1131C305D0B0000020C0040000C0040FFF0FFFFB1
S1131C40FFBFFFFF9D0B000010B50C782402044376
S1131C50024B9847A4B2024B5C8010BDED1B000000
S1131C60000C004010B50400064B9847064B1C704E
S1131C70064B5C882405240F054B98472000054B30
S1131C80984710BD5D0B0000020C0040000C0040A2
S1131C909D0B0000311B000030B5D378002B35D1EB
S1131CA01378802B29D01B068024640223435478A4
S1131CB00225AC4306D19478002C20D18024A402C0
S1131CC0234341605478013C012C1CD90D042D0C94
S1131CD0A024E4052C431C4384620D0CD024240668
S1131CE02C431C438462D478002C22D15B031CD582
S1131CF09378012B1ED0416117E00023D7E7C0245D
S1131D00E4022343DDE70D4C2340DFE741600C048C
S1131D10240CA023DB05234383620C0CD0231B0675
S1131D2023438362D378002B03D15378013B012BE7
S1131D3002D930BD8161F8E78160FAE7FFFFFBFF5C
S1131D4010B50A00C1090023002904D14309DB01AD
S1131D5005498C4663441F2420400121814018001A
S1131D60024B984710BDC04600440041991C000036
S1131D707047000010B5054B9847054B9847054B35
S1131D809847054B9847054B984710BDBD18000070
S1131D9015010000711D0000711D0000711D00007F
S1131DA0FEE70000F8B52A4A2A4B9A4211D01A00DD
S1131DB0294B9A420DD2294A03339B1A9B080133BB
S1131DC09B000022234822498C58845004329A42B2
S1131DD0FAD1234A234B9A420AD2D34321495B18AE
S1131DE003218B4304339B18002102C29342FCD18C
S1131DF01D4AFF211D4B8B439360FD3990235B00EB
S1131E001B4AD1501B4AD3780325AB4302242343F6
S1131E10D370D3780C27BB4308263343D370164BB7
S1131E20987B30229043202210439873997BB943C6
S1131E30314399739A7BAA4322439A730F4A536896
S1131E4080210B4353600E4B98470E4B9847FEE797
S1131E50F84A000000000020740100200400002063
S1131E6074010020AC07002000ED00E00000000039
S1131E700070004100500041004800410040004112
S1131E80E9400000991F00000300064A1268002A76
S1131E9004D0044A1068C318136070470249014A09
S1131EA01160F6E7CC010020B027002010B50248ED
S1131EB0024B984710BDC046F4490000910A000047
S1131EC030B58FB001AB64220192224A0292002203
S1131ED003921A731A7680218903059101214942DC
S1131EE0D982998225315A540B9208315A540131BE
S1131EF05A5401315A54D7321A86174A0892174A4B
S1131F000992174D174C01AA17492800A047002829
S1131F10F9D1134B1C680722E3691A42FCD12368E8
S1131F200222134323600E4D2868104B98471F2349
S1131F3018401E3B83400E4A1360E888002310219A
S1131F40628B0A4204D101338342F9D310236383A1
S1131F500FB030BD480D0000020008000200090067
S1131F60740700204D01000000080042A50F000086
S1131F7000E100E010B5054C012205492000054BA5
S1131F809847637E02221343637610BD74070020D2
S1131F90AD1E000059060000F0B5DE4657464E4619
S1131FA04546E0B5A1B0604B9847604B9847604BFD
S1131FB0984701225F4B1A70BFF35F8F62B65E4B86
S1131FC098475E4B98475E4B6920188080225200E8
S1131FD05A805C4959605C4908804A805B4B4B607D
S1131FE05B485C4B98470023984699465A4B9A465F
S1131FF0009601970CE0594913A8594B984713A828
S1132000584B98470722584B1A7001239C46E144C9
S11320100020D04704000025830F01938300009320
S11320200098019900196941001849414F4A002359
S1132030801859414E4A00234E4EB0474E4B9847A4
S113204001239C46E044FF3398451ED04346402B71
S1132050DEDD3D4B5B6842469A5C002AD8D043469D
S1132060FE2BD5DC03AB49465A543F4B1B78002B5F
S1132070C1D0424913A83A4B984713A8394B984703
S1132080394A1378013B1370BFE703AB9A7CD87CC1
S11320901218187D8218587D801880B2997EDA7ED5
S11320A089181A7F51185A7F521892B28018222226
S11320B0995C01329A5C891824229A5C5118252271
S11320C09A5C521892B280182A22995C01329A5C66
S11320D089182C229A5C51182D229A5C521893B2BA
S11320E0C318DA170F201040C0180003000C244B4B
S11320F09847244A244B254CA0470022244B254CC6
S1132100A047254B984782B2244902A8144B98470C
S113211002A8144B9847002021B03CBC9046994635
S1132120A246AB46F0BDC046751D0000590B000029
S1132130690900000C000020C11E0000751F00008A
S113214068070020100000209C070020D001002018
S11321507407002071060000311B00000C4A0000C7
S1132160B9420000910A00000D000020571B000036
S1132170581B0000B922000001000020084A00009A
S1132180253D0000333333333333E33F91310000D3
S113219000003440092500004D230000144A0000CB
S11321A0002243088B4274D303098B425FD3030A92
S11321B08B4244D3030B8B4228D3030C8B420DD3A5
S11321C0FF22090212BA030C8B4202D31212090233
S11321D065D0030B8B4219D300E0090AC30B8B4271
S11321E001D3CB03C01A5241830B8B4201D38B031F
S11321F0C01A5241430B8B4201D34B03C01A5241C4
S1132200030B8B4201D30B03C01A5241C30A8B4206
S113221001D3CB02C01A5241830A8B4201D38B02F1
S1132220C01A5241430A8B4201D34B02C01A524195
S1132230030A8B4201D30B02C01A5241CDD2C30907
S11322408B4201D3CB01C01A524183098B4201D383
S11322508B01C01A524143098B4201D34B01C01A6E
S1132260524103098B4201D30B01C01A5241C308E6
S11322708B4201D3CB00C01A524183088B4201D355
S11322808B00C01A524143088B4201D34B00C01A41
S11322905241411A00D20146524110467047FFE7AD
S11322A001B5002000F006F802BDC0460029F7D0B1
S11322B076E770477047C046002B11D1002A0FD132
S11322C0002900D1002802D00021C943081C07B40A
S11322D0024802A14018029003BDC046D9FFFFFF87
S11322E003B4684601B5029800F04EF8019B9E467F
S11322F002B00CBC7047C046F0B5CE464746150444
S11323002D0C2E0080B50704140C3F0C9946030CC9
S11323107E435D43674363437F19340CE4199C4651
S1132320A54203D980235B029846C4444B465143DB
S113233043433604360C250C24046544A419591867
S1132340491920000CBC90469946F0BD70B5002296
S11323500C4B04000D0001F093FD002804D1200073
S1132360290001F0ABFC70BD064B002220002900BF
S113237001F08EF901F0A2FC80231B069C46604408
S1132380F1E7C0460000E041F0B557464E464546E9
S1132390DE46E0B5040083B00D00924699468B42B8
S11323A02FD82CD04946504601F092FD2900060052
S11323B0200001F08DFD331A9846203B9B4600D542
S11323C074E053465A4693401F0053464246934096
S11323D01E00AF4229D826D05B46A41BBD41002B6A
S11323E000DA79E0002200230092019301235A4687
S11323F093400193012342469340009319E08242A3
S1132400D0D900220023009201930C9B002B01D011
S11324101C605D600098019903B03CBC90469946ED
S1132420A246AB46F0BDA342D6D9002200230092B7
S113243001934346002BE8D0FB0772081A43464633
S11324407B080EE0AB4201D1A2420CD8A41A9D41F4
S1132450012024196D410021013E24184D41002E14
S113246006D0AB42EED9013E24196D41002EF8D1BD
S11324705B460098019900196941002B22DB2B006F
S11324805A46D3402A004446E2401C005B461500ED
S1132490002B2CDB26009E40330026004746BE401E
S11324A03200801A994100900191AEE74246202300
S11324B09B1A5246DA40414613004A468A401700A6
S11324C01F4382E7424620239B1A2A0046469A402D
S11324D02300F3401343D5E74246202300219B1AEF
S11324E00022009101920122DA40019282E74246E1
S11324F0202326009B1ADE402F00B44697406646F0
S11325003B003343C9E7C046F8B54546DE46574667
S11325104E460C03E0B54E00C90F88460D00610A13
S1132520440F0C43C70019035800DB0F9B464B0AAA
S1132530510F0B43760D400D1900D200D84500D140
S1132540AEE0351A002D00DCF6E000280FD113436D
S113255000D1DBE06B1E002B00D037E1BA1A9742A2
S1132560BF41641A7F42E41B0126170024E0C64BD6
S11325709E424DD080231B041943382D00DD07E112
S11325801F2D00DD38E12020431B9A460B005046E6
S11325908340994613004846EB40184303005046D5
S11325A08240501E8241E9401A43BA1A611A974286
S11325B0A441170064420C1B230262D56402650A1D
S11325C0002D00D1DFE0280001F064FC0300083B8B
S11325D01F2B00DDD2E020223C00D21A9D40D440C3
S11325E09F4025439E4200DDC4E09E1B731C1F2BAD
S11325F000DDF1E0202238002900D21AD8409140B1
S113260097402C000143781E8741DC4000260F438D
S11326107B0709D00F233B40042B05D03B1DBB4255
S1132620BF417F42E4191F0023022CD5964B01368B
S11326309E4200D19AE04546944BFF081C40600737
S1132640760564020743240B760D00212403230B33
S11326500C0D8F4A24051C431440330523435B00AF
S1132660ED075B082B43380019003CBC90469946A3
S1132670A246AB46F8BD6446044300D111E204000F
S113268067467B07C6D145466007FF080743E40851
S11326907D4B9E4230D024037605240B760DD4E77F
S11326A0331A9A46002B78DD002831D076488642CA
S11326B0AED08020000401435346382B00DCE9E00F
S11326C00A43511E8A410021D219BA42BF41091955
S11326D07C4217000C192302D3D56B4B01369E4262
S11326E000D13AE10120694B1C407B0807401F439D
S11326F0E007074364088BE723003B4300D1CBE1A9
S11327008022120314432403240B9EE72E007FE748
S11327100800104300D1B4E0581E002800D0DEE0C9
S1132720BA18BA429B4164185B42E41817000126A8
S11327302302A6D50226D5E7002D6ED1701C4005D4
S1132740400D012800DCF9E0B81A84468742804134
S1132750E51A40422D1A280200D489E0D71BBA4258
S113276092411C1B5242A51AD84629E7454600242B
S113277000276AE7454CF61A2C4049E73D00283803
S1132780854000272EE7380001F084FB20301DE748
S11327900A43511E8A41002107E7002B00D0F3E0D1
S11327A0701C43055B0D012B00DCADE0364B9842F9
S11327B000D1D1E0BA18BA42BF4164187F42E4198B
S11327C0E707520817436408060021E72E488542AC
S11327D000D193E01D00D0E629001F3EF140202BDC
S11327E000D18DE04022D31A9D402F437D1EAF417E
S11327F000240F43002644E72B000800203BD84068
S11328000300202D00D17DE04020451BA9400A4350
S1132810511E8A4100211A43C7E6002E50D01A4E99
S1132820B04257D080266B429946360434434B4617
S1132830382B00DDD6E01F2B00DD35E12026F51A0C
S11328402600AE40B2463E00DE40AC463500564659
S11328502E436546AF407D1EAF41DC403743D71B56
S1132860BA4292410C1B5242A41A0600D846A3E66F
S1132870644667462C4300D0A2E6002500260027C4
S113288006E71E00C4E6C046FF070000FFFF7FFF07
S1132890FFFF0F801F2B63DC2020C31A0800984021
S11328A09C46834653461000D840030058461843BC
S11328B063469A40531E9A4153460243D94003E764
S11328C026003E4306D0EB439946002BC7D0944ED6
S11328D0B042ACD10C0017000600D84698E6904BE5
S11328E09A450BD08246E7E6002800D09EE0180007
S11328F0104300D1E9E01C001700D846884E87E653
S1132900002572E7002182E723003B43002E00D01C
S1132910ABE0002B00D1E7E00B00134300D177E6D6
S1132920BA18BA42BF4164187F42E419230200D4A2
S1132930F2E07C4B17001C40060069E62000384397
S1132940002ED1D100285BD11C00144300D1A8E093
S11329501C001700D8465BE606000024002797E613
S113296050460B002038C34099465346202B00D1D3
S113297095E0402350461B1A99400A43511E8A4150
S11329804B4600211A439FE6002E30D126003E43D9
S113299067D0DB439A46002B1CD0614EB04260D016
S11329A05346382B00DD96E01F2B00DD9FE02026E8
S11329B0F31A26009E409C46B34653463E00DE4032
S11329C033005E461E4363469F407B1E9F41534631
S11329D0DC403743BF189742924164185242A4180E
S11329E0060078E627437C1EA741002437E74C4EB7
S11329F0B04236D080265B4236049A463443CFE751
S1132A001800104300D103E6B81A84466745AD4167
S1132A10E01A6D42401B050200D42CE6D71BBA42D3
S1132A2092411C1B5242A41AD846F1E518001043E7
S1132A3000D163E7F808670707438020E408000330
S1132A40044208D0DD08054205D1D20859071143D4
S1132A500F002C00D8467B0FE4001C43FF00304ECF
S1132A60D6E50C0017000600D2E5002B38D00B0089
S1132A70134300D142E7F808670707438020E408BE
S1132A8000030442E7D0CB080342E4D1D20849074B
S1132A9011430F001C00DEE700270024D5E50021C8
S1132AA06BE700250027F3E54E462500203EF54060
S1132AB04B462E00202B2DD04025ED1AAC40274349
S1132AC07C1EA74100243743C9E680240025240343
S1132AD0134E0027DCE527437C1EA741002479E739
S1132AE00C0017000E4E93E50C00170090E55646B7
S1132AF02300203EF34099465346202B0ED040231A
S1132B0056469B1B9C4027437C1EA7414B460024F2
S1132B101F435FE70024D2E71700B2E50024F2E781
S1132B20FF070000FFFF7FFFF0B557464546DE462E
S1132B304E46E0B54C000E0387B0834692461D0016
S1132B408046360B640DCF0F002C4FD06F4B9C4248
S1132B5035D08023420F1B04F600134333439946B8
S1132B60C30098466A4B00269C46002364440393A2
S1132B702B031B0B9B466B00ED0F50465B0D019521
S1132B805ED0624A934253D05A46D1008022400F0D
S1132B90120402430A4393465246D1005C4A9446C7
S1132BA0002263443800684084460290E41A1643C5
S1132BB00F2E00D9B4E0574BB6009B599F46030033
S1132BC0334399466CD10023984602330826039375
S1132BD0CEE7CB464146039A0197022A65D1019B71
S1132BE04A4C9C460023002298466BE00300334382
S1132BF099464ED0002E00D1BCE1300001F04AF9D4
S1132C0003000B3B1C2B00DDACE11D22D31A5A46FA
S1132C100100DA4008398E401300334399465B467D
S1132C208B40984600233C4C0026241A03939FE7CC
S1132C3051465A46114329D1002293460232B1E744
S1132C40594601431ED05B46002B00D19EE15846F5
S1132C5001F020F903000B3B1C2B00DD8FE1020087
S1132C605946083A91408B461D21CB1A5146D9400A
S1132C700B0059460B4351469B469140264B00227C
S1132C801B1A8FE7002301229B468BE75146032240
S1132C9088E700239846013304260024039367E75A
S1132CA00323B14603930C2662E7032A00D15CE2B6
S1132CB0019B012A00D0E4E113409C460023002438
S1132CC00022984600211203130B0A0D12051A4321
S1132CD02305124C40462240134362465B00D20750
S1132CE05B081343190007B03CBC90469946A246C2
S1132CF0AB46F0BD002380229C4612039846034C49
S1132D00E0E70023014C00229846DBE7FF070000C0
S1132D1001FCFFFF1C4A00000DFCFFFFFFFF0F80BA
S1132D20D94500D939E100D134E1002346464D4666
S1132D309A46013C5B460A0E1B021A430B02170C0F
S1132D40039313041B0C3900280090460193FFF7EA
S1132D5027FA0200019B83465A4328003900914612
S1132D60FFF7A4FA350C09040D43A9450DD95B46B8
S1132D704544013BA84500D93AE1A94500D837E1CB
S1132D8002235B429C464544E3444B46EB1A39001C
S1132D9018000493FFF704FA019B0500434339002C
S1132DA004989946FFF782FA330409041B0C0B4379
S1132DB0994509D943446A1E984500D91AE19945B1
S1132DC000D817E1023D43444A469B1A5A4612046E
S1132DD02A4303999346100C0A0C914609045A4657
S1132DE0090C4E460D001204120C45430591514343
S1132DF07243704352190E0CB218954203D98025C0
S1132E006D02AC466044150C09041204090C281820
S1132E105218834200D2CEE000D1C8E01D1A5346B6
S1132E209E1AB24592415242AB1A9A46984500D135
S1132E3017E139001800FFF7B3F9019B050043437C
S1132E40390050460493FFF731FA04980B04310C0F
S1132E501943884209D941446B1E884500D907E1CA
S1132E60884200D804E1023D4144049BCB1A180077
S1132E7039000493FFF794F9019B824643433900D8
S1132E8004980193FFF712FA01980B043104090C1A
S1132E90194388420DD953464144013B884500D922
S1132EA0E8E0884200D8E5E002235B429C464144C6
S1132EB0E244019B2D04CE1A51462943059D4F46F9
S1132EC02A000B04080C1B0C5A4345437B437843EC
S1132ED05B19170CFB189D4203D980256D02AC4683
S1132EE060441D0C12041B04120C28189B18864203
S1132EF000D293E000D18EE001231943A04BE318E4
S1132F00002B00DC99E04A0700D09EE05A46D2012B
S1132F1006D55A469B4B1A4080239346DB00E318A0
S1132F20994A934268DD0123029A984C1A4000237F
S1132F30944698460022C5E680224B46120313426B
S1132F400AD05B46134206D11A431203120BAC4655
S1132F5088468E4CB6E64B461A431203120BBC4607
S1132F608A4CAFE603005A46283B9A400023914618
S1132F70984657E6584600F08DFF203040E603009F
S1132F805246283B9A400021934677E600F082FFA0
S1132F9020305FE6884500D2C7E64B46DE075D0871
S1132FA043465B081E434346DB079A46C2E60025B8
S1132FB0924500D333E7039E5946B446E244B245F2
S1132FC0AD416D424544EB180139984507D298420A
S1132FD000D97FE000D1BCE01D1A8B461FE798455D
S1132FE0FAD1039D5545F2D943468B461D1A16E77F
S1132FF09B46CAE61500E7E65A46C90852070A4343
S11330005B0590465C0D5A46012302995202194011
S1133010120B8C4656E6002B00D16FE746444A1E3D
S1133020B04529D91100864200D065E7039A93423E
S113303000D061E762E7012149420120C21A382A1F
S113304021DD029B03409C4638E60F220A40042AF5
S113305000D15BE70A00111D914292415242934410
S113306054E7474BE318002BE5DD01225242F2E717
S11330701D00FAE69A461CE7B04239D86ED011001A
S11330803AE702933AE71F2A3CDC20239B1A0C0000
S11330905846994098404B1E99415B46D440D340D2
S11330A0204308431A00430709D00F230340042B8D
S11330B005D00100081D88429B415B42D2181302CF
S11330C03AD50123029A01241A40002394469846D3
S11330D00022F7E5022149428C46039DE344AC46B5
S11330E0E244AA45AD416D424544ED182D1A96E6D9
S11330F08A1E03994D008D42894149424144761804
S113310003958FE71F204042C31A5846D840030056
S1133110202A28D040205D46821A954029434A1E21
S113312091411943072300220B4009D00F230022A9
S11331300B400800042BBDD1010053075202120BAF
S1133140C9081943012388460299002419408C4672
S1133150B8E55245BED88B46002560E6039D9D42E6
S1133160C6D3110062E70025D8E780225B4612032C
S11331701A43019B1203120B9C468846034CA1E59B
S1133180FF030000FFFFFFFEFE070000FF07000033
S1133190F0B557464546DE464E46E0B50C03984624
S11331A04E00230B87B0070092469B46760DCD0F49
S11331B0002E6BD06D4B9E4235D080245B46420F6F
S11331C02404DB0014431C43C3009946684BA34604
S11331D09C46002300276644029343461C035A007E
S11331E0DB0F5046240B520D984600D176E05F4B1E
S11331F09A426DD08023410F1B040B435C49E400C9
S11332008C461C43C300002062444146B618694002
S1133210721C0191944607430F2F00D9B0E0554A20
S1133220BF00D25997465B460343994600D087E0D6
S113323000239B46023308270293CEE742460192BD
S1133240022867D0032800D10EE2012800D062E1F1
S1133250002300240022994601990140CDB20021A7
S113326012030B0D120B1B051343434A2405134091
S11332701C436400ED0764082C434846210007B052
S11332803CBC90469946A246AB46F0BD03439946E2
S11332904FD05B46002B00D189E1584600F0FAFD7F
S11332A003000B3B1C2B00DD7AE11D22D31A3A00EC
S11332B001005C46DA4008398C4013008F402343F8
S11332C09B46B94600232D4E0027361A029384E705
S11332D0534623432AD10024022096E7534623432E
S11332E020D0002C00D157E1200000F0D3FD0300D2
S11332F00B3B1C2B00DD49E11D21CB1A514602007A
S1133300D9405346083A944093400C431B4A121A3E
S113331000207AE70125019B144C1D400023002264
S113332099469CE70024002201206EE753460320BF
S11333306BE700239B4601330427002602934CE7E6
S1133340032381460C27029347E7802200230025AC
S113335012039946054C82E75C464B4602986FE798
S11333605C464B46019502986AE7C046FF07000099
S113337001FCFFFF5C4A0000FFFF0F800DFCFFFF14
S11333804A464946170C1A0C1B041B0C0804190066
S1133390000C41431500884619007D437943039589
S11333A089462900150045434D44029545462D0C98
S11333B0AA46029D5544A94506D98A468021490258
S11333C08946CA4451460391290C04914146090493
S11333D02D04090C88462900250C24044144240C9E
S11333E00591210041438846210079438A46684378
S11333F0414650448146080C48446F43824503D9F2
S11334008021490289464F44010C894639004944C8
S1133410029141460F0404993F0C88460004C019E8
S113342080444146049159460F0C0904090C88460E
S113343059438A4639005143894641464A435146D5
S1133440090C8B467B43D2185A44934203D98023F8
S11334505B029B46D94451460904090C8A464146FD
S113346061437C43130C12044B445244A1468A46E4
S11334703C0041466C434D4351464D440F0C7D196D
S1133480A94503D98021490288464444049F0399ED
S1133490B84641448B468345804141428846514663
S11334A008042F04000C3F18584602991018894646
S11334B0904292414F44BA46524299469346C2447E
S11334C0D144CB448F42BF41C245894199459B4178
S11334D0934592417F4249422D0C52420F435B4235
S11334E013437F19FF185B463C19DB0D059A6402F0
S11334F01C43430213435D1EAB415A46C00D0343B4
S113350052021343E20156D501205A0803401343E3
S1133510E207134364085A48604400284DDD5A0703
S113352009D00F221A40042A05D01A1D9A429B4141
S11335305B42E4181300E20104D58020514AC00024
S113354014406044504A904200DDE3E60125DB0864
S113355062071A436402019B9146220B4405640DE1
S11335601D407CE6802259461203114208D01442C1
S113357006D122431203120B45469946434C6EE68C
S11335805B461A431203120B404C68E60300544690
S1133590283B9C400023B9E600F07CFC2030A6E6E2
S11335A00300283B9F400023BB4699468AE600F06F
S11335B071FC203074E6B446ADE701252A1A382A96
S11335C006DD019B00241D4000230022994646E6A7
S11335D01F2A21DC20252000AD1A1E00AB40A84084
S11335E0D6405D1EAB4130431843D440430709D055
S11335F00F230340042B05D00300181D98429B4160
S11336005B42E418230221D50125019B01241D40BE
S113361000230022994622E61F2521006D42281A24
S1133620C1400800202A1DD05F35AA1A94402343C4
S11336305C1EA341072503431D400022002D09D031
S11336400F2200241A401800042AD6D1030065076B
S11336506402220BDB082B4301259946019B0024BD
S11336601D40FCE50024E2E78022012512032243E9
S113367001991203120B0D409946044CEFE5C04624
S1133680FF030000FFFFFFFEFE070000FF0700002E
S1133690F0B54646D6464F460C03C0B5CD0F4E0096
S11336A0610A440F0C43C1005800400D84468A4609
S11336B00F001903500F490A0143C648760DA84666
S11336C0DB0FD200844500D1D8E001204340AB4257
S11336D000D1A6E06046351A002D00DC05E1002883
S11336E010D10B00134300D1D7E06B1E002B00D088
S11336F04BE153469F1ABA458041641A4042241A4A
S113370001261EE0B34B9E4248D080231B0419437C
S1133710382D00DD19E11F2D00DD4CE120230F00C1
S11337205B1B10009A409F40E840531E9A41E940B9
S1133730074317435346DF1B611ABA45A441644249
S11337400C1B230200D4C5E06402650A002D00D1DD
S1133750F6E0280000F09EFB0300083B1F2B00DD71
S1133760E9E020223C00D21A9D40D4409F402543EA
S11337709E4200DDDBE09E1B731C1F2B00DD0AE173
S113378020223800D21A290097402C009140D840BA
S11337907A1E9741DC40002601430F437B0709D082
S11337A00F233B40042B05D03B1DBB42BF417F424E
S11337B0E4191F00230225D5864B01369E4200D111
S11337C0AFE0854B01251C4043466207FF086402B5
S11337D076051743240B760D1D4000212403230B8B
S11337E00C0D7E4A24051C431440330523435B001F
S11337F0ED075B082B43380019001CBC9046994622
S1133800A246F0BD012543466207FF081743E408BA
S11338101D40704B9E4236D024037605240B760D52
S1133820DBE76346F31A002B00DC94E060460028D3
S113383035D068488642B1D080273F043943382BBD
S113384000DCFDE00A43170000217A1E974157442B
S113385057458041091944420C1923023AD55D4B5E
S113386001369E4200D14BE101225B4B1C407B0898
S113387017401F43E207174364088FE7080010430B
S113388000D024E721E723003B4300D1B9E18022A3
S1133890120314432403240B9FE72E007EE7080041
S11338A0104300D1CAE0581E8446002800D0E7E047
S11338B0524452458041641840422418170001269E
S11338C0230207D50226CFE764462C4300D1B3E197
S11338D02C0067467B0700D062E76307FF081F439D
S11338E001254346E4081D4093E7002D78D1751C5B
S11338F06D056D0D012D00DCF2E05046801A824505
S1133900BF41651A7F42ED1B8446280200D48CE037
S11339105046171ABA4292410C1B5542651B9846F1
S113392014E70125434600241D40002755E72A4C8F
S1133930F61A2C4032E73D0028388540002717E767
S1133940380000F0A7FA203006E70A4317000021E8
S11339507A1E9741EEE6002B00D0E5E0731C9C46EE
S11339605B055B0D012B00DC9FE01A4B9C4500D1ED
S1133970C5E0524452458041641840422418E70788
S1133980520817436408664608E71248854200D186
S113399085E01D00BCE629001F3EF140202B00D12C
S11339A07FE04022D31A9D402F437D1EAF41002467
S11339B00F4300268EE72B000F00203BDF40202D15
S11339C071D040235D1BA9400A43511E8A41002146
S11339D01743AFE6FF070000FFFF7FFFFFFF0F80E5
S11339E0002E3ED0B34EB44545D0802636046D42F9
S11339F03443382D00DDA8E01F2D00DD1FE1202613
S1133A0027005046761BB740E84007435046B04075
S1133A10461EB041EC403843171ABA4292410C1B7F
S1133A205242A41A664698468BE6644667462C437F
S1133A3000D08BE6002500260027EAE61E00ADE64E
S1133A401F2B60DC2027F81A0F00844687401000E3
S1133A50D840074360468240501E8241D9401743F4
S1133A60F5E626005046064305D0ED43002DD3D09D
S1133A70904EB445BDD10C001700664698468DE6BD
S1133A808C4883420BD06346D9E6002D00D096E0E3
S1133A900800104300D1E2E00C0017009846854E60
S1133AA07CE6002580E700218EE72300504603438F
S1133AB0002E00D0A8E0002B00D1DEE00B00134361
S1133AC000D16BE6524452458041641840422418A8
S1133AD01700230200D4FDE6774B66461C405DE6E2
S1133AE0250050460543002ECFD1002D4FD10C00A8
S1133AF0144300D1A0E00C00170098464EE6664639
S1133B000024002785E61F000800203FF840070036
S1133B10202B00D18EE04020C31A99400A43511E45
S1133B208A410021174392E6002E14D12600504604
S1133B30064362D0DB43002B5CD187189742924145
S1133B4064185242A418664687E650462043441E31
S1133B50A041002460E7574EB4454ED08026360479
S1133B605B423443382B00DD7FE01F2B00DD8BE00C
S1133B70202627005046F61AB740D840074350463F
S1133B80B040461EB0410743DC40BF18D6E70D00E5
S1133B90154300D102E65046801A8245BF41651A9A
S1133BA07F42ED1B8446280200D48DE65046171A46
S1133BB0BA4292410C1B5242A41A9846EEE50D00FB
S1133BC0154300D16BE750466707C00807438020C0
S1133BD0E4080003044207D0CD08054204D12C00B8
S1133BE09846D70849070F437B0FE4001C43FF00A6
S1133BF0304ED3E52F4EB445B4D10C0017006646C1
S1133C00CCE500270024E8E5002B39D00B00134352
S1133C1000D144E7C008670707438020E408000395
S1133C200442E1D0CB080342DED1D70849070F4351
S1133C301C00D9E7002171E700250027E9E52E00E3
S1133C402700203EF740202D2FD04026751BAC4086
S1133C5050462043441EA04100243843DCE680241F
S1133C6000252403134E0027D3E5504620430700C4
S1133C70781E87410024BF1860E70C0017008DE50B
S1133C800C0017000B4E89E51E002700203EF7406C
S1133C90202B0CD04026F31A9C4050462043441E4F
S1133CA0A04107430024BF1848E70024D0E70024BC
S1133CB0F3E7C046FF070000FFFF7FFF30B5134D59
S1133CC00A034B00120B5B0DC90F0024AB4210DD3D
S1133CD00F4CA3420FDC80240E4D64032243ED1AE3
S1133CE01F2D0BDD0C48C31ADA405442002900D1C1
S1133CF01400200030BD094BCC18FAE7084CE8400A
S1133D00A44663449A400243EFE7C046FE03000022
S1133D101D0400003304000013040000FFFFFF7FB4
S1133D20EDFBFFFF70B5002830D0C317C4185C400A
S1133D30C50F200000F0AEF8174B184A1B1AD21A10
S1133D401F2A18DD164AD21A9440002224035B0568
S1133D50240B5B0D0021100024030A0D240B120513
S1133D602243104C1B05224013435B00ED075B0804
S1133D702B43190070BD210091400A000B21081A41
S1133D80C4405B052403240B5B0DE3E700250023FB
S1133D9000240022DEE7C0461E04000033040000B5
S1133DA013040000FFFF0F8010B5041E28D000F09C
S1133DB071F8154B154A1B1AD21A1F2A15DD144A1D
S1133DC0D21A9440002224035B05240B5B0D0021CE
S1133DD0100024030A0D240B120522430D4C1B056D
S1133DE0224013435B00590810BD210091400A0092
S1133DF00B21081AC4405B052403240B5B0DE6E782
S1133E00002300240022E2E71E0400003304000023
S1133E1013040000FFFF0F808446101C62468C468A
S1133E20191C634600E0C0461FB500F0FBF80028EB
S1133E3001D40021C8421FBD10B500F055F840421E
S1133E40013010BD10B500F0EDF8002801DB0020B2
S1133E5010BD012010BDC04610B500F0E3F80028E5
S1133E6001DD002010BD012010BDC04610B500F0DA
S1133E7075F8002801DC002010BD012010BDC046EB
S1133E8010B500F06BF8002801DA002010BD012005
S1133E9010BDC0461C2101231B04984201D3000C11
S1133EA010391B0A984201D3000A08391B099842A9
S1133EB001D30009043902A2105C40187047C046BF
S1133EC004030202010101010000000000000000DF
S1133ED010B5002903D1FFF7DDFF203002E0081CF4
S1133EE0FFF7D8FF10BDC046F0B54F464646D6464C
S1133EF05C00C0B51F03DB0F9A46174B0E034D0041
S1133F0084468046360B6D0DC90F91463F0B640DF8
S1133F1001209D4208D09C4201D0A5420BD01CBC7C
S1133F2090469946A246F0BD63463343F7D1AC426E
S1133F30F5D13A43F3D10120BE42F0D1C845EED1C8
S1133F40514507D0002DEAD163461E433000461E7A
S1133F50B041E4E70020E2E7FF070000F0B5454682
S1133F60DE4657464E46E0B51F033D0B2C4F0E036D
S1133F704C00AB465D008446360B640DC90F904679
S1133F806D0DDB0FBC422AD0254FBD422DD0002C35
S1133F900FD130430700814678427841C0B2002DEA
S1133FA017D15F463A4314D14B460020002B0AD068
S1133FB006E0002D02D15846024301D0994218D0A0
S1133FC04842012108433CBC90469946A246AB4670
S1133FD0F0BD0028F2D00120013B1843F3E737007D
S1133FE00743D1D002204042EDE75F461743CED0CD
S1133FF0F8E7AC42E4DC03DA481E01210843E2E7B7
S11340005E45DDD806D000205E45DCD20123481E83
S11340101843D8E7C445D3D80020C445F6D3D2E723
S1134020FF070000F0B54E464546DE4657465C00A5
S1134030E0B51F03DB0F99462A4B0E034D00C90F51
S11340408446360B6D0D8B4690463F0B640D9D42A6
S113405020D0244B9C4222D0002D12D13043434225
S11340604341DBB2002C1FD0002B0CD04B46012067
S1134070013B034318003CBC90469946A246AB461C
S1134080F0BD002C16D0CB4517D05B465942012316
S11340900B43EFE7310002230143EBD1D9E73900A9
S11340A002231143E6D1D7E73A43DDD100230028A8
S11340B0E0D0EAE73A43E6D1E7E7A542E5DC05DBF1
S11340C0BE42E2D807D00023BE42D3D259460123D0
S11340D001390B43CEE7C445D7D80023C445F5D3F3
S11340E0C8E7C046FF07000070B500260C4D0D4C14
S11340F0641BA410A64209D1002600F0E9FC0A4D75
S11341000A4C641BA410A64205D170BDB300EB5841
S113411098470136EEE7B300EB5898470136F2E7CB
S1134120DC4A0000DC4A0000DC4A0000E04A0000EF
S113413010B5034B0100186800F04EF810BDC046DE
S11341401001002070B50500002910D00C1F236851
S1134150002B00DAE418280000F0D7F81D4A136891
S1134160002B05D163601460280000F0CFF870BD07
S1134170A34209D9216860188342F3D118685B68A7
S113418041182160EEE713005A68002A01D0A242C8
S1134190F9D919685818A0420BD120680918581881
S11341A019608242E0D110685268411819605A605F
S11341B0DAE7A04202D90C232B60D5E72168601806
S11341C0824203D1106852684118216062605C60C9
S11341D0CAE7C046D0020020032370B5CD1C9D431E
S11341E0083506000C2D1ED20C25A9421DD830001E
S11341F000F08BF8254A14682100002919D1244CB9
S11342002368002B03D1300000F044F8206029001B
S1134210300000F03FF8431C2CD10C2330003360F5
S113422000F074F803E0002DDFDA0C233360002083
S113423070BD0B685B1B1AD40B2B03D90B60CC1815
S1134240256003E08C420ED163681360300000F0F7
S11342505DF8200007220B30231D9043C31AE7D0DA
S11342605A42E250E4E74B6863600C00EEE70C004E
S11342704968C2E70323C41C9C43A042E0D0211A2E
S1134280300000F007F8431CDAD1C6E7D002002062
S1134290D4020020002370B5064C050008002360FA
S11342A0FDF7F2FD431C03D12368002B00D02B60E3
S11342B070BDC046A80700200EB410B59DB002A979
S11342C0029008610B4882248860486101204042C2
S11342D01FABC881084804CBA400006801938C81FB
S11342E000F078F80023029A13701DB010BC08BCCB
S11342F003B01847FFFFFF7F100100200023C25CBA
S11343000133002AFBD1581E7047704770470000E4
S1134310F0B58E6885B007000C00039201939E42AD
S113432039D890238A89DB001A4234D003250969DD
S113433023685B1A0293636902985D43EB0F5D196E
S1134340019B6D1001331B18AB4200D91D005305AE
S113435032D529003800FFF73FFF061E09D10C2390
S11343603B6040230120A28940421343A38105B04E
S1134370F0BD029A216900F0C4FAA389144A1A40D4
S113438080231343A381029B2661F618266065618E
S1134390019EED1AA560019BB34200D21E003200BB
S11343A00399206800F0B6FAA36800209B1BA36061
S11343B023689E192660DAE72A00380000F0BCFA68
S11343C0061EE0D121693800FFF7BCFEC7E7C046EE
S11343D07FFBFFFFF0B59FB0029005938B890F0020
S11343E016001B0611D50B69002B0ED14021FFF7D7
S11343F0F3FE38603861002805D10C23029A013895
S113440013601FB0F0BD40237B61002306AD6B61D8
S113441020336B761033AB7634002378002B47D1EE
S1134420A31B04930DD0A31B320039000298FFF79D
S11344306FFF431C00D1B5E06A69049B9446634452
S11344406B612378002B00D1ACE00122002352429F
S11344506A6002A95432521801342B60EB60AB60DD
S11344601370AB65584E05222178300000F03EFAF7
S1134470621C002820D12968CB0604D5532302AE40
S113448020309B1918700B0704D553232B2002AE40
S11344909B19187023782A2B16D000200A21099B17
S11344A02278303A092A55D9002815D0099313E007
S11344B0252BB5D00134B0E70123801B8340296844
S11344C014000B432B60CDE7059B181D1B6805905A
S11344D0002B39DB0993140023782E2B0BD163783E
S11344E0621C2A2B3ED1059B02341A1D1B680592BF
S11344F0002B34DB0793354E21780322300000F083
S1134500F5F9002806D04023801B83402A68013433
S113451013432B60217806222D48661C297600F06F
S1134520E5F9002846D02B4B002B2FD12968059B99
S11345300722C90528D59B189343083305936B6953
S1134540039A9B186B6167E75B42EB6002230B43A2
S11345502B60C0E74B4301349B180120A0E70123E3
S11345605B42C7E7002314000A201A006B6021781D
S11345703039092903D9002BBDD00792BBE7424348
S1134580013452180123F2E70733D5E705AB009352
S11345903A00114B2900029800E000BF0390039BEE
S11345A00133CCD1BB890B985B0600D429E70120E9
S11345B0404226E705AB00933A00074B29000298D6
S11345C000F07AF8EAE7C0469C4A0000A24A0000DC
S11345D0A64A00000000000011430000F7B51500D2
S11345E001938A680B6900900C00934200DA13006F
S11345F022002B6043321278002A01D001332B6051
S113460023689B0602D52B6802332B600627236898
S11346101F4027D0230043331B785A1E934122683E
S1134620920630D42200019943320098089EB04784
S1134630431C25D0062320682A68E168034000252E
S1134640042B03D18D1AEB43DB171D40A3682269A9
S1134650934201DD9B1AED180027BD4220D10020B2
S113466010E00137E3682A689B1A9F42D2DA2200DD
S11346700123193201990098089EB047431CF0D1D8
S113468001204042FEBD3020E11843310870210072
S11346905A1C45310978A218433202331170C1E71C
S11346A0220001231A3201990098089EB047431C46
S11346B0E6D00137D1E70000F0B58BB006920A00CE
S11346C043320793059004920A7E0C00109B6E2AD5
S11346D000D18FE017D8632A2CD008D8002A00D143
S11346E099E0582A54D026004236327029E0642AD0
S11346F001D0692AF7D121681A68080623D5111D4B
S11347001960156825E0732A00D188E008D86F2A5B
S113471029D0702AE7D1202209680A43226003E0E5
S1134720752A20D0782ADED12200782145321170F2
S11347306C4A30E00E001A684236111D1960136885
S11347403370012379E04906D9D5111D196000237E
S1134750D55E002D03DA2D23049A6D421370624B4B
S11347600A2703932FE020681968050603D5081D5E
S113477018600D6805E04006F9D50D68081D18603D
S1134780ADB2594B082703936F2A18D00A2716E0B5
S113479045310A70544A03921A682168101D186042
S11347A01568080622D5CB0702D5202319432160BA
S11347B01027002D03D1202322689A43226023006E
S11347C0002243331A706368A360002B5CDB04226D
S11347D0216891432160002D58D1049E002B64D0A0
S11347E02600039B42361B7833705EE04806DAD518
S11347F0ADB2D8E709681A68080605D5111D196015
S1134800136862691A6006E04906F7D5111D19603C
S11348101368A28A1A800023049E236154E01A6854
S1134820111D1960166800216268300000F05EF8FE
S1134830002801D0801B6060636823610023049A10
S1134840137041E02369320006990598079DA84733
S1134850431C43D0236800259B070FD4099BE068C1
S113486098423DDA18003BE02200012319320699F0
S11348700598079EB047431C30D00135E368099A78
S11348809B1A9D42F0DBE9E7002DA9D0049E280085
S11348903900FDF70BFD039B013E5B5C2800337080
S11348A03900FDF77DFC051EF1D1082F09D12368DD
S11348B0DB0706D563682269934202DC3023013E9C
S11348C03370049B9B1B2361079B09AA009321005F
S11348D0069B0598FFF782FE431CB3D1012040429A
S11348E00BB0F0BDBE4A0000AD4A0000C9B2821848
S11348F0904201D10020704703788B42FBD00130F5
S1134900F6E7002310B59A4200D110BDCC5CC45424
S11349100133F8E710B5884202D98B18984208D3BE
S113492000239A4207D0CC5CC4540133F9E78B5C72
S11349308354013AFBD210BDF8B507000D001600F0
S1134940002905D11100FFF747FC04002000F8BD41
S1134950002A03D1FFF7F6FB3400F7E700F012F862
S11349602C008642F2D931003800FFF735FC041ED2
S1134970ECD029003200FFF7C4FF29003800FFF70C
S1134980E1FBE3E70B1F1B68181F002B01DA0B5830
S1134990C018704700080042000C0042001000429A
S11349A00014004200180042001C00421E160000C1
S11349B01A1600001A160000801600008016000067
S11349C03216000024160000381600006E1600008F
S11349D0401800002018000020180000AC18000047
S11349E0321800004E180000241800005C18000063
S11349F09C18000052656164696E6720636F6D7076
S1134A006C6574650A0D00002564200025643B2054
S1134A100A0D000025640A0D00000000202D00008E
S1134A20022D0000BC2C0000DA2B0000BC2C00007E
S1134A30F42C0000BC2C0000DA2B0000022D000036
S1134A40022D0000F42C0000DA2B0000D22B000011
S1134A50D22B0000D22B0000382F0000803300003E
S1134A6040320000403200003C3200005833000065
S1134A70583300004A3300003C3200005833000031
S1134A804A330000583300003C3200006033000019
S1134A90603300006033000064350000232D302BA8
S1134AA02000686C4C00656667454647003031322B
S1134AB03334353637383941424344454600303182
S1134AC032333435363738396162636465660000E1
S1134AD0F8B5C046F8BC08BC9E467047DD0000002F
S1134AE0F8B5C046F8BC08BC9E467047B500000047
S10B4AF098D8FF7F01000000CB
S1134AF8BFF35F8F01380028FAD17047010700001F
S1134B08000102030405060700000000000000007D
S1134B180000000000000000000000000000000089
S1134B280000000000000000000000000000000079
S1134B380000000000000000000000000000000069
S1134B480000000000000000000000000000000059
S1134B580000000000000000000000000000000049
S1134B680000000000000000000000000000000039
S1134B780000000000000000000000000000000029
S1134B880000000000000000000000000000000019
S1134B980000000000000000000000000000000009
S1134BA800000000000000000000000000000000F9
S1134BB800000000000000000000000000000000E9
S1134BC800000000000000000000000000000000D9
S1134BD800000000000000000000000000000000C9
S1134BE800000000000000000000000000000000B9
S1134BF800000000000000000000000000000000A9
S1134C081401002000000000000000000000000063
S1134C180000000000000000000000000000000088
S1134C280000000000000000000000000000000078
S1134C380000000000000000000000000000000068
S1134C480000000000000000000000000000000058
S1134C580000000000000000000000000000000048
S1074C680000000044
S9030000FC
